:100000000C94C6070C940D080C940D080C940D0864
:100010000C940D080C940D080C940D080C940D080C
:100020000C940D080C940D080C94ED2B0C94BF2C23
:100030000C9465260C940D080C940D080C940D0876
:100040000C940D080C940D080C940D080C940D08DC
:100050000C940D080C94BE260C940D080C940D08FD
:100060000C940D080C940D080C940D080C940D08BC
:100070000C940D080C940D080C940D080C940D08AC
:100080000C940D080C940D080C940D080C940D089C
:100090000C940D080C940D080C940D080C940D088C
:1000A0000C940D080C940D080C940D08790C790C27
:1000B000AB0CAB0CF80C160D370E370E210DB60D30
:1000C000C70DC70D270E370E370E300EE50EE50EA5
:1000D000F70EF70EEE0EF70EF70EF70EE50EE50E25
:1000E000F30EF70EF70EF30E561D441D5D1DCF1CCB
:1000F0000A1E0A1E411D0A1E0A1E8A1D0A1E9E1D78
:10010000EA1D0A1E0A1E0A1E0A1EBE1D0A1E0A1E1D
:10011000BB1D0A1E761D0A1E0A1E041E041E041E96
:10012000041E041E041E041E041E041E061E0A1EB7
:10013000561D391D0A1E0A1E0A1E0A1E0A1E0A1E06
:100140000A1E0A1E0A1E0A1E061E0A1E0A1E411D3D
:100150000A1E021E021E021E021E021E021E021E97
:10016000021E021E061E2C2D532D4B2E532D4B2EE0
:100170009F2DC22D4B2E192E282E14001A00080078
:100180001500170000001C0018000C0012001300DE
:1001900004001600070009000A0000000B000D0013
:1001A0000E000F0033001D621B0006001900050041
:1001B00029611100100036003700387201510251D8
:1001C000E200E3002C0028642A00015100000052E4
:1001D0002B0035001E001F0020002100000022001F
:1001E000230024002500260000002D002E003400EE
:1001F000000000005000510052004F002700E100B5
:1002000026022F003000270229614A004E004B00D1
:100210004D00317201000251E200E3002C0028641D
:100220002A000100AA00A900A800390040004100EE
:100230004200430000005400240025002600560020
:1002400046003D003E003F004400000055002100F4
:10025000220023005700E1003A003B003C0045002B
:10026000296158001E001F002000670047000100A0
:10027000E200E3002C0028644C00004327006300E8
:100280002B0035001E001F0020002100000022006E
:1002900023002400250026492B0014001A00080022
:1002A0001500000017001C0018000C001240E000B0
:1002B00004001600070009002C000A000B000D00C6
:1002C00052000F00E1001D001B000600190029402C
:1002D00005001100500051004F0001000100010015
:1002E0000100010000000100010001000100010007
:1002F00001000100010001000100000001000100F7
:1003000001000100010001000100010001000100E5
:1003100001000100010001000100010001000100D5
:1003200001000100010001000100010001000100C5
:1003300001000100010001000100010000000100B6
:1003400001000100010001000100010001000100A5
:100350000100000001000100010001000100010096
:100360000100010001000100010001000100010085
:100370000100010001000100010001000100010075
:100380000100010001000100010001000100010065
:100390000100010000000100010001000100010056
:1003A0000100010001000100010000000100010046
:1003B0000100010001000100010001000100010035
:1003C0000100010001000100010001000100010025
:1003D0000100010001000100010001000100010015
:1003E0000100010001000100010001000000010006
:1003F00001000100010001000100010001000100F5
:1004000001000000010001000100010001000100E5
:1004100001000100010001000100010001000100D4
:1004200001000100010001000100010001000100C4
:1004300001000100010001000100010001000100B4
:1004400001000100000001000100010001000100A5
:100450000100010001000100010000000100010095
:100460000100010001000100010001000100010084
:100470000100010001000100010001000100010074
:100480000100010001000100010001000100010064
:10049000010007000800050018000A000000000025
:1004A000000000000000000000000000000000004C
:1004B00000000000000000000000000000400000FC
:1004C000000000000000000000000000000000002C
:1004D00000000000000000000100105000000000BB
:1004E00000000000DF5C015C005C44454255473A77
:1004F0002064697361626C65642E0A00444542554C
:10050000473A20656E61626C65642E0A0000000047
:1005100000000000002A2B2800000000000000005E
:10052000000000000000000029000000002C1E3424
:1005300020212224342627252E362D3738271E1F2A
:10054000202122232425263333362E37381F040555
:10055000060708090A0B0C0D0E0F101112131415C3
:10056000161718191A1B1C1D2F3130232D350405A1
:10057000060708090A0B0C0D0E0F101112131415A3
:10058000161718191A1B1C1D2F3130354C0000008E
:10059000000000000000000000000000000000005B
:1005A000000000000000000000000000000000004B
:1005B000007E0F00D4FFFFFFC7000000784F6E657C
:1005C00073686F743A206163746976653A202564B4
:1005D0000A000A0025303258006B6579626F61723B
:1005E000645F7365745F6C65643A20000A002530AF
:1005F000313662003A200025303258000A722F63EB
:10060000203031323334353637383941424344456E
:10061000460A00313A0964656C6179282A31306DE7
:1006200073293A2025750A323A09696E7465727623
:10063000616C286D73293A2025750A333A096D617A
:10064000785F73706565643A2025750A343A0974D9
:10065000696D655F746F5F6D61783A2025750A3545
:100660003A09776865656C5F6D61785F7370656581
:10067000643A2025750A363A09776865656C5F74B7
:10068000696D655F746F5F6D61783A2025750A004A
:10069000703A097072696E742076616C7565730AC0
:1006A000643A097365742064656661756C74730AD5
:1006B00075703A092B310A646E3A092D310A6C744F
:1006C0003A092B31300A72743A092D31300A4553F8
:1006D000432F713A09717569740A0A73706565640C
:1006E000203D2064656C7461202A206D61785F7301
:1006F00070656564202A2028726570656174202FFA
:100700002074696D655F746F5F6D6178290A776821
:100710006572652064656C74613A20637572736FED
:10072000723D25642C20776865656C3D25640A530D
:10073000656520687474703A2F2F656E2E77696B2B
:100740006970656469612E6F72672F77696B692FB5
:100750004D6F7573655F6B6579730A004D3E2000C0
:100760004D25753A25733E20003F0A003D20257532
:100770000A003F0A0064656661756C74730A00259F
:10078000750A003F0A000A092D2056616C756573D1
:10079000202D0A00710A000A092D204D6F7573651E
:1007A0006B6579202D0A003F00433E20004C2564F4
:1007B0000A000A092D20537461747573202D0A688C
:1007C0006F73745F6B6579626F6172645F6C65648F
:1007D0007328293A20253032580A6B6579626F6197
:1007E00072645F70726F746F636F6C3A2025303281
:1007F000580A6B6579626F6172645F69646C653A0F
:1008000020253032580A6B65796D61705F636F6EB9
:100810006669672E6E6B726F3A20253032580A7403
:10082000696D65725F72656164333228293A2025EB
:1008300030386C580A000A092D2056657273696FAA
:100840006E202D0A5649443A20307831323039280A
:10085000546563686E6F6D616E63792920504944F9
:100860003A203078413145352841747265757329D5
:10087000205645523A203078303030380A425549B7
:100880004C443A20202853657020203220323032E8
:1008900031290A4F5054494F4E533A204C55464146
:1008A000204D4F5553454B45592045585452414BC7
:1008B000455920434F4E534F4C4520434F4D4D41DA
:1008C0004E44204E4B524F20343039360A47434372
:1008D0003A20352E342E30204156522D4C49424379
:1008E0003A20322E302E30204156525F415243483A
:1008F0003A20617672350A000A092D20436F6E7323
:100900006F6C65202D0A4553432F713A0971756943
:10091000740A6D3A096D6F7573656B65790A000A23
:10092000092D204D61676963202D0A443A09446509
:10093000627567204D65737361676520546F6767E3
:100940006C650A583A094D61747269782044656291
:100950007567204D6F646520546F67676C65202D47
:100960002053686F77206B65797072657373657358
:1009700020696E206D617472697820677269640AFB
:100980004B3A094B6579626F617264204465627508
:100990006720546F67676C65202D2053686F772040
:1009A0006B65797072657373207265706F72740A0B
:1009B0004D3A094465627567204D6F757365205423
:1009C0006F67676C650A563A0956657273696F6E90
:1009D0000A533A095374617475730A433A094163BF
:1009E00074697661746520436F6E736F6C65204D1A
:1009F0006F64650A46312D4631303A095377697480
:100A0000636820746F204C6179657220302D392025
:100A100028463130203D204C30290A302D393A0902
:100A200053776974636820746F204C617965722014
:100A3000302D390A47524156453A09537769746354
:100A40006820746F204C6179657220302028616CB9
:100A50007465726E617465290A423A094A756D704F
:100A600020746F20426F6F746C6F616465720A4509
:100A700053433A094A756D7020746F20426F6F744A
:100A80006C6F616465722028616C7465726E61744C
:100A900065290A453A095072696E742045455052DD
:100AA0004F4D2053657474696E67730A4253504109
:100AB00043453A09436C65617220454550524F4D9C
:100AC0000A4E3A094E4B524F20546F67676C650AC5
:100AD000006B65796D61705F636F6E6669672E721A
:100AE00061773A20253032580A2E737761705F6340
:100AF0006F6E74726F6C5F636170736C6F636B3A6F
:100B00002025750A2E636170736C6F636B5F746F61
:100B10005F636F6E74726F6C3A2025750A2E73775F
:100B200061705F6C63746C5F6C6775693A202575E2
:100B30000A2E737761705F7263746C5F7267756998
:100B40003A2025750A2E737761705F6C616C745F53
:100B50006C6775693A2025750A2E737761705F722C
:100B6000616C745F726775693A2025750A2E6E6F25
:100B70005F6775693A2025750A2E737761705F6724
:100B8000726176655F6573633A2025750A2E737707
:100B900061705F6261636B736C6173685F626163F4
:100BA0006B73706163653A2025750A2E6E6B726FE8
:100BB0003A2025750A0064656275675F636F6E662B
:100BC00069672E7261773A20253032580A2E656E99
:100BD00061626C653A2025750A2E6D6174726978C0
:100BE0003A2025750A2E6B6579626F6172643A202E
:100BF00025750A2E6D6F7573653A2025750A006597
:100C000065636F6E6669673A0A64656661756C74E0
:100C10005F6C617965723A2025750A003F004E4B82
:100C2000524F3A206F66660A004E4B524F3A206F81
:100C30006E0A000A6D6F7573653A206F66660A006A
:100C40000A6D6F7573653A206F6E0A000A6B6579DD
:100C5000626F6172643A206F66660A000A6B65799A
:100C6000626F6172643A206F6E0A000A6D6174727D
:100C700069783A206F66660A000A6D617472697855
:100C80003A206F6E0A000A64656275673A206F66E3
:100C9000660A000A64656275673A206F6E0A000A88
:100CA0000A4A756D70696E6720746F20626F6F7489
:100CB0006C6F616465722E2E2E2000433E2000432F
:100CC0006C656172696E6720454550524F4D0A0050
:100CD000290A002575002F002575005D2800256470
:100CE0000020002564002000256400200025640009
:100CF0007C0025303258006D6F7573656B65792007
:100D00005B62746E7C782079207620685D2872653D
:100D1000702F61636C293A205B00556E69636F64C4
:100D20006520696E707574206D6F646520736574DD
:100D300020746F3A2025750A00556E69636F6465EB
:100D400020696E707574206D6F646520696E6974BA
:100D500020746F3A2025750A000A00253032582089
:100D6000006B6579626F6172645F7265706F727437
:100D70003A200064656C5F6B65795F6269743A2044
:100D800063616E27742064656C3A20253032580AFE
:100D9000006164645F6B65795F6269743A206361C6
:100DA0006E2774206164643A20253032580A005B53
:100DB000735D004B6579626F617264207374617258
:100DC000742E0A005B575D005B535D005B525D0053
:100DD0005B445D005B435D000E03410074007200E4
:100DE000650075007300000018035400650063007F
:100DF00068006E006F006D0061006E006300790096
:100E000000000403090409025B00030100A0FA09C1
:100E10000400000103010100092111010001224029
:100E2000000705810308000A09040100010300000E
:100E30000009211101000122B600070582032000EC
:100E40000A09040200020300000009211101000147
:100E50002222000705830320000107050303200069
:100E60000112010002000000080912E5A1080001BA
:100E70000200010631FF0974A1010975150026FF62
:100E8000009520750881020976150026FF0095203F
:100E900075089102C005010902A10185020901A19D
:100EA000000509190129081500250195087501811A
:100EB000020501093009311581257F9502750881E8
:100EC0000609381581257F950175088106050C0AEC
:100ED00038021581257F950175088106C0C005017E
:100EE0000980A101850319012AB700150126B70061
:100EF000950175108100C0050C0901A10185041937
:100F0000012AA002150126A002950175108100C0DA
:100F100005010906A1018505050719E029E7150066
:100F200025019508750181020507190029EF1500B3
:100F3000250195F07501810205081901290595051E
:100F400075019102950175039101C005010906A182
:100F500001050719E029E7150025019508750181AC
:100F6000029501750881010507190029FF15002662
:100F7000FF009506750881000508190129059505EA
:100F800075019102950175039101C00011241FBEE6
:100F9000CFEFDAE0DEBFCDBF04B603FE27C08091FD
:100FA000FC029091FD02A091FE02B091FF028730F9
:100FB000904BA740B04BD1F41092FC021092FD026E
:100FC0001092FE021092FF0214BE84B7877F84BF86
:100FD0000FB6F894A89580916000886180936000B6
:100FE000109260000FBEE0E0F8E3099511E0A0E088
:100FF000B1E0E2E1FEE502C005900D92A23FB1072B
:10100000D9F722E0A2EFB1E001C01D92AC3FB207D8
:10101000E1F70E944D1B0C94072F0C940000FF93E6
:10102000EF93E091F201F091F301309709F0099507
:10103000EF91FF910895FC018591803011F0EFDF71
:10104000FBCF0895FF27E0E230E247FF0CC0419557
:1010500097FF09C0EDE26095709580959095611DB0
:10106000711D811D911D27FF02C0219530E350E2C3
:10107000AA27660F771F881F991FAA1FA41710F0B1
:10108000A41B63955A95A9F7AA3008F0A95FA05D43
:10109000AF93F395611571058105910541F7ED3227
:1010A00011F4EF93F395F21718F43F93F395FBCFF8
:1010B0008F91B5DFFA95E1F70895E991F99185915E
:1010C000803021F0853219F0AADFF9CF089520E0B1
:1010D000E89455915532C1F3503311F46894559109
:1010E0005A3348F4505390F3220F022E220F220F4E
:1010F000200D250FF4CF0EF4219589919991533647
:1011000019F3533729F1533559F1BC018827992731
:10111000E8945C3621F489919991689455915436FC
:1011200039F446EF7EF077FF0DC08FEF9FEF0AC0D6
:1011300055374AE039F0583540E121F0523642E067
:1011400009F00895FF93EF937DDFEF91FF91B7CF03
:10115000FF93EF93FC0181918030B9F360DFFBCF07
:10116000FF93EF9368DFF1CFDF93CF93CDB7DEB777
:101170002596A3DFCF91DF9108959C013A95211523
:101180003F4130F5BC0166277270AC0144275470B2
:101190009C012227387094FF0FC090FF02C080E1AD
:1011A00001C080E0672B09F08062452B09F0806464
:1011B000232B79F080680895892F8170672B09F0BF
:1011C0008260452B09F08460232B19F08860089514
:1011D00080E00895CF93DF93EC01805E910908973A
:1011E00010F0209731F4CE010E94BD080E94380C07
:1011F00005C0CE010E94BD080E94AB0E8C2FDF916E
:10120000CF910C94010BCF93DF93EC010E94B00BB4
:10121000CE01805E9109089710F0209739F4CE0135
:101220000E94BD08DF91CF910C943F0CCE010E942B
:10123000BD08DF91CF910C94B20ECF93DF93EC01F8
:101240000E94EA08CE01DF91CF910C94030981E05E
:10125000089581E008950C94290908950C942D09AE
:101260001F93CF93DF9300D000D01F92CDB7DEB78E
:1012700049835A836B833091F40189819A813111BA
:1012800014C0662359F0222349F00E948910182FB8
:10129000682F89819A810E94321003C00E945D10DC
:1012A000182F69817A81812F04C00E948910698179
:1012B0007A810F900F900F900F900F90DF91CF9148
:1012C0001F910C945D17FC01262F40815181628192
:1012D000738184810C94300981E00895CF93DF936A
:1012E000EC0160E00E946309BE01DF91CF910C9494
:1012F0002E090E9471190E94A70A0E949D210C9438
:10130000F4190C94F01908950E94D30E0E948309D9
:101310002FEF84E39CE0215080409040E1F700C033
:1013200000000C94E4260F931F93CF93DF938C015E
:1013300061E00E946309EC01B8010E942B09882337
:1013400009F462C0B801CE010E944E22882309F43C
:101350005BC0B801CE010E94DD22882309F454C08D
:10136000B801CE010E942F23882309F44DC0B80193
:10137000CE010E945A24882309F446C0F8018281D4
:101380008823D9F1CF3D8CE5D80779F140F4C11518
:10139000FCE5DF0791F0C130DC4591F02EC0CC3583
:1013A000EDE5DE0741F1CD35FDE5DF0709F1CB3590
:1013B000DD4519F50E94C51420C00E94840924C08F
:1013C00080918902C82FC095C170C0FB80F98093BD
:1013D0008902CC2329F08CEF94E00E941B0814C0F2
:1013E0008AEE94E00E941B0810C00E9435160CC0C3
:1013F0000E94BC1402C00E94C814C801DF91CF91A2
:101400001F910F910C942709C0E08C2FDF91CF9191
:101410001F910F910895DF92EF92FF920F931F9308
:10142000CF93DF93E82FF0E0E35FFA4FD490282FBB
:1014300026952695269530E0F901E355FA4F04915B
:10144000877010E0082E02C0159507950A94E2F700
:1014500001701127F901E356FA4FE490F12C082EA0
:1014600002C0F594E7940A94E2F791E0E922FF24A0
:10147000F901E357FA4FC491D0E002C0D595C79562
:101480008A95E2F7C170DD270115110519F081EE8B
:101490000E94010BE114F10419F086EE0E94010B89
:1014A0008D2D0E942F0CEF2819F086EE0E94B00BB4
:1014B000012B19F081EE0E94B00BCD2B51F08CE284
:1014C000DF91CF911F910F91FF90EF90DF900C94DF
:1014D0002F0CDF91CF911F910F91FF90EF90DF9034
:1014E0000895982F9F709A50963010F0805D01C03B
:1014F000895A0C940B0A8295982F937344E0949F19
:10150000900111248C7C86958695282B822F8575D9
:10151000880F2A7A2695822B0895CF93DF93D92FAF
:101520000E947B0AC82F8D2F0E947B0A2C2F30E04F
:10153000322F2227A901482BCA01DF91CF910895AC
:1015400008950C94A00A81E008950C94A30A0895CC
:10155000CF93C82F0E94A10A8C2F0E94A50ACF9179
:101560000895CF93DF93CDB7DEB72B970FB6F894DE
:10157000DEBF0FBECDBF4F83588769877A878B87C1
:1015800061110E94EE149E012F5F3F4F86E0F9012A
:1015900011928A95E9F785E0FE013796D90101900D
:1015A0000D928A95E1F789819A814C815D81452B65
:1015B00031F09F3F31F491E08F3F19F403C091E087
:1015C00001C090E090FF09C049815A816B817C8104
:1015D0008D819E810E94D71305C0C9010E946C09AC
:1015E0008111F2CF2B960FB6F894DEBF0FBECDBFA0
:1015F000DF91CF910895FC01808191810E94CB10F1
:101600000895CF93882309F4A9C0C82F8238C1F464
:101610000E94902481FDA2C069E380910001909115
:1016200001010E94E6250E9420152FEF81EE94E033
:10163000215080409040E1F700C0000069E319C0EC
:10164000833801F50E94902480FD88C063E5809175
:101650000001909101010E94E6250E9420152FEFC4
:1016600081EE94E0215080409040E1F700C00000FE
:1016700063E580910001909101010E94F125CF91D5
:101680000C9420158438C1F40E94902482FD66C019
:1016900067E480910001909101010E94E6250E947B
:1016A00020152FEF81EE94E0215080409040E1F72B
:1016B00000C0000067E4DDCF8CEF8C0F813AF8F4B6
:1016C0008C2F0E941C1E811149C06C2F809100013B
:1016D000909101010E944425882349F06C2F80914C
:1016E0000001909101010E94F1250E9420156C2FAC
:1016F00080910001909101010E94E625C0CF80E217
:101700008C0F883048F4C77081E001C0880FCA95FB
:10171000EAF70E94CE14B3CFEBE5EC0FE33040F4D0
:10172000F0E0ED5BFE4F808190E0CF910C940225BC
:10173000E8E5EC0FE73150F4F0E0EE0FFF1FEB5E51
:10174000FE4F80819181CF910C941825CD3E30F0D1
:101750008C2F0E94F51ECF910C94C71FCF91089536
:10176000882309F464C0823879F40E94902481FFB0
:101770005EC069E380910001909101010E94E6251D
:101780000E94201569E310C08338B1F40E949024B0
:1017900080FF4DC063E580910001909101010E949E
:1017A000E6250E94201563E58091000190910101DA
:1017B0000E94F1250C942015843879F40E9490241D
:1017C00082FF35C067E480910001909101010E9481
:1017D000E6250E94201567E4E7CF9CEF980F913A29
:1017E00010F4682FE1CF90E2980F983050F4877092
:1017F00091E001C0990F8A95EAF7892F0E94D414CD
:10180000D9CF9BE5980F933020F480E090E00C94C2
:10181000022598E5980F973120F480E090E00C9431
:1018200018258D3E20F00E94501F0C94C71F08956C
:101830001F93CF93DF93182FEB010E94010B20978A
:1018400041F08FE99FE00197F1F700C00000219778
:10185000F6CF812FDF91CF911F910C94B00B89337C
:1018600019F060E070E002C060E570E00C94180CC4
:10187000882321F00E94CE140C942015089588230B
:1018800021F00E94D4140C9420150895CF92DF9279
:10189000EF92FF920F931F93CF93DF937C01062F5C
:1018A000C72FFC01D281158112951F700E948F14E1
:1018B000882399F0DD2389F08C2F807F803421F0FC
:1018C00080E2800F883048F082E00E9470150E940C
:1018D0008F1491E0D82ED92601C0D12CCC2EC294E1
:1018E0008FE0C8228C2D90E0FC01EA5AFF4F0C9447
:1018F0009E2E8C2F807FCF70882311F0C295C07FE1
:10190000DD2399F0CC2309F48DC180E2800F88306B
:1019100010F0011104C08C2F0E94CE1403C08C2F34
:101920000E94E1140E9420157DC1802F0E94B00BFF
:10193000CC2309F49CC180E2800F883010F00111A3
:1019400004C08C2F0E94D41403C08C2F0E94E71473
:101950000E9420158CC18C2F807FCF70803211F0B7
:10196000C295C07F002319F00130C9F022C0DD23E9
:1019700071F0112341F0113031F40E9401158C2BCC
:101980000E94091574C10E9401158C2B1DC01123E2
:1019900019F0113009F46BC10E94161525C0DD2322
:1019A00021F0163008F063C10EC0153008F05FC199
:1019B0001BC0DD2361F0112331F0F701858180FF29
:1019C00031C18F7085838C2F0E94380C50C1112338
:1019D00059F0093309F037C1FFEF27EE83E0F150EA
:1019E00020408040E1F72DC18C2F0E943F0C3FC169
:1019F0008C2F86958695837019F0813061F037C100
:101A0000DD2321F0802F9C2F937002C080E090E0B6
:101A10000E94022534C1DD2321F0802F9C2F93707A
:101A200002C080E090E00E94182529C1802FDD23AC
:101A300019F00E94F51E02C00E94501F0E94C71F8D
:101A40001EC18C2F837009F045C0D11114C1402FE5
:101A5000429546954770440F440F602F6F70862F54
:101A600090E0A0E0B0E0042E04C0880F991FAA1FE8
:101A7000BB1F0A94D2F704FF10C00FE010E020E073
:101A800030E004C0000F111F221F331F4A95D2F708
:101A9000009510952095309503C000E010E0980166
:101AA000C695C695C370BC01CD01602B712B822BEE
:101AB000932BC23049F058F4C13019F00E94480FFE
:101AC000DAC00E94360FD7C00E945A0FD4C00E94BD
:101AD000340FD1C0DD2319F08C2F817001C08695A1
:101AE000882309F4C8C0402F429546954770440F9B
:101AF000440F602F6F70862F90E0A0E0B0E0042EBE
:101B000004C0880F991FAA1FBB1F0A94D2F704FFB5
:101B100010C00FE010E020E030E004C0000F111F03
:101B2000221F331F4A95D2F70095109520953095C6
:101B300003C000E010E09801C695C695C370BC01D3
:101B4000CD01602B712B822B932BC23049F058F4BE
:101B5000C13019F00E940D108EC00E94FB0F8BC087
:101B60000E941F1088C00E946E0F85C0CF70DD23B9
:101B700039F08C2F0E94940F802F0E94380C7BC06C
:101B8000802F0E943F0C8C2F0E94B50F74C0023F23
:101B900001F128F4003F41F0013FA1F03FC0033FB5
:101BA000F9F0043F39F13AC0DD2341F0153008F077
:101BB0005EC08C2F8F710E94DA0F59C0163008F06A
:101BC00056C0F7CFDD2339F08C2F8F710E94940F10
:101BD0004EC0DD23C9F38C2F8F710E94B50F47C013
:101BE000DD2329F08C2F8F710E947F0F40C00E944F
:101BF0007A0F3DC0DD2349F0CF718C2F0E94940FE6
:101C000063E08C2F0E94551532C081E00E94701550
:101C1000123068F182E00E94701529C0DD2331F096
:101C2000112391F2802F0E94010B21C0112399F200
:101C3000093349F49FEFE7EEF3E09150E040F040C4
:101C4000E1F700C00000802F0E94B00B10C04C2FA5
:101C50004F70602FC7010E9459170E94F9100FC0E2
:101C60004C2F4F70602FC7010E945C1708C088EF8F
:101C70008C0D843020F40E9490240E94A80ADD205C
:101C8000C9F00E948B1480FD15C0F70112820E94DA
:101C900085140E94940FC7010E947B0E0E94851438
:101CA000DF91CF911F910F91FF90EF90DF90CF9038
:101CB0000C94B50FDF91CF911F910F91FF90EF9092
:101CC000DF90CF9008950F931F93CF93DF93EC0194
:101CD000688179818A810E94D6108C010E9431101E
:101CE0000E94220FB801CE010E94460CDF91CF91D5
:101CF0001F910F910895CF93DF93EC019881898113
:101D00002B813C81232B31F08F3F31F481E09F3FC9
:101D100019F403C081E001C080E080FD19C0CE014C
:101D20000E94930981110CC00E948F14882381F0B6
:101D30008A81882369F082E0DF91CF910C9470153D
:101D4000CE010E94630ECE01DF91CF910C946E09FB
:101D5000DF91CF910895882321F00E94E1140C9423
:101D600020150895882321F00E94E7140C94201573
:101D7000089580E090E00E94022580E090E00E94BB
:101D800018250E94EE140E94FE140E9420150E9445
:101D90007A210C94C71F80910001909101010E944B
:101DA000FC250C94B90E0E94DE140C94CB0EE92F86
:101DB000E295EF704E2F50E0FA013297EE30F105C8
:101DC000B0F4EA59FF4F0C949E2E803F91F018F426
:101DD000883E68F40EC0843F51F40BC0883E48F042
:101DE000813F29F406C093FB882780F9089580E09D
:101DF000089581E00895FC01808191810E94CB10BB
:101E00000E94D70E0895CF93DF9300D000D01F9289
:101E1000CDB7DEB70F900F900F900F900F90DF911E
:101E2000CF910895CF93DF9300D000D000D0CDB7ED
:101E3000DEB726960FB6F894DEBF0FBECDBFDF919A
:101E4000CF910895089508950C94230F0C94240FB6
:101E50000E94260F60931702709318028093190254
:101E600090931A020C94B90E0C94280F0F931F93A1
:101E700000911702109118022091190230911A0254
:101E8000602B712B822B932B1F910F910C94280F99
:101E90000F931F93009117021091180220911902BD
:101EA00030911A0260237123822393231F910F9193
:101EB0000C94280F0F931F93009117021091180292
:101EC0002091190230911A026027712782279327E7
:101ED0001F910F910C94280F0C94230F0E946C0FEC
:101EE000609313027093140280931502909316026C
:101EF0000C94B90E60E070E0CB010C946E0F0F9360
:101F00001F9341E050E060E070E08A019B0104C053
:101F1000000F111F221F331F8A95D2F7C901B80184
:101F20001F910F910C946E0F0F931F9341E050E09F
:101F300060E070E004C0440F551F661F771F8A954C
:101F4000D2F78091130290911402A0911502B091E2
:101F500016028A019B01082B192B2A2B3B2BC90146
:101F6000B8011F910F910C946E0F0F931F9341E0D6
:101F700050E060E070E004C0440F551F661F771FFB
:101F80008A95D2F74095509560957095809113028F
:101F900090911402A0911502B09116028A019B0142
:101FA000082319232A233B23C901B8011F910F914C
:101FB0000C946E0F0F931F9341E050E060E070E0CF
:101FC00004C0440F551F661F771F8A95D2F7809172
:101FD000130290911402A0911502B09116028A0189
:101FE0009B01082719272A273B27C901B8011F9100
:101FF0000F910C946E0F0F931F9300911302109189
:1020000014022091150230911602602B712B822B45
:10201000932B1F910F910C946E0F0F931F930091B0
:1020200013021091140220911502309116026023C0
:102030007123822393231F910F910C946E0F0F93A2
:102040001F930091130210911402209115023091F8
:10205000160260277127822793271F910F910C94F6
:102060006E0F08952BE0929F800D1124E82FE695C6
:10207000E695E695877051E001C0550F8A95EAF71D
:1020800085E0E89FF0011124EB50FE4F20E030E0A6
:1020900070E04081CB01022E02C0969587950A948C
:1020A000E2F78170819584278523842781932F5FB0
:1020B0003F4F2530310569F708952BE0929F800D41
:1020C0001124682F669566956695982F977085E020
:1020D000689FB001112440E050E080E0FB01E40F74
:1020E000F51FEB50FE4F208130E0092E02C03695DF
:1020F00027950A94E2F721703327042E01C0220F9E
:102100000A94EAF7822B4F5F5F4F4530510531F754
:102110000895BF92CF92DF92EF92FF920F931F9399
:10212000CF93DF938C01C0901302D0901402E09003
:102130001502F09016028091170290911802A0915A
:102140001902B0911A02C82AD92AEA2AFB2ACFE139
:10215000D0E0D701C6010C2E04C0B695A79597957F
:1021600087950A94D2F780FD04C0219790F7B12C8F
:1021700007C0BC2EB8018C2F0E9494180197A9F3B8
:102180008B2DDF91CF911F910F91FF90EF90DF90FA
:10219000CF90BF900895CF93DF93EC010E948910F8
:1021A000BE010E949418DF91CF9108951F93CF93A1
:1021B000DF93EB019091F401992321F0CB010E9470
:1021C000CB1013C0882349F0CB010E948910182F2F
:1021D000682FCE010E94321004C0CB010E945D1016
:1021E000182FBE01812F0E949418DF91CF911F916B
:1021F0000895EF92FF920F931F93CF93DF938C017B
:10220000892B09F46CC0F12CEE24E394E8012196AB
:10221000F8018491843740F4843008F051C0813053
:1022200081F0823019F15BC0853709F444C0A8F110
:102230009CE7980F903708F052C08F770E94B00B40
:1022400041C00E5F1F4FFE01849190E2980F9830BD
:1022500050F48770FE2D01C0FF0F8A95EAF78F2F8B
:102260000E94F11414C00E94010B2DC00E5F1F4F7D
:10227000FE01849190E2980F983060F48770FE2DF3
:1022800001C0FF0F8A95EAF78F2F0E94F7140E9472
:10229000201519C00E94B00B16C00E5F1F4FFE0123
:1022A000C491CC2381F08FE99FE00197F1F700C042
:1022B0000000C150F6CF0E5F1F4FFE01F49003C027
:1022C0000E94010B8E018F2D882309F49FCFEFE927
:1022D000FFE03197F1F700C000008150F5CFDF91AA
:1022E000CF911F910F91FF90EF9008951F93CF937F
:1022F000DF93C0911B0216E080911C02C81799F071
:10230000D0E01C9FF0011D9FF00D1124E35EFD4FF6
:102310004081518162817381848195810E94120F75
:102320002196C770E9CFDF91CF911F910895409119
:102330004D0250914E0260914F0270915002809177
:102340005102909152020C94120F0F931F93CF934E
:10235000DF938091520282958F7009F05DC0809169
:102360004F02882309F458C080911B0210911C026F
:1023700060914D0270914E02C0915002D091510275
:1023800091E06F3F09F090E0292F06E0811709F4F2
:1023900043C0209721F07F3F21F030E003C031E0BF
:1023A00001C0322F90E030FD34C0089FF001099F3A
:1023B000F00D1124DF01A35EBD4F11963C911197E2
:1023C000371327C03C91361324C012963C911297C4
:1023D00031111FC013964D915C9114974C1B5D0BEE
:1023E000483C5105B0F4809152028F708061809317
:1023F0005202EE5DFD4F80818F70806180838DE49D
:1024000092E00E947B0EDF91CF911F910F910C946F
:10241000761101968770BACFDF91CF911F910F91FE
:1024200008959F92AF92BF92CF92DF92EF92FF9268
:102430000F931F93CF93DF93CDB7DEB761970FB69E
:10244000F894DEBF0FBECDBF8C0185E0F801DE0140
:102450001D9601900D928A95E1F7F801E280909126
:102460004D0260914E02209150023091510221158F
:10247000310531F06F3F31F481E09F3F19F403C023
:1024800081E001C080E0F82FF1709F2E80FD3FC1F8
:10249000F80140815181A380B4808DE4C82E82E090
:1024A000D82EF0904F02F501E21BF30BFF2009F448
:1024B000D9C080915202E83CF10508F095C0282F60
:1024C000207F09F052C0561313C0491311C0FE2CCF
:1024D000E1100EC08F708061809352020E949711AC
:1024E000C6010E947B0E80915202F80185834CC187
:1024F000AB2831F05F3F31F481E04F3F19F403C066
:1025000081E001C080E080FD03C081E08E2502C033
:1025100080E090E0F82FF170FF2E80FF1CC08091CA
:102520001B0220911C0236E0821709F40BC190E0D7
:10253000389FF001399FF00D1124E35EFD4F61815A
:10254000561306C06081461303C06281E61203C0C1
:1025500001968770E9CFFE2CEE2009F415C1809119
:10256000520281608093520254C0561306C0491330
:1025700004C0E11002C0F80199C0C8010E94FB0E1E
:10258000882361F1EE2051F120915202822F829531
:102590008F7090E0029774F080914D0290914E02FE
:1025A00098878F831986BB86AA862C87CE010796CB
:1025B0000E947B0E86E0F801ADE4B2E001900D923E
:1025C0008A95E1F70E94A5110E9497110AC056173B
:1025D00011F1C8010E94FB0E81112CC0C8010E949C
:1025E0007B0EFF24F394D0C0282F207F81F77A2D13
:1025F000B98AA88A6E2D89890E94030F8DE492E022
:102600000E947B0E86E0F60111928A95E9F70E94FE
:102610009711F12CB9C04913DCCFE110DACFF801E2
:102620008583C8010E947B0E86E0F60111928A958F
:10263000E9F7AAC0EE2091F220915202822F8295F2
:102640008F7090E002970CF4B5CF80914D0290917D
:102650004E029A8389831B82BD82AC822E83CE0177
:102660000196A6CFE83CF10508F044C0FE2CEE2010
:1026700009F4B4CF561330C049132EC02091520232
:1026800020FD21C0822F82958F70482F50E0411588
:102690005105C9F0F80125834F30510541F08F5F96
:1026A000982F9295907F822F8F70892B8583C801F8
:1026B0000E947B0E86E0F801ADE4B2E001900D923D
:1026C0008A95E1F73CC086E0F801ADE4B2E0019004
:1026D0000D928A95E1F758C0C8010E94FB0E811146
:1026E00069CF80915202816080935202C8010E949A
:1026F0007B0E4AC07A2DB98AA88A6E2D89890E94DC
:10270000030F86E0F60111928A95E9F718C0EE20D2
:1027100009F464CFC8010E94FB0EF82E882309F447
:102720005DCF86E0F801ADE4B2E001900D928A95AC
:10273000E1F78DE492E00E94FB0A0E94A5110E943D
:10274000971122C04D875E878D859E850E94CB1094
:10275000292F22952F70223028F49F7039F0811193
:1027600005C00BC0243028F49F7049F4805E883087
:1027700020F0C8010E947B0E9F2CF92C05C0F801A7
:102780009581907F99F7F9CF8F2D61960FB6F894C8
:10279000DEBF0FBECDBFDF91CF911F910F91FF9094
:1027A000EF90DF90CF90BF90AF909F9008951F93D0
:1027B000CF93DF93CDB7DEB72C970FB6F894DEBF7B
:1027C0000FBECDBF4F83588769877A878B879C87D9
:1027D000CE0107960E9411128823D1F09F8188852F
:1027E0002A853B85232B31F08F3F31F481E09F3FD9
:1027F00019F403C081E001C080E080FD47C04F8133
:10280000588569857A858B859C850E94120F3EC00C
:1028100086E0FE013796DE01119601900D928A95B1
:10282000E1F7FF81E8856A857B856115710531F0E7
:10283000EF3F31F481E0FF3F19F403C081E001C0B4
:1028400080E080FD23C020911C0230E0C901019688
:102850008770992740911B0250E084179507F1F18A
:10286000F983EA837D836C8396E0929FD001939FE6
:10287000B00D1124A35EBD4FFE01319601900D9263
:102880009A95E1F780931C020E94761116E08091E0
:102890001B0290911C02891771F1189FC00111242D
:1028A000835E9D4F0E941112882329F1E0911B0243
:1028B0001E9FF0011124E35EFD4F40815181628132
:1028C0007381848195810E94120F80911B0290E098
:1028D00001968770992780931B02D9CF0E94D30E4F
:1028E00010921C0210921B02EDE4F2E086E0DF0180
:1028F0001D928A95E9F72C960FB6F894DEBF0FBEAD
:10290000CDBFDF91CF911F9108958091530285959E
:1029100085958595089580915302877008959091CB
:102920005302977081E009F480E00895CF9390916D
:10293000D40292FB222720F92817E1F0C82F892F13
:10294000C0FB82F98093D4028091D3029091D4028B
:102950000E94B1158091890280FF0CC01F92CF9315
:102960008DEB95E09F938F930E94B4080F900F908A
:102970000F900F90CF9108958091D40282FB882709
:1029800080F991E089270C94961481E00C949614B8
:1029900080E00C94961480917702089590917702CC
:1029A000892B8093770208958095909177028923EF
:1029B00080937702089580937702089510927702AA
:1029C000089590917602892B8093760208958095E0
:1029D0009091760289238093760208951092760270
:1029E000089590917502892B8093750208958095C2
:1029F0009091750289238093750208951092750253
:102A0000089580915402089508950C9404150C942F
:102A100005159091D40292FD08C090915402981728
:102A200021F0809354020C9407150895809154026C
:102A3000882329F01092540280E00C940715089521
:102A4000E0910001F0910101809177028083E09193
:102A50000001F0910101908180917602892B8083A1
:102A6000E0910001F0910101908180917502892B24
:102A7000808380915402882381F0E0910001F091DD
:102A800001019081892B8083809100019091010147
:102A90000E942E2581110E941615809100019091AF
:102AA00001010C949F240C9404159091D40292FD82
:102AB00010C098E0899F90011124262B2093530287
:102AC0000E94940F809153028595859585950C946D
:102AD00053150C94940F1092530280E00C945315EC
:102AE000209153028095822380935302982F9770F0
:102AF00041F430E0482F082E000C550B2417350701
:102B000021F49091D40292FF07C085958595859513
:102B10000E94B50F0C946B15089580E090E00E9420
:102B2000CD2E21E0893E9E4F09F020E0822F0895AE
:102B300082E090E00C94C52E83E090E00C94C52ECA
:102B4000CF9384E090E00E94C52EC82F82E290E0EF
:102B50000E94C52E2C2F30E0A901582BCA01CF911D
:102B60000895CF93C92F682F84E090E00E94D32E60
:102B70006C2F82E290E0CF910C94D32EAB01BC017C
:102B80008FE090E00C94E52EAB01BC0183E190E076
:102B90000C94E52E60E070E0CB010C94C41560E06D
:102BA00070E0CB010E94BE150C94CA1569EE7EEF51
:102BB00080E090E00E94F12E60E082E090E00E94D0
:102BC000D32E60E083E090E00E94D32E1092170293
:102BD000109218021092190210921A0260E084E01A
:102BE00090E00E94D32E60E082E290E00E94D32E1B
:102BF00060E085E090E00E94D32E60E086E090E007
:102C00000E94D32E6FEF87E090E00E94D32E40E029
:102C100050E0BA0188E090E00E94E52E60E08DE08F
:102C200090E00E94D32E40E050E0BA0188E190E0AD
:102C30000E94E52E60E087E190E00E94D32E40E004
:102C400050E0BA018CE190E00E94E52E60E070E077
:102C500080E290E00E94F12E40E050E0BA0188E16D
:102C600090E00E94E52E0C94CF150C94D615682F99
:102C70008EE090E00C94D32E0E94A32660938502F0
:102C800070938602809387029093880260938102FA
:102C9000709382028093830290938402089585B793
:102CA000806885BF85B7806885BF089581E00895F5
:102CB0000C94561608950C945A160C945A160C94AB
:102CC0005D160C945A160C9461160C945A160E94B8
:102CD0004F1682EC98E20E94F5260E9465160C942D
:102CE00063160E945B160C945A160E948E260E9450
:102CF000A51A0C945F16CF93C82F8091890282FF8A
:102D00001EC080FF04C089ED95E00E941B088091E1
:102D1000890280FF0CC01F92CF9384ED95E09F93B2
:102D20008F930E94B4080F900F900F900F90809196
:102D3000890280FF04C082ED95E00E941B088C2F61
:102D4000CF910C94A80A6F927F928F929F92AF922C
:102D5000BF92CF92DF92EF92FF920F931F93CF9388
:102D6000DF93CDB7DEB72A970FB6F894DEBF0FBE5C
:102D7000CDBF0E94C71A81110E943C1639E7832EED
:102D800032E0932E00E010E0C02E802F0E949519B3
:102D90005C01F401619071904F01682679266114FD
:102DA0007104B1F40F5F1F4F0430110569F78FEF05
:102DB00089838A831B820E9497268160782F9D8356
:102DC0008C8349815A816B818D810E94B10A3AC0FE
:102DD0008091890281FD0E949E19D12CEE24E394FA
:102DE000F12CC3018E219F21892B29F10E945816B5
:102DF0008823A9F0DE82CF82AE20BF2081E0AB28FD
:102E000009F480E088870E9497268160782F9A874E
:102E100089874E815F8168858A850E94B10A000F8B
:102E2000111FF801E758FD4F80819181E826F926AE
:102E3000F182E08207C0D394EE0CFF1CFBE0DF12AE
:102E4000D0CFB0CF0E9467200E949024909178024A
:102E50008917D1F00E949024809378022A960FB6A9
:102E6000F894DEBF0FBECDBFDF91CF911F910F91C0
:102E7000FF90EF90DF90CF90BF90AF909F908F909A
:102E80007F906F900C947B162A960FB6F894DEBF55
:102E90000FBECDBFDF91CF911F910F91FF90EF90AB
:102EA000DF90CF90BF90AF909F908F907F906F906A
:102EB000089580E090E0089508952CE2829FC0017B
:102EC0001124FC012BE0729FE00DF11D1124E60F8F
:102ED000F11DEE0FFF1FE658FE4F85919491089566
:102EE000880F991FFC01E451FA4F85919491089540
:102EF000CF93DF930E949918EC01811520E592078A
:102F000008F03FC0811540E4940708F0D2C0883E25
:102F1000910500F5803E910508F002C1883A9105BF
:102F200070F4853A910508F0A6C08130910509F446
:102F30009FC008F4F2C0049708F0F2C0EEC08F3BC7
:102F4000910508F4A1C0803C910508F4E6C0805CBE
:102F50009109A5C0811550E2950760F4C11581E083
:102F6000D80708F0DDC0CD3ED10508F4D6C0CE01AB
:102F70009065D7C0811520E3920708F093C09F7039
:102F80008EC0811545E5940708F046C0811554E5CB
:102F9000950708F0A6C0C11582E5D80718F5C11538
:102FA00021E5D20708F088C0CE01F4E09695879518
:102FB000FA95E1F7282F23703C2F337081E090E0E1
:102FC00002C0880F991F3A95E2F79C68922B2C2F2C
:102FD0002F702695269540E2249F90011124822B84
:102FE000932B9FC09E01237033279C2F9695969517
:102FF000C115D34508F065C041E050E002C0440F60
:10300000551F2A95E2F780E2989F90011124CA018A
:10301000822B932B9C6885C0811559E5950798F400
:10302000C11588E5D80708F061C0C11526E5D207AB
:1030300008F073C08C2F0E942D198F7190E0982F8B
:10304000882790626EC081154AE5940708F453C042
:1030500090568115904208F060C08D2F8F710E94AC
:103060002D199E01332730628F71A901582B53C04F
:1030700081E090E056C0855AC82FD0E0CC58DE4F92
:10308000888190E090644DC0885AC82FD0E0CC0F62
:10309000DD1FCA5BDE4F88819981946442C00E9423
:1030A00070173FC09927D3FF02C0986C3AC0906C4C
:1030B00038C09F70906A35C09C2F8827816F906AB6
:1030C00030C041E050E002C0440F551F2A95E2F79E
:1030D00080E2989F90011124CA01822B932B9A6859
:1030E00020C0982F8827846F906A1BC09C2F882748
:1030F000806F906A16C08F700E942D199E0194E017
:10310000369527959A95E1F72F7030E0322F2227D8
:103110003069A901482BCA0104C080E090E001C0D9
:10312000CE01DF91CF9108950E945D170E9478171C
:1031300008958238910569F1B0F48133910509F45D
:103140006DC048F48932910509F463C08A32910553
:1031500009F469C008958533910509F455C0893390
:103160009105B9F00895833E910569F138F4803EE8
:103170009105B1F0823E910509F10895863E9105D1
:10318000A9F1873E9105B9F1843E910509F064C02B
:1031900023C02091D30220FD4FC021FD4DC00895D2
:1031A0008091D30280FD44C08091D40280FF44C04E
:1031B0008091D30284FD42C083EE4DC08091D30242
:1031C00082FF38C0F5CF8091D30282FD33C0809159
:1031D000D40280FD31C0ECCF8091D40281FF32C097
:1031E0008091D30284FD2AC087EE35C08091D3023E
:1031F00083FF26C0F5CF8091D30283FD21C080914B
:10320000D40281FD1FC0ECCF8091D30285FD1CC08C
:103210001DC08091D30285FD19C016C08091D302D4
:1032200086FD16C017C08091D30286FD13C010C062
:1032300089E311C082EE0FC080EE0DC080E00BC0AC
:1032400086EE09C084EE07C089E205C085E303C0AD
:103250008AE201C081E390E008959091D30292FF49
:103260000DC0282F2871283019F4877F846006C08C
:10327000282F2471243011F48B7F886093FF0DC0B8
:10328000282F2871283119F4877E846106C0282FE1
:103290002471243111F48B7E88612091D40220FFA7
:1032A0000DC0382F3871383019F4877F816006C01F
:1032B000382F3171313011F48E7F886021FF0DC0BD
:1032C000282F2871283119F4877E816106C0282FA4
:1032D0002171213111F48E7E886194FD877E0895DD
:1032E00008950E948D15811102C00E9435160E941A
:1032F0009815809389020E94A0159093D402809320
:10330000D3020E9470190E949C15682F70E080E023
:1033100090E00E94340F609113027091140280912A
:103320001502909116020C946C0FE82FF0E0EE0F4E
:10333000FF1FE352FD4F808191810895CF92DF926C
:10334000EF92FF920F931F93CF93DF938CEF95E053
:103350000E941B088DEDE82E82E0F82EC0E0D0E040
:1033600097EFC92E95E0D92E0EEE15E0DF93CF939F
:10337000DF92CF920E94B40884EF95E00E941B0870
:10338000F701819191917F010E948D0A9F938F9304
:103390001F930F930E94B4088CEE95E00E941B08C7
:1033A00021968DB79EB708960FB6F8949EBF0FBEB4
:1033B0008DBFC430D105D1F6DF91CF911F910F9110
:1033C000FF90EF90DF90CF90089580EA8A95F1F713
:1033D000089500C008950C94E51908950C94ED1912
:1033E0000C94EE190C94ED190C94F219F894E82F42
:1033F000E295EF70F0E031A1282F2F7081E090E08E
:1034000001C0880F2A95EAF7982F9095932391A3EE
:1034100092A1892B82A3789408950F931F93CF9341
:10342000DF93C2E8D1E089918F3F11F00E94F61935
:1034300081E0C638D807B9F7C7E7D1E002E811E064
:1034400089918F3F11F00E94F6190C171D07C1F7E3
:10345000DF91CF911F910F910895AF92BF92CF92BC
:10346000DF92EF92FF920F931F93CF93DF938C0124
:10347000C62FD0E0CE018E579E4F6C01DC019C918F
:103480009F3F09F457C0B62EF894E92FE295EF70EC
:10349000F0E081A19F7021E030E001C0220F9A95F9
:1034A000EAF7822B81A382A12095282322A3789476
:1034B0000E94E919E7E7F1E020E030E0E12CF12C8F
:1034C00041E050E081918F3FC1F0A82FA295AF70ED
:1034D000B0E090966C9170E08F70DB0102C0B59502
:1034E000A7958A95E2F7A0FD08C0CA01022E02C086
:1034F000880F991F0A94E2F702C080E090E0E82A62
:10350000F92A2F5F3F4F2B303105E1F6F60180811C
:103510008F3F11F00E94F61961E0E114F10409F403
:1035200060E08B2D0E94EB19CC0FDD1FC00FD11F67
:10353000F982E882DF91CF911F910F91FF90EF9078
:10354000DF90CF90BF90AF9008950E940D1AA5ED27
:10355000B2E011961C921E92EDEDF2E01182108203
:1035600013961C921E9212971382128215961C9229
:103570001E9214971582148217961C921E9216970B
:103580001782168284E00E94121B0C947909FF9224
:103590000F931F93CF93DF93CDB7DEB728970FB666
:1035A000F894DEBF0FBECDBF8E010F5F1F4F88E0C6
:1035B000F80111928A95E9F7F12C6F2DC8010E944C
:1035C0002D1AF394F4E0FF12F8CF48E050E0B80170
:1035D00085ED92E00E94B82EFF24F394009709F441
:1035E000F12C892B41F088E0F801A5EDB2E00190C3
:1035F0000D928A95E1F72F2D44E06DED72E085ED97
:1036000092E00E94131B0E9481098F2D28960FB60D
:10361000F894DEBF0FBECDBFDF91CF911F910F9108
:10362000FF9008950895FF920F931F93CF93DF9318
:10363000F82E092F162FD72FC42F222349F081E00F
:1036400080938C020E94972690938B0280938A022B
:1036500080918C028823D9F080918A0290918B020C
:103660000E94AF26059798F0EF2DF02FA12FBD2FC8
:1036700080E090E04C2F50E08417950734F42191BE
:1036800031912D933D930196F7CF10928C02DF91EB
:10369000CF911F910F91FF9008950E940E260E94D6
:1036A00025290E943E290E9454290E947116FBCFB1
:1036B000809102011F928F93809103011F928F933B
:1036C000809106011F928F93809107011F928F9323
:1036D000809108011F928F93809109011F928F930F
:1036E00083E196E09F938F930E94B4088DB79EB7B5
:1036F0000E960FB6F8949EBF0FBE8DBF0895883208
:1037000020F58E3108F068C08B3091F1C0F487301D
:1037100009F0BEC08EE18093090182E38093080125
:103720008AE08093070184E18093060188E080931A
:10373000030188E28093020185E797E0C6C08331E8
:1037400009F443C0843169F1A3C08F3409F49EC0E9
:1037500028F4893231F1883359F09AC0813531F03B
:1037600008F4D4C0823509F4A7C092C08FEFA5C079
:1037700087E997E00E941B080E94581B1F9281E076
:103780008F931F9285E08F9380E996E09F938F93AC
:103790000E94B4080F900F900F900F900F900F9011
:1037A00096C084E997E00E941B08809191028823CB
:1037B00009F4AAC0109291021092900210928F0206
:1037C00010928E0210928D02B1C086E897E00E949E
:1037D0001B080E94581B7BC08D518093910283303F
:1037E00031F170F48130D1F0823009F03FC088E0CF
:1037F00091E09093900280938F0283E991E01FC043
:10380000853059F108F1863089F582E091E0909396
:10381000900280938F028EEC91E011C089E091E0DC
:103820009093900280938F028AE891E008C087E02D
:1038300091E09093900280938F028FE991E09093B2
:103840008E0280938D0218C086E091E090939002E2
:1038500080938F028CEA91E0F2CF83E091E0909325
:10386000900280938F028BEB91E0E9CF109291024E
:1038700083E897E00E941B0880919102882309F455
:1038800055C01F928F938FE797E00DC08AE015C057
:1038900082E797E01AC097FF47C0108280811F928D
:1038A0008F938CE697E09F938F930E94B4080F90BC
:1038B0000F900F900F900BC081E0E0918F02F0917C
:1038C0009002309729F589E697E00E941B08209125
:1038D0009102222359F180918D0290918E020097DE
:1038E00011F486E891E09F938F931F922F9380E6C7
:1038F00097E09F938F930E94B4080F900F900F90C2
:103900000F900F900F9016C080E0089586EFD5CFEE
:103910002081082E000C990B820F911D8F3F91057D
:1039200009F00CF4B8CF8FEF8083B8CF8CE597E027
:103930000E941B0881E00895CF93C82F1F928F9398
:103940008DEA97E09F938F930E94B40881E090E006
:10395000A0E0B0E0BC01CD0104C0660F771F881F56
:10396000991FCA95D2F70E94340F0F900F900F90B5
:103970000F90CF910C94D30EDF92EF92FF920F93A2
:103980001F93CF93DF93482F50E0FA013597EF3321
:10399000F10508F03FC1EC58FF4F0C949E2E0E9499
:1039A0009C151F928F938FEF9BE09F938F930E94A4
:1039B000B4080E94981583FB992790F91F929F9352
:1039C00082FB992790F91F929F9381FB992790F989
:1039D0001F929F93982F91701F929F931F928F9386
:1039E00086EB9BE09F938F930E94B4080E94A015E2
:1039F00087FB222720F91F922F9386FB222720F98D
:103A00001F922F9385FB222720F91F922F9384FB6F
:103A1000222720F91F922F9383FB222720F91F9240
:103A20002F9382FB222720F91F922F9391FB2227AD
:103A300020F91F922F93292F21701F922F9381FB22
:103A4000222720F91F922F93282F21701F922F9346
:103A50009F938F9381ED9AE09F938F930E94B40878
:103A60008DB79EB788960FB6F8949EBF0FBE8DBFD8
:103A700006C08FEB9CE00E941B080E943516C1E037
:103A8000CEC08FE199E074C080918902817F8E7FE2
:103A90008093890288EF98E00E941B088BEB9CE0E2
:103AA0000E941B0881E080939202E9CF8FE99CE09D
:103AB0000E941B080E948409E2CF80918902C82FCE
:103AC000C095C170C0FB80F980938902CC2319F0A6
:103AD00083E99CE091C086E89CE00E941B088091ED
:103AE0008902897F877F80938902C9CF909189025B
:103AF00091FBCC27C0F981E0C827892FC0FB81F951
:103B000080938902CC2319F089E79CE027C08BE6DB
:103B10009CE02EC09091890292FBCC27C0F981E0F5
:103B2000C827892FC0FB82F980938902CC2319F022
:103B30008CE59CE013C08CE49CE01AC09091890253
:103B400093FBCC27C0F981E0C827892FC0FB83F9FC
:103B500080938902CC2351F080E49CE00E941B08F2
:103B60008091890281608093890259C083E39CE03F
:103B70000E941B0884CF86E398E0FACF0E94A32618
:103B8000062FF72EE82ED92EC091D302C7FBCC27E3
:103B9000C0F91091D202D09114010E949024DF92BA
:103BA000EF92FF920F931F92CF931F921F931F923A
:103BB000DF931F928F9382EB97E09F938F930E94E6
:103BC000B4088DB79EB70E960FB6F8949EBF0FBE81
:103BD0008DBF55CF0E94D30E9091D30297FBCC2777
:103BE000C0F981E0C827892FC0FB87F98093D302F1
:103BF000CC2329F089E29CE00E941B0810C08EE1D2
:103C00009CE0B6CF895303C08D5101C080E00E9473
:103C10009C1C35CF8CE19CE00E941B08C0E08C2FDF
:103C2000DF91CF911F910F91FF90EF90DF9008955A
:103C300080E008950C94181ECF93C82F80919202B3
:103C4000813071F040F0823009F045C08C2F0E9425
:103C50007F1B81E046C00E94CB148232F1F504C084
:103C60000E94CB14823261F48C2F0E941A1E8111A3
:103C700004C08C2F0E94BC1C2CC081E090E029C0A5
:103C80008C2F0E94181E811123C0C431C9F058F432
:103C9000CB3069F0C031B9F482E08093920288E3BE
:103CA0000E947F1B15C0C93259F0C83361F488EFF8
:103CB00098E00E941B0889EA97E00E941B0808C050
:103CC000109292020CC087EA97E00E941B0807C07E
:103CD00081E0817006C01092920280E002C080E014
:103CE000F8CFCF9108958091990280FF0BC0609129
:103CF000070185E0689FB00111247595679575955A
:103D000067952BC081FF09C06091070185E0689F1E
:103D1000B00111247595679520C082FF07C060919E
:103D2000070185E0689FB001112417C090919802A7
:103D30009923D1F060910601961788F72091070129
:103D400085E0289F90011124929FA001939F500D20
:103D5000112470E0CA010E948A2E6038710540F477
:103D60006115710519F406C065E070E0862F0895AD
:103D70008FE7089581E008958091990280FF08C03F
:103D80006091030170E0759567957595679521C001
:103D900081FF06C06091030170E07595679519C0B9
:103DA00082FF04C06091030170E010C090919702FF
:103DB000992399F0609102019617A0F78091030171
:103DC000899FC001112470E00E948A2E603871051D
:103DD00040F46115710519F406C061E070E0862FAA
:103DE00008958FE7089581E008958D3E21F40E94A3
:103DF000731E819504C08E3E29F40E94731E809329
:103E00009D0208958F3E21F40E94731E819504C087
:103E1000803F29F40E94731E80939C020895893F7D
:103E200019F40E94BC1E05C08A3F31F40E94BC1EDA
:103E3000819580939E0208958B3F21F40E94BC1EC1
:103E4000819504C08C3F29F40E94BC1E80939F0280
:103E500008959FE0980F983078F421E030E0A901B0
:103E600002C0440F551F9A95E2F7CA0190919B0238
:103E7000892B80939B0208958D3F21F480919902B4
:103E800081600BC08E3F21F480919902826005C051
:103E90008F3F29F48091990284608093990208955C
:103EA0008D3E39F490919D0297FF35C010929D028E
:103EB00059C08E3E29F490919D021916BCF32BC077
:103EC00090919C028F3E29F497FF25C010929C028E
:103ED00049C0803F19F41916CCF31DC090919E0281
:103EE000893F29F41916BCF410929E023BC08A3F08
:103EF00019F497FF10C0F8CF8B3F39F490919F02CF
:103F000097FF09C010929F022DC08C3F21F4909121
:103F10009F021916BCF39FE0980F983080F421E0BF
:103F200030E0A90102C0440F551F9A95E2F7CA017B
:103F3000809590919B02892380939B0213C08D3FB3
:103F400021F4809199028E7F0BC08E3F21F48091E5
:103F500099028D7F05C08F3F29F4809199028B7F54
:103F60008093990280919C02811106C080919D02EC
:103F7000811102C01092980280919E02811106C0A8
:103F800080919F02811102C0109297020895809142
:103F9000890283FF7EC087EF9CE00E941B0880910E
:103FA0009B021F928F9382EF9CE09F938F930E94BE
:103FB000B40880EF9CE00E941B0880919C02282F8F
:103FC000082E000C330B3F938F938DEE9CE09F9354
:103FD0008F930E94B4088BEE9CE00E941B08809196
:103FE0009D02282F082E000C330B3F938F9388EEF1
:103FF0009CE09F938F930E94B40886EE9CE00E9401
:104000001B0880919E02282F082E000C330B3F9333
:104010008F9383EE9CE09F938F930E94B40881EE70
:104020009CE00E941B0880919F02282F082E000C04
:10403000330B3F938F938EED9CE09F938F930E9461
:10404000B4088BED9CE00E941B08809198021F929F
:104050008F9388ED9CE09F938F930E94B40886ED28
:104060009CE00E941B08809199021F928F9383ED20
:104070009CE09F938F930E94B40880ED9CE00E9487
:104080001B088DB79EB74C960FB6F8949EBF0FBE17
:104090008DBF0E94972620919C02211104C020917F
:1040A0009D02222321F09093960280939502209105
:1040B0009E02211104C020919F02222321F090939F
:1040C0009402809393028AE992E00C94F424EF9294
:1040D000FF920F931F93CF93DF9300D000D000D0B7
:1040E000CDB7DEB786E0EAE9F2E0DE011196019095
:1040F0000D928A95E1F7E0909C02F0909D0200916C
:104100009E0210919F0210929C0210929D021092AA
:104110009E0210929F02E11003C0FF2009F45DC0CF
:1041200080919502909196020E94AF26AC019091E9
:104130009802992339F02091080130E024173507BF
:1041400058F04BC0209109018AE0289F900111246A
:104150002417350718F041C09F3F19F09F5F9093D7
:104160009802EE2061F00E94731E1E1414F09FEF5F
:1041700001C091E0989F902D112490939C02FF2004
:1041800061F00E94731E1F1414F09FEF01C091E0B4
:10419000989F902D112490939D0230919C0233237F
:1041A000E1F020919D022223C1F045EB3403C001D0
:1041B0001124992319F090939C0203C081E080930D
:1041C0009C0235EB2303C0011124992319F090932D
:1041D0009D0203C081E080939D02011103C0112361
:1041E00009F45DC080919302909194020E94AF26E1
:1041F000AC0190919702992339F02091040130E0AD
:104200002417350758F04BC0209105018AE0289FFC
:10421000900111242417350718F041C09F3F19F071
:104220009F5F90939702002361F00E94BC1E1016BE
:1042300014F09FEF01C091E0989F902D112490936E
:104240009E02112361F00E94BC1E111614F09FEF14
:1042500001C091E0989F902D112490939F0230917E
:104260009E023323E1F020919F022223C1F045EB0F
:104270003403C0011124992319F090939E0203C0C6
:1042800081E080939E0235EB2303C0011124992322
:1042900019F090939F0203C081E080939F02809168
:1042A0009C0281110BC080919D02811107C08091F9
:1042B0009E02811103C080919F0281110E94C71F3D
:1042C000EB82FC820D831E8386E0FE013196AAE913
:1042D000B2E001900D928A95E1F726960FB6F89418
:1042E000DEBF0FBECDBFDF91CF911F910F91FF9029
:1042F000EF900895EAE9F2E086E0DF011D928A95E9
:10430000E9F710929802109297021092990208957C
:10431000CF93DF9397FF0DC0FB012281222349F049
:10432000EC010E94DC21CE019F770E9433220E9483
:10433000152281E0DF91CF9108958CE090E00E94FA
:10434000C52E90E0A0E0B0E08093E5029093E602F5
:10435000A093E702B093E8028091890280FF0EC02B
:104360008091E5021F928F9389E39DE09F938F9345
:104370000E94B4080F900F900F900F9008956091D5
:10438000E5028CE090E00C94D32E8093E5020E942D
:10439000BF218091890280FF0EC08091E5021F92AB
:1043A0008F938AE19DE09F938F930E94B4080F90B2
:1043B0000F900F900F9008950E949C248695817015
:1043C0008093EA029091E502913029F4882319F054
:1043D00089E30E942F0C0E94CB148093E9020E9473
:1043E000DE148091E502813071F048F0823081F076
:1043F0008430A1F486EE0E942F0C88E10DC082EE7D
:104400000E94010B0BC088E193E00E941D0906C0C9
:1044100082EE0E94010B87E50E942F0C8FE39CE93E
:104420000197F1F700C0000008958091E502813006
:1044300039F078F0823069F0843089F488E20DC078
:104440008CE20E942F0C8091EA02882341F089E3DC
:1044500004C082EE0E94B00B02C00E942F0C80911B
:10446000E9020C94DB140F931F93CF93DF938C011D
:10447000CCE0D0E0C8010C2E02C0969587950A9436
:10448000E2F78F700E94710A2497CC3F8FEFD80714
:1044900089F7DF91CF911F910F9108950F931F938B
:1044A000CF93DF93EC018B01FB018281882351F0D4
:1044B0000E94CB14CE01825E9C458530910510F49C
:1044C0000E94C521B801CE01DF91CF911F910F91BC
:1044D0000C9488210F931F93CF93DF93C42FD22F77
:1044E000FC0182818823C9F04093A2020E94972692
:1044F0009093A1028093A00280E28C0F883008F094
:1045000057C0C77081E001C0880FCA95EAF7DF91F4
:10451000CF911F910F910C94380C8091A2024813F7
:1045200030C08091A0029091A1020E94AF26883CE9
:10453000910538F510E21D0FCD17B9F080E28C0F10
:10454000883040F4C77081E001C0880FCA95EAF74F
:104550000E943F0C183028F581E09D2F977001C014
:10456000880F9A95EAF70E94380C802F0E942F0C32
:104570001830F0F4D77081E001C0880FDA95EAF7BF
:104580000AC080E28C0F883098F4C77081E001C0C7
:10459000880FCA95EAF7DF91CF911F910F910C9484
:1045A0003F0C802FDF91CF911F910F910C942F0C16
:1045B000DF91CF911F910F9108950F939C01CB0133
:1045C000243F4CE5340731F188F4293DFCE53F07F1
:1045D000D9F02A3D4CE5340779F1283D3C45A9F551
:1045E00006E221EE41EE68ED7CE52BC0263FFCE5BE
:1045F0003F07E1F0A8F0273F3C4539F507E225EEFB
:1046000046EE67EF7CE51DC007E225EE45EE69ED5D
:104610007CE517C006E221EE40EE64EF7CE511C0B8
:1046200007E225EE44EE65EF7CE50BC006E221EEE5
:1046300042EE66EF7CE505C008E221E045EE6AED5A
:104640007CE50E946A2280E008C0FC018281882308
:1046500019F01092A20201C081E00F910895CF934A
:10466000DF93EC01FB018281882309F41FC1C23072
:10467000FCE5DF0708F41BC1C6319CE5D90738F01B
:104680009E012B5F3C452930310508F010C10E9486
:10469000A0159093D4028093D302C031ECE5DE07DD
:1046A00009F4C3C008F041C0C8308CE5D80709F44C
:1046B0009AC0F0F4C430ECE5DE0709F487C068F472
:1046C000C2308CE5D80709F477C0C330DC4509F067
:1046D000E3C08091D302826076C0C630ECE5DE078D
:1046E00009F46EC008F07BC08091D30288606BC073
:1046F000CC308CE5D80709F485C068F4CA30ECE505
:10470000DE0709F474C008F079C00E94D30E8091CE
:10471000D302806858C0CE308CE5D80709F476C043
:1047200008F07FC08091D3028BC0CC3FECE5DE0760
:1047300009F44FC018F5C3318CE5D80709F47DC0E2
:1047400078F4C131ECE5DE0709F473C0C231DC4511
:1047500009F0A2C00E94D30E8091D3028F7733C09C
:10476000C5318CE5D80709F472C008F486C0CB3F88
:10477000DC4509F091C08091D4023EC0C115FDE531
:10478000DF0709F45FC058F4CE3F9CE5D90709F470
:1047900044C008F43FC08091D40282602DC0C23072
:1047A000FDE5DF0709F475C008F45DC0C330DD45E1
:1047B00009F072C080E06EC08091D302816003C0B6
:1047C0008091D30280618093D30266C08091D3022E
:1047D00011C08091D40282608093D4025DC0809128
:1047E000D3028062F0CF8091D3028064ECCF8091BD
:1047F000D30288608460E7CF8160EECF8091D302DE
:104800008E7FE1CF8091D3028D7FDDCF8091D30267
:10481000877FD9CF8091D40218C08091D4028D7F38
:10482000DBCF8091D3028F7ECECF8091D3028F7D5C
:10483000CACF8091D3028F7BC6CF8091D302877F6E
:104840008B7FC1CF8091D4028D7F8E7FC5CF809129
:10485000D30282FB222720F991E0922790FB82F974
:1048600090FB83F9B0CF8091D402982F90959170EE
:104870008E7F892B90FB81F9AFCF0E94D30E809160
:10488000D30287FB222720F991E0922790FB87F93A
:104890009ACF81E00E9437168091D3029091D40282
:1048A0000E94B1150E94D30E80E001C081E0DF912B
:1048B000CF910895CF93DF9386319C4541F5EB016D
:1048C0000E94CB14982F8A81209100013091010120
:1048D000882379F09A7A81E009F480E08093A3023A
:1048E000911102C069E201C065E3C9010E94E62599
:1048F0000AC08091A302811102C069E201C065E390
:10490000C9010E94F1250E94201580E001C081E0CC
:10491000DF91CF9108959093A9028093A802089502
:10492000E091A802F091A902309721F00190F08166
:10493000E02D099480E008950E9490240895EF925C
:10494000FF921F93CF93DF93FC01A091A802B09137
:10495000A902109709F442C080911401882341F004
:104960008091D30287FF04C08081818385E08083AA
:10497000EF011296ED91FC911397CE01099580916C
:10498000890282FF2BC080FF04C081E69DE00E9467
:104990001B0818E08BE5E82E8DE0F82E8091890247
:1049A00080FF0BC088811F928F93FF92EF920E942D
:1049B000B4080F900F900F900F9011502196111185
:1049C000EDCF8091890280FF09C089E59DE0DF91EC
:1049D000CF911F91FF90EF900C941B08DF91CF9126
:1049E0001F91FF90EF900895E091A802F091A90225
:1049F000309739F022E0DC012C930480F581E02D22
:104A0000099408952091A6023091A702281739072A
:104A100071F09093A7028093A602E091A802F09112
:104A2000A902309721F00680F781E02D09940895BE
:104A30002091A4023091A5022817390771F09093B4
:104A4000A5028093A402E091A802F091A9023097F8
:104A500021F00084F185E02D09940895FC0132963F
:104A600080911401882331F08091D30287FF02C026
:104A70009EE101C096E080E0915028F02191222330
:104A8000D9F38F5FF9CF0895662351F12091140176
:104A90002223E9F02091D30227FF19C0462F469523
:104AA000469546954E31E0F4677021E030E002C053
:104AB000220F331F6A95E2F7FC01E40FF11D82819A
:104AC00090E02823392381E0232B69F409C0FC01FD
:104AD000329608962191621729F0E817F907D1F765
:104AE00080E0089581E008959C01FC0132969FEFDB
:104AF00080E04191461789F09F3F19F4411101C0B0
:104B0000982F8F5F8630A9F79F3F39F0F901E90FA1
:104B1000F11D97FDFA956283089508959C012A5F1F
:104B20003F4FFC014281461301C012820196821759
:104B30009307B9F70895262F2695269526952E31A9
:104B400070F4FC01E20FF11D677021E030E001C05C
:104B5000220F6A95EAF78281282B2283089580919B
:104B6000890280FF0CC01F926F9381E99DE09F93A3
:104B70008F930E94B4080F900F900F900F9008959C
:104B8000262F2695269526952E3178F4FC01E20FE6
:104B9000F11D677021E030E001C0220F6A95EAF74D
:104BA000209582812823228308958091890280FFA5
:104BB0000CC01F926F9383E79DE09F938F930E9499
:104BC000B4080F900F900F900F900895209114014A
:104BD000222329F02091D30227FD0C949B250C94CD
:104BE000742520911401222329F02091D30227FD5E
:104BF0000C94C0250C948E2520911401FC01329652
:104C0000222331F08091D30287FF02C08EE101C0E0
:104C100086E0DF011D928A95E9F7089508950895C9
:104C20000C940F260C940F26CF930E9412260E94FC
:104C3000C71A0E941026C0E08C2F0E949519892B5C
:104C400029F4CF5FC430C1F780E001C081E0CF918B
:104C500008950C940F260C9429268091F302843039
:104C600049F10E942B2680E00E94A80A1092AA0215
:104C700020E488E190E00FB6F894A8958093600056
:104C80000FBE2093600083B7817F846083BF83B7AA
:104C9000816083BF7894889583B78E7F83BF0FB67A
:104CA000F894A895809160008861809360001092CC
:104CB00060000FBE08950C940F260E94D30E0E9430
:104CC00090240E94A80A0C945B261F920F920FB6A4
:104CD0000F9211248F939F93AF93BF938091AA0259
:104CE000811113C08091EB029091EC02A091ED0232
:104CF000B091EE024196A11DB11D8093EB029093FD
:104D0000EC02A093ED02B093EE02BF91AF919F91A0
:104D10008F910F900FBE0F901F90189582E084BD69
:104D200093E095BD9AEF97BD80936E0008952FB7DD
:104D3000F8948091EB029091EC02A091ED02B09179
:104D4000EE022FBF08952FB7F8946091EB02709197
:104D5000EC028091ED029091EE022FBF08959C012C
:104D60004FB7F8948091EB029091EC02A091ED0284
:104D7000B091EE024FBF821B930B089578941F925F
:104D80000F920FB60F9211248F939F93AF93BF93FF
:104D90008091EB029091EC02A091ED02B091EE02B5
:104DA0000196A11DB11D8093EB029093EC02A0939C
:104DB000ED02B093EE02BF91AF919F918F910F9052
:104DC0000FBE0F901F90189587E797E79093010803
:104DD000809300089AE088E10FB6F894A895809334
:104DE00060000FBE90936000FFCF9093F30180931B
:104DF000F20108958091D10208959091F3029430C8
:104E000031F58093AD027093AF026093AE0282E001
:104E10008093E9008FEF9091E800815095FD06C0E6
:104E200095ED9A95F1F700008111F5CF8091E8009A
:104E300085FF0DC040E050E063E070E08DEA92E055
:104E40000E94E1298091E8008E778093E800089520
:104E5000BC0184E00C94FD26BC0183E00C94FD268B
:104E600022E02093E9002FEF3091E800215035FD3A
:104E700006C035ED3A95F1F700002111F5CF2091EC
:104E8000E80025FF0BC040E050E066E070E00E94C3
:104E9000E1298091E8008E778093E8000895CF9310
:104EA000DF9320911401222339F02091D30227FFB0
:104EB00003C060E222E002C068E021E02093E90044
:104EC0002FEF3091E800215035FD06C035ED3A95C1
:104ED000F1F700002111F5CF2091E80025FF1DC05A
:104EE000EC0180911401811105C040E050E068E0C0
:104EF00070E003C070E040E050E0CE010E94E12984
:104F00008091E8008E778093E80080E2FE01A1EBBB
:104F1000B2E001900D928A95E1F7DF91CF9108956B
:104F200084ED9DE00E941B088091F202811109C06E
:104F30000E94722B0E94CF2B8091E20084608093AC
:104F4000E200089580ED9DE00E941B081092F2029D
:104F500008958CEC9DE00C941B0888EC9DE00C946B
:104F60001B0884EC9DE00C941B082091AC022F5F81
:104F7000822F62E30E947E2E992319F02093AC02C7
:104F800008951092AC028091B002882371F1809153
:104F9000F302843041F58091E9008F702091EC009C
:104FA000922F917020FD90E8892B93E09093E90077
:104FB0009091EB0090FF14C09091EE0097FF10C00D
:104FC0009091E80095FF03C01092F100F9CF909105
:104FD000E80090FF05C09091E8009E779093E8006C
:104FE0008F708093E9001092B002089542E061EC66
:104FF00081E00E94EB2A42E261EC82E00E94EB2A0F
:1050000042E261EC83E00C94EB2A8091F50283305C
:1050100009F460C030F4813071F0823009F499C035
:1050200008958A3009F485C08B3009F46BC089304B
:1050300009F0A7C020C08091F402813A09F0A1C014
:105040008091E800877F8093E8008091F80290913A
:10505000F902892B21F460E281EB92E003C060E069
:1050600080E090E070E00E942C2A8091E8008B772D
:105070008093E80008958091F402813209F081C0A4
:105080008091F8029091F902029708F07AC080911D
:10509000E800877F8093E8008091E80082FD05C0EA
:1050A0008091F3028111F8CF6CC02091F3008091C0
:1050B000F20090E0922B029729F48091F1008B7F0F
:1050C000813021F48091F1008093D1028091E80039
:1050D0008B7753C08091F402813A09F052C08091DD
:1050E000F8029091F902892B09F04BC08091E800F9
:1050F000877F8093E8008091E80080FFFCCF80915B
:10510000140136C08091F4028132D9F58091F80201
:105110009091F902892BA9F58091E800877F80930F
:10512000E8000E94202B8091F602809314010C94D9
:10513000D30E8091F402813221F58091E800877FBF
:105140008093E8000E94202B8091F7028093D20286
:1051500008958091F402813AA1F48091E800877F5C
:105160008093E8008091E80080FFFCCF8091D2021C
:105170008093F1008091E8008E778093E8000C9492
:10518000202B08959FB7F8941092B0029FBF909182
:10519000F302943009F057C09091E9009F7030916C
:1051A000EC00232F217030FD20E8922B23E0209388
:1051B000E9002091EB0020FF43C02091EE0027FF83
:1051C0003FC02091AB02222321F02091E80025FF6F
:1051D00037C01092AB0226E03091E80035FD15C0D3
:1051E0003091F302343061F53091EB0035FD28C089
:1051F000215021F481E08093AB0222C0EFE9FFE06F
:105200003197F1F700C00000E7CF8093F100809163
:10521000E80085FD0AC08091E80080FFFCCF809106
:10522000E8008E778093E80006C08FB7F89421E0FD
:105230002093B0028FBF9F709093E90080E00895A3
:105240009F709093E9008FEF089584B7877F84BFA4
:105250000FB6F894A89580916000886180936000F3
:10526000109260000FBE90E080E80FB6F894809333
:105270006100909361000FBE0C9467160E94722B20
:105280000E94CF2BE2EEF0E08081846080837894EE
:105290000E94632E0E9475168AE091E00E948B2482
:1052A00083EB9DE00C941B088091F3028530C9F4D8
:1052B0008FEA9DE00E941B088091F302853079F40B
:1052C0000E942D268091F1028823B1F30E941426BA
:1052D000882391F30E94CB290E94D30EEDCF0E9428
:1052E0005D260C94A3160C947529292F332723309F
:1052F0003105C9F060F42130310581F022303105EB
:1053000009F041C08BE590E026E03EE040C021324C
:105310003105E1F02232310531F135C082E190E012
:1053200021E63EE034C099278130910549F028F00C
:10533000029749F5E8EDFDE005C0E2E0FEE002C0BD
:10534000E8EEFDE0849190E09F0121C0633071059B
:10535000D0F4660F771FFB01E451FE4F20813181AD
:1053600089E090E014C06330710568F4FB01EE0F32
:10537000FF1FEA51FE4F20813181FB01ED51FE4FAD
:10538000808190E004C080E090E020E030E0FA010D
:1053900031832083089580E189BD82E189BD09B40C
:1053A00000FEFDCF8091D8008F7D8093D800809142
:1053B000E00082608093E0008091E00081FDFCCFFE
:1053C0000895CF92DF92EF92FF920F931F93CF93A6
:1053D000DF93EC018B017A010E943F2B811133C0D6
:1053E000E114F10439F0F70180819181081B190B58
:1053F000C80FD91FC12CD12C0115110519F18091AD
:10540000E80085FD16C08091E8008E778093E80063
:10541000E114F10449F0F70180819181C80ED91E91
:10542000D182C08285E00FC00E943F2B882321F3E8
:105430000AC089918093F10001501109FFEFCF1A42
:10544000DF0ADACF80E0DF91CF911F910F91FF90BB
:10545000EF90DF90CF9008952091FA023091FB02F7
:105460002617370748F06115710539F42091E800D7
:105470002E772093E80001C0B901FC0120E06115FE
:10548000710579F18091F3028823F1F18530F1F112
:105490008091E80083FD3CC08091E80082FD2EC031
:1054A0008091E80080FFEBCF2091F3008091F20023
:1054B00090E0922B6115710551F08830910538F418
:1054C00021912093F100615071090196F3CF21E001
:1054D000089709F020E08091E8008E778093E8003B
:1054E000CECF2111CFCF0AC08091F302882361F083
:1054F000853061F08091E80083FD0AC08091E8006A
:1055000082FFF2CF80E0089582E0089583E008955D
:1055100081E008952091FA023091FB0226173707A7
:1055200048F06115710539F42091E8002E77209339
:10553000E80001C0B901FC0120E06115710591F19D
:105540008091F302882309F440C0853009F43FC0FC
:105550008091E80083FD3DC08091E80082FD2FC06E
:105560008091E80080FFE9CF2091F3008091F20064
:1055700090E0922B6115710559F08830910540F447
:1055800024912093F1003196615071090196F2CF78
:1055900021E0089709F020E08091E8008E77809361
:1055A000E800CBCF2111CCCF0AC08091F302882331
:1055B00061F0853061F08091E80083FD0AC0809140
:1055C000E80082FFF2CF80E0089582E0089583E052
:1055D000089581E00895982F973068F59093E90039
:1055E000981739F07091EC002091ED005091F00087
:1055F00003C0242F762F50E021FD02C09F5FECCF27
:105600003091EB003E7F3093EB003091ED003D7F19
:105610003093ED003091EB0031603093EB007093EC
:10562000EC002093ED005093F0002091EE0027FD58
:10563000E5CF80E008958F708093E90081E00895C0
:105640008091F40287FF11C08091E80082FD05C0BF
:105650008091F3028111F8CF11C08091E8008B771F
:105660000BC08091F302882349F08091E80080FF0D
:10567000F8CF8091E8008E778093E800089520911C
:10568000E4003091E50095E64091EC00842F8170B4
:1056900040FF23C08091E80080FD1DC08091F3028F
:1056A000882399F0853099F08091EB0085FD11C039
:1056B0004091E4005091E5002417350729F39150FB
:1056C00011F09A01E1CF84E0089582E0089583E02B
:1056D000089581E0089580E008954091E80042FF38
:1056E000DDCF08950E94E02B0E94E82BE0EEF0E071
:1056F000808181608083E8EDF0E080818F77808316
:1057000019BCA7EDB0E08C918E7F8C9380818F7E49
:1057100080831092F20208950F931F93CF93DF932B
:105720000E94E02B0E94E82BC8EDD0E088818F77A3
:10573000888388818068888388818F7D888319BC6D
:105740001092F3021092EF021092F1021092F00206
:1057500000EE10E0F80180818B7F8083888181607A
:10576000888342E060E080E00E94EB2AE1EEF0E016
:1057700080818E7F8083E2EEF0E080818160808393
:10578000808188608083F80180818E7F808388811A
:1057900080618883DF91CF911F910F910895E8ED8B
:1057A000F0E080818F7E8083E7EDF0E08081816092
:1057B000808384E082BF81E08093F2020C948C2B82
:1057C000E8EDF0E080818E7F80831092E200089502
:1057D0001092DA001092E10008951F920F920FB616
:1057E0000F9211242F933F934F935F936F937F9367
:1057F0008F939F93AF93BF93EF93FF938091E100BB
:1058000082FF0BC08091E20082FF07C08091E1001F
:105810008B7F8093E1000E94B5278091DA0080FFA2
:105820001FC08091D80080FF1BC08091DA008E7F5E
:105830008093DA008091D90080FF0DC080E189BD9E
:1058400082E189BD09B400FEFDCF81E08093F302BF
:105850000E94902705C019BC1092F3020E94A22753
:105860008091E10080FF19C08091E20080FF15C0A7
:105870008091E2008E7F8093E2008091E20080615F
:105880008093E2008091D80080628093D80019BC98
:1058900085E08093F3020E94AD278091E10084FFB0
:1058A00030C08091E20084FF2CC080E189BD82E19C
:1058B00089BD09B400FEFDCF8091D8008F7D809313
:1058C000D8008091E1008F7E8093E1008091E2001A
:1058D0008F7E8093E2008091E20081608093E200FD
:1058E0008091EF02882311F084E007C08091E300EB
:1058F00087FD02C081E001C083E08093F3020E9433
:10590000B1278091E10083FF29C08091E20083FFED
:1059100025C08091E100877F8093E10082E0809341
:10592000F3021092EF028091E1008E7F8093E100FC
:105930008091E2008E7F8093E2008091E20080619E
:105940008093E20042E060E080E00E94EB2A8091D8
:10595000F00088608093F0000E94A927FF91EF91EA
:10596000BF91AF919F918F917F916F915F914F9177
:105970003F912F910F900FBE0F901F9018951F927F
:105980000F920FB60F9211242F933F934F935F9373
:105990006F937F938F939F93AF93BF93CF93DF9337
:1059A000EF93FF93C091E900CF708091EC00D82F66
:1059B000D17080FDD0E81092E9008091F000877FDF
:1059C0008093F00078940E94032D1092E90080915A
:1059D000F00088608093F000CD2BCF70C093E90079
:1059E000FF91EF91DF91CF91BF91AF919F918F91F7
:1059F0007F916F915F914F913F912F910F900FBECB
:105A00000F901F9018951F93CF93DF93CDB7DEB7FC
:105A1000AA970FB6F894DEBF0FBECDBFE4EFF2E059
:105A20008091F100819322E0EC3FF207C9F70E94D8
:105A300005288091E80083FF2EC18091F4029091A7
:105A4000F502492F50E04A30510508F024C1FA010F
:105A5000ED54FF4F0C949E2E803821F0823809F0CF
:105A60001AC108C08091F0029091F102992389F047
:105A700082600FC08091F8028F70873008F00BC1F0
:105A80008093E9008091EB0085FB882780F91092D4
:105A9000E9009091E800977F9093E8008093F100EF
:105AA0001092F100D1C0282F2D7F09F0F4C0882377
:105AB00019F0823061F0EFC08091F602813009F078
:105AC000EAC0933009F080E08093F1022EC080910B
:105AD000F60281112AC08091F8028F702FEF280FF3
