:100000000C94A2080C94E9080C94E9080C94E908F3
:100010000C94E9080C94E9080C94E9080C94E9089C
:100020000C94E9080C94E9080C94C92C0C949B2DB1
:100030000C9441270C94E9080C94E9080C94E90805
:100040000C94E9080C94E9080C94E9080C94E9086C
:100050000C94E9080C949A270C94E9080C94E9088C
:100060000C94E9080C94E9080C94E9080C94E9084C
:100070000C94E9080C94E9080C94E9080C94E9083C
:100080000C94E9080C94E9080C94E9080C94E9082C
:100090000C94E9080C94E9080C94E9080C94E9081C
:1000A0000C94E9080C94E9080C94E908550D550DD9
:1000B000870D870DD40DF20D130F130FFD0D920E4A
:1000C000A30EA30E030F130F130F0C0FC10FC10FBD
:1000D000D30FD30FCA0FD30FD30FD30FC10FC10F3D
:1000E000CF0FD30FD30FCF0F321E201E391EAB1DE3
:1000F000E61EE61E1D1EE61EE61E661EE61E7A1E95
:10010000C61EE61EE61EE61EE61E9A1EE61EE61E3B
:10011000971EE61E521EE61EE61EE01EE01EE01EB4
:10012000E01EE01EE01EE01EE01EE01EE21EE61ED7
:10013000321E151EE61EE61EE61EE61EE61EE61E24
:10014000E61EE61EE61EE61EE21EE61EE61E1D1E5C
:10015000E61EDE1EDE1EDE1EDE1EDE1EDE1EDE1EB7
:10016000DE1EDE1EE21E082E2F2E272F2F2E272FFB
:100170007B2E9E2E272FF52E042F14001A450800E3
:100180001500174800001C0018000C001200130096
:1001900004471643074209440A4A00000B000D00B9
:1001A0000E000F0033001D621B0006001900050041
:1001B000296111001000360037003872000000007D
:1001C000E200E3002C0028642A0001512D003400D5
:1001D0002B001E021F022002210222020000230225
:1001E0002402250226022702000000002F00300012
:1001F000000000005000510052004F000000E100DC
:100200000000000000000000296100000000000064
:100210000000E50000000000E200E3002C0028647C
:100220004C000100000000002B0000000000000056
:1002300000000000000054002400250026005600A5
:100240000000000000000000000000005500210038
:10025000220023005700E100000000000000000021
:10026000296158001E001F002000670000000000E8
:10027000E200E3002C0028642A0027002700630026
:100280002B000000000000000000000000005400EF
:10029000240225023100560000000000000000008A
:1002A0000000000055002102220223025700E10055
:1002B0000000000000000000296128001E021F024B
:1002C0002002670000000000E200E3002C00286428
:1002D0002A000000000063002B0000000000000066
:1002E00000000000000054002F00300031005600D4
:1002F00000000000000000000000000034022F0297
:10030000300234005700E10000000000000000004F
:1003100029612D0226022702350067000000000037
:10032000E200E3002C0028642A00000000003502EF
:100330003102000000002B002B02350000005001AC
:10034000510152014F010000000000000000090CA3
:1003500035020000500C510C520C4F0C0000E10013
:100360000000060C000000002961000000000000F1
:100370000000000000000000E200E3002C00286400
:100380000000500D060C4F0D2B0001000100010074
:100390000100010000000100010001000100010056
:1003A0000100010001000100010000000100010046
:1003B0000100010001000100010001000100010035
:1003C0000100010001000100010001000100010025
:1003D0000100010001000100010001000100010015
:1003E000010000000000AE00000000000000490015
:1003F0004B004A004E00480000000000AA00A9007F
:10040000A80000005000510052004F000000000002
:100410000000E1002B000000010000004D004D0035
:100420000000000000000000E200E3000000010006
:100430004C00000000000000000000000000000070
:10044000000000000000F400F100F300F200F500ED
:10045000000000000000000000000000EF00EE00BF
:10046000ED00F000000000000000000000001E5041
:100470000100FB00F9000000FA00FC000000000091
:10048000000000000000010015080000FD00FE0053
:10049000FF00010001000100010001000000010057
:1004A0000100010001000100010001000100010044
:1004B0000100000001000100010001000100010035
:1004C0000100010001000100010001000100010024
:1004D0000100010001000100010001000100010014
:1004E0000100010001000100010000000000000007
:1004F0000000000000003900400041004200680098
:1005000000000000000000000000000046003D0068
:100510003E003F006900E100000000000000000014
:10052000000047003A003B003C006A000000000069
:10053000E200E3002C0000004800430044004500B6
:100540000D53010001000100010001000000010045
:100550000100010001000100010001000100010093
:100560000100000001000100010001000100010084
:100570000100010001000100010001000100010073
:100580000100010001000100010001000100010063
:100590000100010001000100010001000100010053
:1005A0000100010000000100010001000100010044
:1005B0000100010001000100010000000100010034
:1005C0000100010001000100010001000100010023
:1005D0000100010001000100010001000100010013
:1005E0000100010001000100010001000100010003
:1005F000010035001E001F00200021000000220025
:1006000023002400250026002B0014001A000800F7
:100610001500000017001C0018000C001200E0007C
:1006200004001600070009002C000A000B000D0052
:1006300052002700E1001D001B00060019002900E0
:1006400005000D53500051004F0007000800050041
:1006500018000A0000000000000000000000000078
:100660001500080016000800170000000000000038
:100670000000000000000000000000000000010079
:1006800010500000000000000000005200000000B8
:10069000000010500000000000000000DF5C015C62
:1006A000005C44454255473A2064697361626C6559
:1006B000642E0A0044454255473A20656E61626CDB
:1006C00065642E0A0000000000000000002A2B28AC
:1006D000000000000000000000000000000000001A
:1006E00029000000002C1E34202122243426272536
:1006F0002E362D3738271E1F20212223242526336E
:1007000033362E37381F0405060708090A0B0C0D6F
:100710000E0F101112131415161718191A1B1C1D81
:100720002F3130232D350405060708090A0B0C0D5F
:100730000E0F101112131415161718191A1B1C1D61
:100740002F3130354C000000000000000000000098
:100750000000000000000000000000000000000099
:100760000000000000000000007E0F00D4FFFFFF2B
:10077000C7000000784F6E6573686F743A2061633C
:10078000746976653A2025640A000A0025303258DB
:10079000006B6579626F6172645F7365745F6C652D
:1007A000643A20000A002530313662003A200025E4
:1007B000303258000A722F632030313233343536EC
:1007C0003738394142434445460A00313A096465A5
:1007D0006C6179282A31306D73293A2025750A32E7
:1007E0003A09696E74657276616C286D73293A20D6
:1007F00025750A333A096D61785F73706565643AEF
:100800002025750A343A0974696D655F746F5F6DF0
:1008100061783A2025750A353A09776865656C5F15
:100820006D61785F73706565643A2025750A363AA4
:1008300009776865656C5F74696D655F746F5F6D7E
:1008400061783A2025750A00703A097072696E74F1
:100850002076616C7565730A643A09736574206467
:10086000656661756C74730A75703A092B310A6498
:100870006E3A092D310A6C743A092B31300A7274C0
:100880003A092D31300A4553432F713A0971756980
:10089000740A0A7370656564203D2064656C746138
:1008A000202A206D61785F7370656564202A202896
:1008B000726570656174202F2074696D655F746F57
:1008C0005F6D6178290A77686572652064656C746C
:1008D000613A20637572736F723D25642C207768CE
:1008E00065656C3D25640A53656520687474703ACB
:1008F0002F2F656E2E77696B6970656469612E6F45
:1009000072672F77696B692F4D6F7573655F6B65C4
:1009100079730A004D3E20004D25753A25733E201F
:10092000003F0A003D2025750A003F0A0064656605
:1009300061756C74730A0025750A003F0A000A0984
:100940002D2056616C756573202D0A00710A000A0E
:10095000092D204D6F7573656B6579202D0A003F59
:1009600000433E20004C25640A000A092D205374E0
:1009700061747573202D0A686F73745F6B6579629B
:100980006F6172645F6C65647328293A2025303288
:10099000580A6B6579626F6172645F70726F746F11
:1009A000636F6C3A20253032580A6B6579626F614B
:1009B00072645F69646C653A20253032580A6B6551
:1009C000796D61705F636F6E6669672E6E6B726FB3
:1009D0003A20253032580A74696D65725F7265611C
:1009E00064333228293A202530386C580A000A0925
:1009F0002D2056657273696F6E202D0A5649443A50
:100A00002030783132303928546563686E6F6D61FB
:100A10006E637929205049443A2030784131453578
:100A20002841747265757329205645523A203078F2
:100A3000303030380A4255494C443A20202853651A
:100A4000702020342032303231290A4F5054494F1F
:100A50004E533A204C554641204D4F5553454B453A
:100A6000592045585452414B455920434F4E534FFE
:100A70004C4520434F4D4D414E44204E4B524F204C
:100A8000343039360A4743433A20352E342E30204D
:100A90004156522D4C4942433A20322E302E3020BE
:100AA0004156525F415243483A20617672350A00FE
:100AB0000A092D20436F6E736F6C65202D0A455314
:100AC000432F713A09717569740A6D3A096D6F7532
:100AD00073656B65790A000A092D204D61676963AA
:100AE000202D0A443A094465627567204D65737389
:100AF00061676520546F67676C650A583A094D61F4
:100B000074726978204465627567204D6F64652052
:100B1000546F67676C65202D2053686F77206B6575
:100B2000797072657373657320696E206D6174727C
:100B3000697820677269640A4B3A094B6579626F7C
:100B400061726420446562756720546F67676C65E5
:100B5000202D2053686F77206B65797072657373F1
:100B6000207265706F72740A4D3A09446562756748
:100B7000204D6F75736520546F67676C650A563A30
:100B80000956657273696F6E0A533A09537461743A
:100B900075730A433A094163746976617465204349
:100BA0006F6E736F6C65204D6F64650A46312D461C
:100BB00031303A0953776974636820746F204C614F
:100BC00079657220302D392028463130203D204C67
:100BD00030290A302D393A095377697463682074D3
:100BE0006F204C6179657220302D390A4752415689
:100BF000453A0953776974636820746F204C6179B2
:100C0000657220302028616C7465726E617465298C
:100C10000A423A094A756D7020746F20426F6F74F2
:100C20006C6F616465720A4553433A094A756D7089
:100C300020746F20426F6F746C6F6164657220283E
:100C4000616C7465726E617465290A453A09507267
:100C5000696E7420454550524F4D20536574746938
:100C60006E67730A4253504143453A09436C6561CC
:100C70007220454550524F4D0A4E3A094E4B524F45
:100C800020546F67676C650A006B65796D61705FF2
:100C9000636F6E6669672E7261773A20253032582D
:100CA0000A2E737761705F636F6E74726F6C5F632F
:100CB0006170736C6F636B3A2025750A2E636170E7
:100CC000736C6F636B5F746F5F636F6E74726F6C66
:100CD0003A2025750A2E737761705F6C63746C5FC0
:100CE0006C6775693A2025750A2E737761705F729B
:100CF00063746C5F726775693A2025750A2E737785
:100D000061705F6C616C745F6C6775693A20257502
:100D10000A2E737761705F72616C745F72677569B8
:100D20003A2025750A2E6E6F5F6775693A20257522
:100D30000A2E737761705F67726176655F657363B2
:100D40003A2025750A2E737761705F6261636B7359
:100D50006C6173685F6261636B73706163653A2095
:100D600025750A2E6E6B726F3A2025750A00646530
:100D70006275675F636F6E6669672E7261773A208E
:100D8000253032580A2E656E61626C653A202575F1
:100D90000A2E6D61747269783A2025750A2E6B658A
:100DA00079626F6172643A2025750A2E6D6F7573D2
:100DB000653A2025750A006565636F6E6669673A56
:100DC0000A64656661756C745F6C617965723A205E
:100DD00025750A003F004E4B524F3A206F66660A57
:100DE000004E4B524F3A206F6E0A000A6D6F7573BA
:100DF000653A206F66660A000A6D6F7573653A2062
:100E00006F6E0A000A6B6579626F6172643A206FD7
:100E100066660A000A6B6579626F6172643A206FD8
:100E20006E0A000A6D61747269783A206F66660A0C
:100E3000000A6D61747269783A206F6E0A000A6464
:100E4000656275673A206F66660A000A64656275B6
:100E5000673A206F6E0A000A0A4A756D70696E67FC
:100E600020746F20626F6F746C6F616465722E2ED8
:100E70002E2000433E2000436C656172696E67203E
:100E8000454550524F4D0A00290A002575002F0094
:100E90002575005D280025640020002564002000E1
:100EA00025640020002564007C0025303258006D48
:100EB0006F7573656B6579205B62746E7C782079E1
:100EC000207620685D287265702F61636C293A2056
:100ED0005B00556E69636F646520696E7075742080
:100EE0006D6F64652073657420746F3A2025750AF0
:100EF00000556E69636F646520696E707574206D4E
:100F00006F646520696E697420746F3A2025750AD4
:100F1000000A002530325820006B6579626F6172DB
:100F2000645F7265706F72743A200064656C5F6B09
:100F300065795F6269743A2063616E277420646525
:100F40006C3A20253032580A006164645F6B657921
:100F50005F6269743A2063616E2774206164643A49
:100F600020253032580A005B735D004B6579626F53
:100F70006172642073746172742E0A005B575D00A5
:100F80005B535D005B525D005B445D005B435D0055
:100F90000E034100740072006500750073000000CC
:100FA000180354006500630068006E006F006D0058
:100FB00061006E0063007900000004030904090267
:100FC0005B00030100A0FA09040000010301010015
:100FD0000921110100012240000705810308000AD0
:100FE0000904010001030000000921110100012290
:100FF000B6000705820320000A090402000203006C
:1010000000000921110100012222000705830320AD
:101010000001070503032000011201000200000087
:10102000080912E5A10800010200010631FF097458
:10103000A1010975150026FF009520750881020998
:1010400076150026FF00952075089102C00501095C
:1010500002A10185020901A100050919012908154C
:101060000025019508750181020501093009311536
:1010700081257F95027508810609381581257F95A0
:101080000175088106050C0A38021581257F950136
:1010900075088106C0C005010980A10185031901F9
:1010A0002AB700150126B700950175108100C0050B
:1010B0000C0901A101850419012AA002150126A02D
:1010C00002950175108100C005010906A101850581
:1010D000050719E029E7150025019508750181022A
:1010E0000507190029EF1500250195F0750181020A
:1010F00005081901290595057501910295017503EA
:101100009101C005010906A101050719E029E715AC
:101110000025019508750181029501750881010579
:1011200007190029FF150026FF00950675088100A4
:1011300005081901290595057501910295017503A9
:101140009101C00011241FBECFEFDAE0DEBFCDBF9A
:1011500004B603FE27C08091FC029091FD02A0918D
:10116000FE02B091FF028730904BA740B04BD1F404
:101170001092FC021092FD021092FE021092FF02E9
:1011800014BE84B7877F84BF0FB6F894A89580916A
:101190006000886180936000109260000FBEE0E004
:1011A000F8E3099511E0A0E0B1E0EAECFFE502C048
:1011B00005900D92A23FB107D9F722E0A2EFB1E06E
:1011C00001C01D92AC3FB207E1F70E94291C0C94AC
:1011D000E32F0C940000FF93EF93E091F201F09164
:1011E000F301309709F00995EF91FF910895FC0103
:1011F0008591803011F0EFDFFBCF0895FF27E0E20B
:1012000030E247FF0CC0419597FF09C0EDE26095C1
:10121000709580959095611D711D811D911D27FF11
:1012200002C0219530E350E2AA27660F771F881F7E
:10123000991FAA1FA41710F0A41B63955A95A9F72C
:10124000AA3008F0A95FA05DAF93F3956115710511
:101250008105910541F7ED3211F4EF93F395F21703
:1012600018F43F93F395FBCF8F91B5DFFA95E1F733
:101270000895E991F9918591803021F0853219F036
:10128000AADFF9CF089520E0E89455915532C1F3D3
:10129000503311F4689455915A3348F4505390F3F5
:1012A000220F022E220F220F200D250FF4CF0EF455
:1012B000219589919991533619F3533729F1533573
:1012C00059F1BC0188279927E8945C3621F489916B
:1012D000999168945591543639F446EF7EF077FF32
:1012E0000DC08FEF9FEF0AC055374AE039F05835EF
:1012F00040E121F0523642E009F00895FF93EF9368
:101300007DDFEF91FF91B7CFFF93EF93FC018191C8
:101310008030B9F360DFFBCFFF93EF9368DFF1CF4D
:10132000DF93CF93CDB7DEB72596A3DFCF91DF91C3
:1013300008959C013A9521153F4130F5BC0166277F
:101340007270AC01442754709C012227387094FFBE
:101350000FC090FF02C080E101C080E0672B09F060
:101360008062452B09F08064232B79F08068089512
:10137000892F8170672B09F08260452B09F084600A
:10138000232B19F08860089580E00895CF93DF93B0
:10139000EC01805E9109089710F0209731F4CE019E
:1013A0000E9499090E94140D05C0CE010E9499095E
:1013B0000E94870F8C2FDF91CF910C94DD0BCF9380
:1013C000DF93EC010E948C0CCE01805E910908979E
:1013D00010F0209739F4CE010E949909DF91CF9146
:1013E0000C941B0DCE010E949909DF91CF910C94B2
:1013F0008E0FCF93DF93EC010E94C609CE01DF91DF
:10140000CF910C94DF0981E0089581E008950C9458
:10141000050A08950C94090A1F93CF93DF9300D017
:1014200000D01F92CDB7DEB749835A836B833091CA
:10143000F40189819A81311114C0662359F0222365
:1014400049F00E946511182F682F89819A810E94A6
:101450000E1103C00E943911182F69817A81812FE2
:1014600004C00E94651169817A810F900F900F90DE
:101470000F900F90DF91CF911F910C943918FC01C0
:10148000262F408151816281738184810C940C0AE2
:1014900081E00895CF93DF93EC0160E00E943F0A62
:1014A000BE01DF91CF910C940A0A0E944D1A0E944E
:1014B000830B0E9479220C94D01A0C94CC1A0895B4
:1014C0000E94AF0F0E945F0A2FEF84E39CE021503F
:1014D00080409040E1F700C000000C94C0270F93BB
:1014E0001F93CF93DF938C0161E00E943F0AEC01D0
:1014F000B8010E94070A882309F462C0B801CE012E
:101500000E942A23882309F45BC0B801CE010E94FF
:10151000B923882309F454C0B801CE010E940B24DA
:10152000882309F44DC0B801CE010E9436258823D6
:1015300009F446C0F80182818823D9F1CF3D8CE5BA
:10154000D80779F140F4C115FCE5DF0791F0C1300F
:10155000DC4591F02EC0CC35EDE5DE0741F1CD350F
:10156000FDE5DF0709F1CB35DD4519F50E94A11531
:1015700020C00E94600A24C080918902C82FC095B3
:10158000C170C0FB80F980938902CC2329F084EBE1
:1015900096E00E94F70814C082EA96E00E94F708DD
:1015A00010C00E9411170CC00E94981502C00E9422
:1015B000A415C801DF91CF911F910F910C94030ADC
:1015C000C0E08C2FDF91CF911F910F910895DF9292
:1015D000EF92FF920F931F93CF93DF93E82FF0E0EA
:1015E000EB53F94FD490282F26952695269530E079
:1015F000F901EB59F84F0491877010E0082E02C0F2
:10160000159507950A94E2F701701127F901EB5A35
:10161000F84FE490F12C082E02C0F594E7940A9458
:10162000E2F791E0E922FF24F901EB5BF84FC49166
:10163000D0E002C0D595C7958A95E2F7C170DD2745
:101640000115110519F081EE0E94DD0BE114F10482
:1016500019F086EE0E94DD0B8D2D0E940B0DEF28F8
:1016600019F086EE0E948C0C012B19F081EE0E947D
:101670008C0CCD2B51F08CE2DF91CF911F910F910B
:10168000FF90EF90DF900C940B0DDF91CF911F91A5
:101690000F91FF90EF90DF900895982F9F709A50D0
:1016A000963010F0805D01C0895A0C94E70A82954B
:1016B000982F937344E0949F900111248C7C86951D
:1016C0008695282B822F8575880F2A7A2695822B5E
:1016D0000895CF93DF93D92F0E94570BC82F8D2FDA
:1016E0000E94570B2C2F30E0322F2227A901482BC4
:1016F000CA01DF91CF91089508950C947C0B81E08D
:1017000008950C947F0B0895CF93C82F0E947D0BF2
:101710008C2F0E94810BCF910895CF93DF93CDB78B
:10172000DEB72B970FB6F894DEBF0FBECDBF4F8349
:10173000588769877A878B8761110E94CA159E0135
:101740002F5F3F4F86E0F90111928A95E9F785E016
:10175000FE013796D90101900D928A95E1F78981B2
:101760009A814C815D81452B31F09F3F31F491E0AE
:101770008F3F19F403C091E001C090E090FF09C0D1
:1017800049815A816B817C818D819E810E94B31435
:1017900005C0C9010E94480A8111F2CF2B960FB6ED
:1017A000F894DEBF0FBECDBFDF91CF910895FC014D
:1017B000808191810E94A7110895CF93882309F415
:1017C000A9C0C82F8238C1F40E946C2581FDA2C037
:1017D00069E380910001909101010E94C2260E945C
:1017E000FC152FEF81EE94E0215080409040E1F70E
:1017F00000C0000069E319C0833801F50E946C2520
:1018000080FD88C063E580910001909101010E94F4
:10181000C2260E94FC152FEF81EE94E021508040FB
:101820009040E1F700C0000063E5809100019091D5
:1018300001010E94CD26CF910C94FC158438C1F48F
:101840000E946C2582FD66C067E480910001909142
:1018500001010E94C2260E94FC152FEF81EE94E048
:10186000215080409040E1F700C0000067E4DDCFE8
:101870008CEF8C0F813AF8F48C2F0E94F81E8111A6
:1018800049C06C2F80910001909101010E94202697
:10189000882349F06C2F80910001909101010E94F2
:1018A000CD260E94FC156C2F8091000190910101C2
:1018B0000E94C226C0CF80E28C0F883048F4C770E7
:1018C00081E001C0880FCA95EAF70E94AA15B3CF3C
:1018D000EBE5EC0FE33040F4F0E0ED5BFE4F808190
:1018E00090E0CF910C94DE25E8E5EC0FE73150F461
:1018F000F0E0EE0FFF1FEB5EFE4F80819181CF91F4
:101900000C94F425CD3E30F08C2F0E94D11FCF9146
:101910000C94A320CF910895882309F464C08238E1
:1019200079F40E946C2581FF5EC069E3809100011B
:10193000909101010E94C2260E94FC1569E310C02B
:101940008338B1F40E946C2580FF4DC063E580911F
:101950000001909101010E94C2260E94FC1563E5DE
:1019600080910001909101010E94CD260C94FC15FC
:10197000843879F40E946C2582FF35C067E4809139
:101980000001909101010E94C2260E94FC1567E4AB
:10199000E7CF9CEF980F913A10F4682FE1CF90E2D7
:1019A000980F983050F4877091E001C0990F8A9594
:1019B000EAF7892F0E94B015D9CF9BE5980F933095
:1019C00020F480E090E00C94DE2598E5980F9731A4
:1019D00020F480E090E00C94F4258D3E20F00E94ED
:1019E0002C200C94A32008951F93CF93DF93182FDE
:1019F000EB010E94DD0B209741F08FE99FE00197FA
:101A0000F1F700C000002197F6CF812FDF91CF9131
:101A10001F910C948C0C893319F060E070E002C0C7
:101A200060E570E00C94F40C882321F00E94AA1564
:101A30000C94FC150895882321F00E94B0150C9495
:101A4000FC150895CF92DF92EF92FF920F931F93B0
:101A5000CF93DF937C01062FC72FFC01D281158124
:101A600012951F700E946B15882399F0DD2389F071
:101A70008C2F807F803421F080E2800F883048F006
:101A800082E00E944C160E946B1591E0D82ED92658
:101A900001C0D12CCC2EC2948FE0C8228C2D90E0B6
:101AA000FC01EA5AFF4F0C947A2F8C2F807FCF7065
:101AB000882311F0C295C07FDD2399F0CC2309F46F
:101AC0008DC180E2800F883010F0011104C08C2F8E
:101AD0000E94AA1503C08C2F0E94BD150E94FC1500
:101AE0007DC1802F0E948C0CCC2309F49CC180E224
:101AF000800F883010F0011104C08C2F0E94B015A7
:101B000003C08C2F0E94C3150E94FC158CC18C2F22
:101B1000807FCF70803211F0C295C07F002319F012
:101B20000130C9F022C0DD2371F0112341F01130E2
:101B300031F40E94DD158C2B0E94E51574C10E94C2
:101B4000DD158C2B1DC0112319F0113009F46BC168
:101B50000E94F21525C0DD2321F0163008F063C184
:101B60000EC0153008F05FC11BC0DD2361F01123EA
:101B700031F0F701858180FF31C18F7085838C2F13
:101B80000E94140D50C1112359F0093309F037C1D7
:101B9000FFEF27EE83E0F15020408040E1F72DC1B8
:101BA0008C2F0E941B0D3FC18C2F869586958370CC
:101BB00019F0813061F037C1DD2321F0802F9C2F97
:101BC000937002C080E090E00E94DE2534C1DD23E6
:101BD00021F0802F9C2F937002C080E090E00E9443
:101BE000F42529C1802FDD2319F00E94D11F02C0E6
:101BF0000E942C200E94A3201EC18C2F837009F00C
:101C000045C0D11114C1402F429546954770440FED
:101C1000440F602F6F70862F90E0A0E0B0E0042E9C
:101C200004C0880F991FAA1FBB1F0A94D2F704FF94
:101C300010C00FE010E020E030E004C0000F111FE2
:101C4000221F331F4A95D2F70095109520953095A5
:101C500003C000E010E09801C695C695C370BC01B2
:101C6000CD01602B712B822B932BC23049F058F49D
:101C7000C13019F00E942410DAC00E941210D7C09F
:101C80000E943610D4C00E941010D1C0DD2319F07C
:101C90008C2F817001C08695882309F4C8C0402F1D
:101CA000429546954770440F440F602F6F70862F02
:101CB00090E0A0E0B0E0042E04C0880F991FAA1F96
:101CC000BB1F0A94D2F704FF10C00FE010E020E021
:101CD00030E004C0000F111F221F331F4A95D2F7B6
:101CE000009510952095309503C000E010E0980114
:101CF000C695C695C370BC01CD01602B712B822B9C
:101D0000932BC23049F058F4C13019F00E94E91009
:101D10008EC00E94D7108BC00E94FB1088C00E940A
:101D20004A1085C0CF70DD2339F08C2F0E947010CF
:101D3000802F0E94140D7BC0802F0E941B0D8C2FC2
:101D40000E94911074C0023F01F128F4003F41F05D
:101D5000013FA1F03FC0033FF9F0043F39F13AC021
:101D6000DD2341F0153008F05EC08C2F8F710E948A
:101D7000B61059C0163008F056C0F7CFDD2339F041
:101D80008C2F8F710E9470104EC0DD23C9F38C2FF1
:101D90008F710E94911047C0DD2329F08C2F8F7125
:101DA0000E945B1040C00E9456103DC0DD2349F0E8
:101DB000CF718C2F0E94701063E08C2F0E9431161F
:101DC00032C081E00E944C16123068F182E00E941D
:101DD0004C1629C0DD2331F0112391F2802F0E948F
:101DE000DD0B21C0112399F2093349F49FEFE7EE8F
:101DF000F3E09150E040F040E1F700C00000802F98
:101E00000E948C0C10C04C2F4F70602FC7010E9495
:101E100035180E94D5110FC04C2F4F70602FC7018D
:101E20000E94381808C088EF8C0D843020F40E947E
:101E30006C250E94840BDD20C9F00E94671580FD8F
:101E400015C0F70112820E9461150E947010C7012F
:101E50000E94570F0E946115DF91CF911F910F9142
:101E6000FF90EF90DF90CF900C949110DF91CF9185
:101E70001F910F91FF90EF90DF90CF9008950F93F7
:101E80001F93CF93DF93EC01688179818A810E944F
:101E9000B2118C010E940D110E94FE0FB801CE01FB
:101EA0000E94220DDF91CF911F910F910895CF9342
:101EB000DF93EC01988189812B813C81232B31F0C8
:101EC0008F3F31F481E09F3F19F403C081E001C0EE
:101ED00080E080FD19C0CE010E946F0A81110CC004
:101EE0000E946B15882381F08A81882369F082E043
:101EF000DF91CF910C944C16CE010E943F0FCE0182
:101F0000DF91CF910C944A0ADF91CF9108958823F5
:101F100021F00E94BD150C94FC150895882321F032
:101F20000E94C3150C94FC15089580E090E00E9477
:101F3000DE2580E090E00E94F4250E94CA150E94F0
:101F4000DA150E94FC150E9456220C94A320809161
:101F50000001909101010E94D8260C94950F0E94D7
:101F6000BA150C94A70FE92FE295EF704E2F50E0B1
:101F7000FA013297EE30F105B0F4EA59FF4F0C94B4
:101F80007A2F803F91F018F4883E68F40EC0843FA9
:101F900051F40BC0883E48F0813F29F406C093FB02
:101FA000882780F9089580E0089581E00895FC0174
:101FB000808191810E94A7110E94B30F0895CF9351
:101FC000DF9300D000D01F92CDB7DEB70F900F90F7
:101FD0000F900F900F90DF91CF910895CF93DF93E3
:101FE00000D000D000D0CDB7DEB726960FB6F8945B
:101FF000DEBF0FBECDBFDF91CF9108950895089544
:102000000C94FF0F0C9400100E94021060931702B2
:10201000709318028093190290931A020C94950FF2
:102020000C9404100F931F93009117021091180243
:102030002091190230911A02602B712B822B932B65
:102040001F910F910C9404100F931F93009117028E
:10205000109118022091190230911A026023712305
:10206000822393231F910F910C9404100F931F93BD
:1020700000911702109118022091190230911A0252
:1020800060277127822793271F910F910C940410CA
:102090000C94FF0F0E944810609313027093140277
:1020A00080931502909316020C94950F60E070E0F7
:1020B000CB010C944A100F931F9341E050E060E075
:1020C00070E08A019B0104C0000F111F221F331F03
:1020D0008A95D2F7C901B8011F910F910C944A104B
:1020E0000F931F9341E050E060E070E004C0440FA4
:1020F000551F661F771F8A95D2F780911302909122
:102100001402A0911502B09116028A019B01082BBE
:10211000192B2A2B3B2BC901B8011F910F910C944D
:102120004A100F931F9341E050E060E070E004C05C
:10213000440F551F661F771F8A95D2F7409550951B
:10214000609570958091130290911402A0911502F0
:10215000B09116028A019B01082319232A233B23ED
:10216000C901B8011F910F910C944A100F931F934E
:1021700041E050E060E070E004C0440F551F661F6E
:10218000771F8A95D2F78091130290911402A09143
:102190001502B09116028A019B01082719272A27E8
:1021A0003B27C901B8011F910F910C944A100F935E
:1021B0001F93009113021091140220911502309187
:1021C0001602602B712B822B932B1F910F910C9475
:1021D0004A100F931F930091130210911402209143
:1021E00015023091160260237123822393231F91DD
:1021F0000F910C944A100F931F93009113021091AA
:10220000140220911502309116026027712782274F
:1022100093271F910F910C944A1008952BE0929FE1
:10222000800D1124E82FE695E695E695877051E03C
:1022300001C0550F8A95EAF785E0E89FF001112467
:10224000EB50FE4F20E030E070E04081CB01022EE9
:1022500002C0969587950A94E2F78170819584274C
:102260008523842781932F5F3F4F2530310569F700
:1022700008952BE0929F800D1124682F6695669536
:102280006695982F977085E0689FB001112440E013
:1022900050E080E0FB01E40FF51FEB50FE4F208182
:1022A00030E0092E02C0369527950A94E2F7217096
:1022B0003327042E01C0220F0A94EAF7822B4F5FC6
:1022C0005F4F4530510531F70895BF92CF92DF92AD
:1022D000EF92FF920F931F93CF93DF938C01C090E7
:1022E0001302D0901402E0901502F0901602809133
:1022F000170290911802A0911902B0911A02C82AEF
:10230000D92AEA2AFB2ACFE1D0E0D701C6010C2E58
:1023100004C0B695A795979587950A94D2F780FD46
:1023200004C0219790F7B12C07C0BC2EB8018C2FA8
:102330000E9470190197A9F38B2DDF91CF911F9106
:102340000F91FF90EF90DF90CF90BF900895CF93C3
:10235000DF93EC010E946511BE010E947019DF91AC
:10236000CF9108951F93CF93DF93EB019091F401E8
:10237000992321F0CB010E94A71113C0882349F0B3
:10238000CB010E946511182F682FCE010E940E11FB
:1023900004C0CB010E943911182FBE01812F0E9469
:1023A0007019DF91CF911F910895EF92FF920F93D3
:1023B0001F93CF93DF938C01892B09F46CC0F12C10
:1023C000EE24E394E8012196F8018491843740F4E7
:1023D000843008F051C0813081F0823019F15BC047
:1023E000853709F444C0A8F19CE7980F903708F0AE
:1023F00052C08F770E948C0C41C00E5F1F4FFE01B0
:10240000849190E2980F983050F48770FE2D01C0AF
:10241000FF0F8A95EAF78F2F0E94CD1514C00E94F6
:10242000DD0B2DC00E5F1F4FFE01849190E2980FCF
:10243000983060F48770FE2D01C0FF0F8A95EAF78F
:102440008F2F0E94D3150E94FC1519C00E948C0C7E
:1024500016C00E5F1F4FFE01C491CC2381F08FE99F
:102460009FE00197F1F700C00000C150F6CF0E5F6A
:102470001F4FFE01F49003C00E94DD0B8E018F2DD3
:10248000882309F49FCFEFE9FFE03197F1F700C00F
:1024900000008150F5CFDF91CF911F910F91FF90F8
:1024A000EF9008951F93CF93DF93C0911B0216E026
:1024B00080911C02C81799F0D0E01C9FF0011D9F6D
:1024C000F00D1124E35EFD4F4081518162817381E3
:1024D000848195810E94EE0F2196C770E9CFDF912C
:1024E000CF911F91089540914D0250914E026091FD
:1024F0004F027091500280915102909152020C94BF
:10250000EE0F0F931F93CF93DF938091520282952A
:102510008F7009F05DC080914F02882309F458C084
:1025200080911B0210911C0260914D0270914E022D
:10253000C0915002D091510291E06F3F09F090E0BC
:10254000292F06E0811709F443C0209721F07F3F2F
:1025500021F030E003C031E001C0322F90E030FDC7
:1025600034C0089FF001099FF00D1124DF01A35E24
:10257000BD4F11963C911197371327C03C913613EC
:1025800024C012963C91129731111FC013964D91A1
:102590005C9114974C1B5D0B483C5105B0F4809145
:1025A00052028F70806180935202EE5DFD4F8081F8
:1025B0008F70806180838DE492E00E94570FDF91DD
:1025C000CF911F910F910C94521201968770BACF40
:1025D000DF91CF911F910F9108959F92AF92BF927B
:1025E000CF92DF92EF92FF920F931F93CF93DF93DF
:1025F000CDB7DEB761970FB6F894DEBF0FBECDBF83
:102600008C0185E0F801DE011D9601900D928A95FE
:10261000E1F7F801E28090914D0260914E02209125
:102620005002309151022115310531F06F3F31F4E4
:1026300081E09F3F19F403C081E001C080E0F82FE2
:10264000F1709F2E80FD3FC1F80140815181A38030
:10265000B4808DE4C82E82E0D82EF0904F02F501B0
:10266000E21BF30BFF2009F4D9C080915202E83C31
:10267000F10508F095C0282F207F09F052C05613AD
:1026800013C0491311C0FE2CE1100EC08F70806181
:10269000809352020E947312C6010E94570F8091CC
:1026A0005202F80185834CC1AB2831F05F3F31F411
:1026B00081E04F3F19F403C081E001C080E080FD5C
:1026C00003C081E08E2502C080E090E0F82FF17019
:1026D000FF2E80FF1CC080911B0220911C0236E05F
:1026E000821709F40BC190E0389FF001399FF00D7B
:1026F0001124E35EFD4F6181561306C060814613CD
:1027000003C06281E61203C001968770E9CFFE2CF8
:10271000EE2009F415C1809152028160809352022B
:1027200054C0561306C0491304C0E11002C0F8019A
:1027300099C0C8010E94D70F882361F1EE2051F1A2
:1027400020915202822F82958F7090E0029774F050
:1027500080914D0290914E0298878F831986BB8697
:10276000AA862C87CE0107960E94570F86E0F801B3
:10277000ADE4B2E001900D928A95E1F70E948112DA
:102780000E9473120AC0561711F1C8010E94D70F98
:1027900081112CC0C8010E94570FFF24F394D0C0B0
:1027A000282F207F81F77A2DB98AA88A6E2D8989F2
:1027B0000E94DF0F8DE492E00E94570F86E0F60141
:1027C00011928A95E9F70E947312F12CB9C049134E
:1027D000DCCFE110DACFF8018583C8010E94570FE2
:1027E00086E0F60111928A95E9F7AAC0EE2091F2EF
:1027F00020915202822F82958F7090E002970CF404
:10280000B5CF80914D0290914E029A8389831B82AD
:10281000BD82AC822E83CE010196A6CFE83CF105A5
:1028200008F044C0FE2CEE2009F4B4CF561330C09B
:1028300049132EC02091520220FD21C0822F829583
:102840008F70482F50E041155105C9F0F8012583DC
:102850004F30510541F08F5F982F9295907F822FD6
:102860008F70892B8583C8010E94570F86E0F8017D
:10287000ADE4B2E001900D928A95E1F73CC086E0AC
:10288000F801ADE4B2E001900D928A95E1F758C0ED
:10289000C8010E94D70F811169CF809152028160D7
:1028A00080935202C8010E94570F4AC07A2DB98AFC
:1028B000A88A6E2D89890E94DF0F86E0F6011192A9
:1028C0008A95E9F718C0EE2009F464CFC8010E9488
:1028D000D70FF82E882309F45DCF86E0F801ADE428
:1028E000B2E001900D928A95E1F78DE492E00E94AA
:1028F000D70B0E9481120E94731222C04D875E87FF
:102900008D859E850E94A711292F22952F70223038
:1029100028F49F7039F0811105C00BC0243028F4D1
:102920009F7049F4805E883020F0C8010E94570FE4
:102930009F2CF92C05C0F8019581907F99F7F9CF6C
:102940008F2D61960FB6F894DEBF0FBECDBFDF911D
:10295000CF911F910F91FF90EF90DF90CF90BF909C
:10296000AF909F9008951F93CF93DF93CDB7DEB7BD
:102970002C970FB6F894DEBF0FBECDBF4F8358879C
:1029800069877A878B879C87CE0107960E94ED1214
:102990008823D1F09F8188852A853B85232B31F0C0
:1029A0008F3F31F481E09F3F19F403C081E001C003
:1029B00080E080FD47C04F81588569857A858B8589
:1029C0009C850E94EE0F3EC086E0FE013796DE0138
:1029D000119601900D928A95E1F7FF81E8856A854D
:1029E0007B856115710531F0EF3F31F481E0FF3FE8
:1029F00019F403C081E001C080E080FD23C0209174
:102A00001C0230E0C90101968770992740911B0292
:102A100050E084179507F1F1F983EA837D836C8395
:102A200096E0929FD001939FB00D1124A35EBD4FFD
:102A3000FE01319601900D929A95E1F780931C0268
:102A40000E94521216E080911B0290911C0289177D
:102A500071F1189FC0011124835E9D4F0E94ED12F9
:102A6000882329F1E0911B021E9FF0011124E35EEF
:102A7000FD4F4081518162817381848195810E94E3
:102A8000EE0F80911B0290E001968770992780934A
:102A90001B02D9CF0E94AF0F10921C0210921B0292
:102AA000EDE4F2E086E0DF011D928A95E9F72C96CD
:102AB0000FB6F894DEBF0FBECDBFDF91CF911F914F
:102AC0000895809153028595859585950895809107
:102AD00053028770089590915302977081E009F432
:102AE00080E00895CF939091D40292FB222720F9A1
:102AF0002817E1F0C82F892FC0FB82F98093D402F8
:102B00008091D3029091D4020E948D168091890207
:102B100080FF0CC01F92CF9385E797E09F938F9320
:102B20000E9490090F900F900F900F90CF910895F1
:102B30008091D40282FB882780F991E089270C9448
:102B4000721581E00C94721580E00C9472158091DE
:102B50007702089590917702892B809377020895E8
:102B600080959091770289238093770208958093CE
:102B70007702089510927702089590917602892B3A
:102B800080937602089580959091760289238093B0
:102B90007602089510927602089590917502892B1D
:102BA0008093750208958095909175028923809392
:102BB0007502089510927502089580915402089547
:102BC00008950C94E0150C94E1159091D40292FDB7
:102BD00008C090915402981721F0809354020C94ED
:102BE000E315089580915402882329F0109254022D
:102BF00080E00C94E3150895E0910001F09101014B
:102C0000809177028083E0910001F0910101908131
:102C100080917602892B8083E0910001F09101017F
:102C2000908180917502892B808380915402882342
:102C300081F0E0910001F09101019081892B808366
:102C400080910001909101010E940A2681110E9449
:102C5000F21580910001909101010C947B250C9458
:102C6000E0159091D40292FD10C098E0899F9001E8
:102C70001124262B209353020E947010809153023E
:102C80008595859585950C942F160C94701010924F
:102C9000530280E00C942F162091530280958223DA
:102CA00080935302982F977041F430E0482F082EFC
:102CB000000C550B2417350721F49091D40292FF94
:102CC00007C08595859585950E9491100C944716AF
:102CD000089580E090E00E94A92F21E0893E9E4F58
:102CE00009F020E0822F089582E090E00C94A12F5B
:102CF00083E090E00C94A12FCF9384E090E00E94B9
:102D0000A12FC82F82E290E00E94A12F2C2F30E04B
:102D1000A901582BCA01CF910895CF93C92F682FCD
:102D200084E090E00E94AF2F6C2F82E290E0CF9180
:102D30000C94AF2FAB01BC018FE090E00C94C12F3D
:102D4000AB01BC0183E190E00C94C12F60E070E026
:102D5000CB010C94A01660E070E0CB010E949A16A3
:102D60000C94A61669EE7EEF80E090E00E94CD2FD5
:102D700060E082E090E00E94AF2F60E083E090E0AE
:102D80000E94AF2F1092170210921802109219028F
:102D900010921A0260E084E090E00E94AF2F60E0A1
:102DA00082E290E00E94AF2F60E085E090E00E9418
:102DB000AF2F60E086E090E00E94AF2F6FEF87E0DA
:102DC00090E00E94AF2F40E050E0BA0188E090E030
:102DD0000E94C12F60E08DE090E00E94AF2F40E0A4
:102DE00050E0BA0188E190E00E94C12F60E087E1E5
:102DF00090E00E94AF2F40E050E0BA018CE190E0FB
:102E00000E94C12F60E070E080E290E00E94CD2F30
:102E100040E050E0BA0188E190E00E94C12F0C949C
:102E2000AB160C94B216682F8EE090E00C94AF2F86
:102E30000E947F27609385027093860280938702A9
:102E40009093880260938102709382028093830240
:102E500090938402089585B7806885BF85B78068A0
:102E600085BF089581E008950C94321708950C945D
:102E700036170C9436170C9439170C9436170C949B
:102E80003D170C9436170E942B178EE999E20E9489
:102E9000D1270E9441170C943F170E9437170C94BA
:102EA00036170E946A270E94811B0C943B17CF9310
:102EB000C82F8091890282FF1EC080FF04C081E973
:102EC00097E00E94F7088091890280FF0CC01F9252
:102ED000CF938CE897E09F938F930E9490090F9077
:102EE0000F900F900F908091890280FF04C08AE8B4
:102EF00097E00E94F7088C2FCF910C94840B6F926F
:102F00007F928F929F92AF92BF92CF92DF92EF9279
:102F1000FF920F931F93CF93DF93CDB7DEB72A971E
:102F20000FB6F894DEBF0FBECDBF0E94A31B811168
:102F30000E94181739E7832E32E0932E00E010E04C
:102F4000C02E802F0E94711A5C01F4016190719073
:102F50004F016826792661147104B1F40F5F1F4F89
:102F60000430110569F78FEF89838A831B820E94E1
:102F700073278160782F9D838C8349815A816B816F
:102F80008D810E948D0B3AC08091890281FD0E9443
:102F90007A1AD12CEE24E394F12CC3018E219F21C7
:102FA000892B29F10E9434178823A9F0DE82CF8271
:102FB000AE20BF2081E0AB2809F480E088870E9422
:102FC00073278160782F9A8789874E815F81688512
:102FD0008A850E948D0B000F111FF801E758FD4FE5
:102FE00080819181E826F926F182E08207C0D3949E
:102FF000EE0CFF1CFBE0DF12D0CFB0CF0E944321CC
:103000000E946C25909178028917D1F00E946C255E
:10301000809378022A960FB6F894DEBF0FBECDBF1C
:10302000DF91CF911F910F91FF90EF90DF90CF90A4
:10303000BF90AF909F908F907F906F900C94571798
:103040002A960FB6F894DEBF0FBECDBFDF91CF91A9
:103050001F910F91FF90EF90DF90CF90BF90AF90B6
:103060009F908F907F906F90089580E090E00895FA
:1030700008952CE2829FC0011124FC012BE0729F75
:10308000E00DF11D1124E60FF11DEE0FFF1FE658B4
:10309000FE4F859194910895880F991FFC01EC557E
:1030A000F84F859194910895CF93DF930E947519FD
:1030B000EC01811520E5920708F03FC0811540E43E
:1030C000940708F0D2C0883E910500F5803E910536
:1030D00008F002C1883A910570F4853A910508F02C
:1030E000A6C08130910509F49FC008F4F2C004978E
:1030F00008F0F2C0EEC08F3B910508F4A1C0803CFF
:10310000910508F4E6C0805C9109A5C0811550E2E4
:10311000950760F4C11581E0D80708F0DDC0CD3E09
:10312000D10508F4D6C0CE019065D7C0811520E343
:10313000920708F093C09F708EC0811545E59407F3
:1031400008F046C0811554E5950708F0A6C0C115E2
:1031500082E5D80718F5C11521E5D20708F088C027
:10316000CE01F4E096958795FA95E1F7282F237024
:103170003C2F337081E090E002C0880F991F3A9590
:10318000E2F79C68922B2C2F2F702695269540E213
:10319000249F90011124822B932B9FC09E012370AA
:1031A00033279C2F96959695C115D34508F065C099
:1031B00041E050E002C0440F551F2A95E2F780E23B
:1031C000989F90011124CA01822B932B9C6885C083
:1031D000811559E5950798F4C11588E5D80708F0D9
:1031E00061C0C11526E5D20708F073C08C2F0E947C
:1031F000091A8F7190E0982F882790626EC0811510
:103200004AE5940708F453C090568115904208F09F
:1032100060C08D2F8F710E94091A9E013327306282
:103220008F71A901582B53C081E090E056C0855A98
:10323000C82FD0E0CC58DE4F888190E090644DC01C
:10324000885AC82FD0E0CC0FDD1FCA5BDE4F8881C3
:103250009981946442C00E944C183FC09927D3FFC3
:1032600002C0986C3AC0906C38C09F70906A35C0AC
:103270009C2F8827816F906A30C041E050E002C0E7
:10328000440F551F2A95E2F780E2989F9001112480
:10329000CA01822B932B9A6820C0982F8827846FAD
:1032A000906A1BC09C2F8827806F906A16C08F7011
:1032B0000E94091A9E0194E0369527959A95E1F7A8
:1032C0002F7030E0322F22273069A901482BCA0124
:1032D00004C080E090E001C0CE01DF91CF9108955D
:1032E0000E9439180E94541808958238910569F196
:1032F000B0F48133910509F46DC048F48932910529
:1033000009F463C08A32910509F469C008958533D0
:10331000910509F455C089339105B9F00895833EAC
:10332000910569F138F4803E9105B1F0823E910536
:1033300009F10895863E9105A9F1873E9105B9F1FD
:10334000843E910509F064C023C02091D30220FD82
:103350004FC021FD4DC008958091D30280FD44C02F
:103360008091D40280FF44C08091D30284FD42C08A
:1033700083EE4DC08091D30282FF38C0F5CF80919B
:10338000D30282FD33C08091D40280FD31C0ECCFE6
:103390008091D40281FF32C08091D30284FD2AC083
:1033A00087EE35C08091D30283FF26C0F5CF809190
:1033B000D30283FD21C08091D40281FD1FC0ECCFD8
:1033C0008091D30285FD1CC01DC08091D30285FD74
:1033D00019C016C08091D30286FD16C017C0809117
:1033E000D30286FD13C010C089E311C082EE0FC066
:1033F00080EE0DC080E00BC086EE09C084EE07C0F1
:1034000089E205C085E303C08AE201C081E390E060
:1034100008959091D30292FF0DC0282F2871283073
:1034200019F4877F846006C0282F2471243011F49A
:103430008B7F886093FF0DC0282F2871283119F4E5
:10344000877E846106C0282F2471243111F48B7E7D
:1034500088612091D40220FF0DC0382F3871383098
:1034600019F4877F816006C0382F3171313011F433
:103470008E7F886021FF0DC0282F2871283119F414
:10348000877E816106C0282F2171213111F48E7E43
:10349000886194FD877E089508950E9469168111C0
:1034A00002C00E9411170E947416809389020E9424
:1034B0007C169093D4028093D3020E944C1A0E94EF
:1034C0007816682F70E080E090E00E941010609104
:1034D00013027091140280911502909116020C94BF
:1034E0004810E82FF0E0EE0FFF1FE352FD4F808100
:1034F00091810895CF92DF92EF92FF920F931F93E5
:10350000CF93DF9384EB97E00E94F7088DEDE82ED0
:1035100082E0F82EC0E0D0E09FEAC92E97E0D92ED5
:1035200006EA17E0DF93CF93DF92CF920E949009D3
:103530008CEA97E00E94F708F701819191917F0151
:103540000E94690B9F938F931F930F930E94900982
:1035500084EA97E00E94F70821968DB79EB70896F7
:103560000FB6F8949EBF0FBE8DBFC430D105D1F603
:10357000DF91CF911F910F91FF90EF90DF90CF904F
:10358000089580EA8A95F1F7089500C008950C9493
:10359000C11A08950C94C91A0C94CA1A0C94C91A29
:1035A0000C94CE1AF894E82FE295EF70F0E031A178
:1035B000282F2F7081E090E001C0880F2A95EAF74C
:1035C000982F9095932391A392A1892B82A378940D
:1035D00008950F931F93CF93DF93C2E8D1E08991B1
:1035E0008F3F11F00E94D21A81E0C638D807B9F790
:1035F000C7E7D1E002E811E089918F3F11F00E9406
:10360000D21A0C171D07C1F7DF91CF911F910F91AF
:103610000895AF92BF92CF92DF92EF92FF920F93F5
:103620001F93CF93DF938C01C62FD0E0CE018E572E
:103630009E4F6C01DC019C919F3F09F457C0B62E50
:10364000F894E92FE295EF70F0E081A19F7021E0FE
:1036500030E001C0220F9A95EAF7822B81A382A164
:103660002095282322A378940E94C51AE7E7F1E069
:1036700020E030E0E12CF12C41E050E081918F3FDF
:10368000C1F0A82FA295AF70B0E090966C9170E059
:103690008F70DB0102C0B595A7958A95E2F7A0FD72
:1036A00008C0CA01022E02C0880F991F0A94E2F7CF
:1036B00002C080E090E0E82AF92A2F5F3F4F2B30CC
:1036C0003105E1F6F60180818F3F11F00E94D21A98
:1036D00061E0E114F10409F460E08B2D0E94C71A47
:1036E000CC0FDD1FC00FD11FF982E882DF91CF918F
:1036F0001F910F91FF90EF90DF90CF90BF90AF9010
:1037000008950E94E91AA5EDB2E011961C921E924E
:10371000EDEDF2E01182108213961C921E92129728
:103720001382128215961C921E921497158214828F
:1037300017961C921E9216971782168284E00E949A
:10374000EE1B0C94550AFF920F931F93CF93DF93B8
:10375000CDB7DEB728970FB6F894DEBF0FBECDBF4A
:103760008E010F5F1F4F88E0F80111928A95E9F7EB
:10377000F12C6F2DC8010E94091BF394F4E0FF1295
:10378000F8CF48E050E0B80185ED92E00E94942F18
:10379000FF24F394009709F4F12C892B41F088E081
:1037A000F801A5EDB2E001900D928A95E1F72F2D79
:1037B00044E06DED72E085ED92E00E94EF1B0E9407
:1037C0005D0A8F2D28960FB6F894DEBF0FBECDBFD1
:1037D000DF91CF911F910F91FF9008950895FF926F
:1037E0000F931F93CF93DF93F82E092F162FD72F08
:1037F000C42F222349F081E080938C020E9473271A
:1038000090938B0280938A0280918C028823D9F056
:1038100080918A0290918B020E948B27059798F0E5
:10382000EF2DF02FA12FBD2F80E090E04C2F50E026
:103830008417950734F4219131912D933D9301968E
:10384000F7CF10928C02DF91CF911F910F91FF90D3
:1038500008950E94EA260E94012A0E941A2A0E94C4
:10386000302A0E944D17FBCF809102011F928F9347
:10387000809103011F928F93809106011F928F9375
:10388000809107011F928F93809108011F928F935F
:10389000809109011F928F938BEC97E09F938F93F8
:1038A0000E9490098DB79EB70E960FB6F8949EBFF2
:1038B0000FBE8DBF0895883220F58E3108F068C0A4
:1038C0008B3091F1C0F4873009F0BEC08EE1809357
:1038D000090182E3809308018AE08093070184E173
:1038E0008093060188E08093030188E280930201BF
:1038F0008DE299E0C6C0833109F443C0843169F197
:10390000A3C08F3409F49EC028F4893231F1883382
:1039100059F09AC0813531F008F4D4C0823509F4E9
:10392000A7C092C08FEFA5C08FE499E00E94F7086E
:103930000E94341C1F9281E08F931F9285E08F9329
:1039400088E498E09F938F930E9490090F900F90C6
:103950000F900F900F900F9096C08CE499E00E940A
:10396000F70880919102882309F4AAC0109291026D
:103970001092900210928F0210928E0210928D027D
:10398000B1C08EE399E00E94F7080E94341C7BC00E
:103990008D5180939102833031F170F48130D1F0F8
:1039A000823009F03FC088E091E0909390028093CC
:1039B0008F0283E991E01FC0853059F108F186300C
:1039C00089F582E091E09093900280938F028EECD3
:1039D00091E011C089E091E09093900280938F0272
:1039E0008AE891E008C087E091E09093900280938C
:1039F0008F028FE991E090938E0280938D0218C020
:103A000086E091E09093900280938F028CEA91E09F
:103A1000F2CF83E091E09093900280938F028BEB42
:103A200091E0E9CF109291028BE399E00E94F708B0
:103A300080919102882309F455C01F928F9387E3E8
:103A400099E00DC08AE015C08AE299E01AC097FF9C
:103A500047C0108280811F928F9384E299E09F93E8
:103A60008F930E9490090F900F900F900F900BC0B2
:103A700081E0E0918F02F0919002309729F581E288
:103A800099E00E94F70820919102222359F1809138
:103A90008D0290918E02009711F486E891E09F9339
:103AA0008F931F922F9388E199E09F938F930E94A9
:103AB00090090F900F900F900F900F900F9016C0DD
:103AC00080E0089586EFD5CF2081082E000C990B59
:103AD000820F911D8F3F910509F00CF4B8CF8FEF45
:103AE0008083B8CF84E199E00E94F70881E00895CF
:103AF000CF93C82F1F928F9385E699E09F938F9362
:103B00000E94900981E090E0A0E0B0E0BC01CD010E
:103B100004C0660F771F881F991FCA95D2F70E94AD
:103B200010100F900F900F900F90CF910C94AF0F3B
:103B3000DF92EF92FF920F931F93CF93DF93482F63
:103B400050E0FA013597EF33F10508F03FC1EC582A
:103B5000FF4F0C947A2F0E9478161F928F9387EB59
:103B60009DE09F938F930E9490090E94741683FB9F
:103B7000992790F91F929F9382FB992790F91F92A2
:103B80009F9381FB992790F91F929F93982F917093
:103B90001F929F931F928F938EE69DE09F938F932A
:103BA0000E9490090E947C1687FB222720F91F9211
:103BB0002F9386FB222720F91F922F9385FB222724
:103BC00020F91F922F9384FB222720F91F922F9315
:103BD00083FB222720F91F922F9382FB222720F9B3
:103BE0001F922F9391FB222720F91F922F93292FA9
:103BF00021701F922F9381FB222720F91F922F9370
:103C0000282F21701F922F939F938F9389E89CE018
:103C10009F938F930E9490098DB79EB788960FB699
:103C2000F8949EBF0FBE8DBF06C087E79EE00E943E
:103C3000F7080E941117C1E0CEC087ED9AE074C06A
:103C400080918902817F8E7F8093890280EB9AE048
:103C50000E94F70883E79EE00E94F70881E08093C6
:103C60009202E9CF87E59EE00E94F7080E94600A71
:103C7000E2CF80918902C82FC095C170C0FB80F946
:103C800080938902CC2319F08BE49EE091C08EE3EF
:103C90009EE00E94F70880918902897F877F809348
:103CA0008902C9CF9091890291FBCC27C0F981E0AC
:103CB000C827892FC0FB81F980938902CC2319F092
:103CC00081E39EE027C083E29EE02EC090918902AE
:103CD00092FBCC27C0F981E0C827892FC0FB82F96D
:103CE00080938902CC2319F084E19EE013C084E024
:103CF0009EE01AC09091890293FBCC27C0F981E025
:103D0000C827892FC0FB83F980938902CC2351F007
:103D100088EF9DE00E94F70880918902816080937E
:103D2000890259C08BEE9DE00E94F70884CF8EEE89
:103D300099E0FACF0E947F27062FF72EE82ED92E82
:103D4000C091D302C7FBCC27C0F91091D202D09109
:103D500014010E946C25DF92EF92FF920F931F9245
:103D6000CF931F921F931F92DF931F928F938AE628
:103D700099E09F938F930E9490098DB79EB70E96FE
:103D80000FB6F8949EBF0FBE8DBF55CF0E94AF0FE8
:103D90009091D30297FBCC27C0F981E0C827892FE7
:103DA000C0FB87F98093D302CC2329F081EE9DE0FC
:103DB0000E94F70810C086ED9DE0B6CF895303C07E
:103DC0008D5101C080E00E94781D35CF84ED9DE0CB
:103DD0000E94F708C0E08C2FDF91CF911F910F91C7
:103DE000FF90EF90DF90089580E008950C94F41E0A
:103DF000CF93C82F80919202813071F040F08230D1
:103E000009F045C08C2F0E945B1C81E046C00E94D7
:103E1000A7158232F1F504C00E94A715823261F421
:103E20008C2F0E94F61E811104C08C2F0E94981DB9
:103E30002CC081E090E029C08C2F0E94F41E8111DB
:103E400023C0C431C9F058F4CB3069F0C031B9F4A3
:103E500082E08093920288E30E945B1C15C0C93205
:103E600059F0C83361F480EB9AE00E94F70881E6CC
:103E700099E00E94F70808C0109292020CC08FE5EA
:103E800099E00E94F70807C081E0817006C0109297
:103E9000920280E002C080E0F8CFCF910895809137
:103EA000990280FF0BC06091070185E0689FB00117
:103EB000112475956795759567952BC081FF09C08D
:103EC0006091070185E0689FB001112475956795A1
:103ED00020C082FF07C06091070185E0689FB001A4
:103EE000112417C0909198029923D1F06091060196
:103EF000961788F72091070185E0289F90011124EB
:103F0000929FA001939F500D112470E0CA010E945E
:103F1000662F6038710540F46115710519F406C00B
:103F200065E070E0862F08958FE7089581E0089599
:103F30008091990280FF08C06091030170E075953F
:103F400067957595679521C081FF06C06091030153
:103F500070E07595679519C082FF04C060910301F8
:103F600070E010C090919702992399F0609102013E
:103F70009617A0F780910301899FC001112470E07A
:103F80000E94662F6038710540F46115710519F4BF
:103F900006C061E070E0862F08958FE7089581E004
:103FA00008958D3E21F40E944F1F819504C08E3EDE
:103FB00029F40E944F1F80939D0208958F3E21F4A3
:103FC0000E944F1F819504C0803F29F40E944F1F1B
:103FD00080939C020895893F19F40E94981F05C0A0
:103FE0008A3F31F40E94981F819580939E02089524
:103FF0008B3F21F40E94981F819504C08C3F29F4C7
:104000000E94981F80939F0208959FE0980F983018
:1040100078F421E030E0A90102C0440F551F9A95C1
:10402000E2F7CA0190919B02892B80939B0208952D
:104030008D3F21F48091990281600BC08E3F21F465
:1040400080919902826005C08F3F29F48091990286
:1040500084608093990208958D3E39F490919D0279
:1040600097FF35C010929D0259C08E3E29F4909161
:104070009D021916BCF32BC090919C028F3E29F42F
:1040800097FF25C010929C0249C0803F19F4191671
:10409000CCF31DC090919E02893F29F41916BCF4FF
:1040A00010929E023BC08A3F19F497FF10C0F8CFD0
:1040B0008B3F39F490919F0297FF09C010929F02A5
:1040C0002DC08C3F21F490919F021916BCF39FE004
:1040D000980F983080F421E030E0A90102C0440F2D
:1040E000551F9A95E2F7CA01809590919B0289230A
:1040F00080939B0213C08D3F21F4809199028E7FA3
:104100000BC08E3F21F4809199028D7F05C08F3FB7
:1041100029F4809199028B7F8093990280919C026F
:10412000811106C080919D02811102C010929802F7
:1041300080919E02811106C080919F02811102C070
:104140001092970208958091890283FF7EC08FEAC2
:104150009EE00E94F70880919B021F928F938AEA4B
:104160009EE09F938F930E94900988EA9EE00E94B0
:10417000F70880919C02282F082E000C330B3F93E8
:104180008F9385EA9EE09F938F930E94900983EA24
:104190009EE00E94F70880919D02282F082E000CB7
:1041A000330B3F938F9380EA9EE09F938F930E94FF
:1041B00090098EE99EE00E94F70880919E02282FC8
:1041C000082E000C330B3F938F938BE99EE09F9357
:1041D0008F930E94900989E99EE00E94F7088091E0
:1041E0009F02282F082E000C330B3F938F9386E9F4
:1041F0009EE09F938F930E94900983E99EE00E9426
:10420000F708809198021F928F9380E99EE09F9318
:104210008F930E9490098EE89EE00E94F70880919B
:1042200099021F928F938BE89EE09F938F930E9439
:10423000900988E89EE00E94F7088DB79EB74C96DB
:104240000FB6F8949EBF0FBE8DBF0E9473272091BA
:104250009C02211104C020919D02222321F0909301
:1042600096028093950220919E02211104C0209114
:104270009F02222321F090939402809393028AE973
:1042800092E00C94D025EF92FF920F931F93CF935F
:10429000DF9300D000D000D0CDB7DEB786E0EAE9EA
:1042A000F2E0DE01119601900D928A95E1F7E0901F
:1042B0009C02F0909D0200919E0210919F0210922C
:1042C0009C0210929D0210929E0210929F02E11099
:1042D00003C0FF2009F45DC0809195029091960281
:1042E0000E948B27AC0190919802992339F020917C
:1042F000080130E02417350758F04BC02091090120
:104300008AE0289F900111242417350718F041C036
:104310009F3F19F09F5F90939802EE2061F00E94FA
:104320004F1F1E1414F09FEF01C091E0989F902D35
:10433000112490939C02FF2061F00E944F1F1F14D4
:1043400014F09FEF01C091E0989F902D112490935D
:104350009D0230919C023323E1F020919D022223A3
:10436000C1F045EB3403C0011124992319F0909357
:104370009C0203C081E080939C0235EB2303C001C3
:104380001124992319F090939D0203C081E080933A
:104390009D02011103C0112309F45DC080919302B5
:1043A000909194020E948B27AC01909197029923DF
:1043B00039F02091040130E02417350758F04BC044
:1043C000209105018AE0289F9001112424173507C8
:1043D00018F041C09F3F19F09F5F90939702002310
:1043E00061F00E94981F101614F09FEF01C091E039
:1043F000989F902D112490939E02112361F00E94AA
:10440000981F111614F09FEF01C091E0989F902D16
:10441000112490939F0230919E023323E1F020916A
:104420009F022223C1F045EB3403C00111249923DC
:1044300019F090939E0203C081E080939E0235EBB9
:104440002303C0011124992319F090939F0203C004
:1044500081E080939F0280919C0281110BC080912A
:104460009D02811107C080919E02811103C080913D
:104470009F0281110E94A320EB82FC820D831E8388
:1044800086E0FE013196AAE9B2E001900D928A958C
:10449000E1F726960FB6F894DEBF0FBECDBFDF91D1
:1044A000CF911F910F91FF90EF900895EAE9F2E00C
:1044B00086E0DF011D928A95E9F71092980210922A
:1044C0009702109299020895CF93DF9397FF0DC042
:1044D000FB012281222349F0EC010E94B822CE0187
:1044E0009F770E940F230E94F12281E0DF91CF91FC
:1044F00008958CE090E00E94A12F90E0A0E0B0E051
:104500008093E5029093E602A093E702B093E8025D
:104510008091890280FF0EC08091E5021F928F93E7
:1045200081EF9EE09F938F930E9490090F900F90D0
:104530000F900F9008956091E5028CE090E00C944C
:10454000AF2F8093E5020E949B228091890280FF19
:104550000EC08091E5021F928F9382ED9EE09F93A3
:104560008F930E9490090F900F900F900F900895D5
:104570000E947825869581708093EA029091E502E9
:10458000913029F4882319F089E30E940B0D0E94D1
:10459000A7158093E9020E94BA158091E502813047
:1045A00071F048F0823081F08430A1F486EE0E94F0
:1045B0000B0D88E10DC082EE0E94DD0B0BC088E17F
:1045C00093E00E94F90906C082EE0E94DD0B87E5A8
:1045D0000E940B0D8FE39CE90197F1F700C00000EA
:1045E00008958091E502813039F078F0823069F0E9
:1045F000843089F488E20DC08CE20E940B0D80911A
:10460000EA02882341F089E304C082EE0E948C0C08
:1046100002C00E940B0D8091E9020C94B7150F9314
:104620001F93CF93DF938C01CCE0D0E0C8010C2E18
:1046300002C0969587950A94E2F78F700E944D0B01
:104640002497CC3F8FEFD80789F7DF91CF911F9147
:104650000F9108950F931F93CF93DF93EC018B017C
:10466000FB018281882351F00E94A715CE01825E52
:104670009C458530910510F40E94A122B801CE011D
:10468000DF91CF911F910F910C9464220F931F9390
:10469000CF93DF93C42FD22FFC0182818823C9F0EE
:1046A0004093A2020E9473279093A1028093A002DC
:1046B00080E28C0F883008F057C0C77081E001C0DD
:1046C000880FCA95EAF7DF91CF911F910F910C9453
:1046D000140D8091A202481330C08091A0029091E5
:1046E000A1020E948B27883C910538F510E21D0F2E
:1046F000CD17B9F080E28C0F883040F4C77081E0AC
:1047000001C0880FCA95EAF70E941B0D183028F5E2
:1047100081E09D2F977001C0880F9A95EAF70E945B
:10472000140D802F0E940B0D1830F0F4D77081E02B
:1047300001C0880FDA95EAF70AC080E28C0F883052
:1047400098F4C77081E001C0880FCA95EAF7DF913D
:10475000CF911F910F910C941B0D802FDF91CF9162
:104760001F910F910C940B0DDF91CF911F910F9121
:1047700008950F939C01CB01243F4CE5340731F1A0
:1047800088F4293DFCE53F07D9F02A3D4CE5340784
:1047900079F1283D3C45A9F506E221EE41EE68EDB0
:1047A0007CE52BC0263FFCE53F07E1F0A8F0273F62
:1047B0003C4539F507E225EE46EE67EF7CE51DC086
:1047C00007E225EE45EE69ED7CE517C006E221EE35
:1047D00040EE64EF7CE511C007E225EE44EE65EFA4
:1047E0007CE50BC006E221EE42EE66EF7CE505C0FB
:1047F00008E221E045EE6AED7CE50E94462380E078
:1048000008C0FC018281882319F01092A20201C025
:1048100081E00F910895CF93DF93EC01FB0182813A
:10482000882309F41FC1C230FCE5DF0708F41BC16F
:10483000C6319CE5D90738F09E012B5F3C452930F5
:10484000310508F010C10E947C169093D402809329
:10485000D302C031ECE5DE0709F4C3C008F041C063
:10486000C8308CE5D80709F49AC0F0F4C430ECE500
:10487000DE0709F487C068F4C2308CE5D80709F474
:1048800077C0C330DC4509F0E3C08091D302826079
:1048900076C0C630ECE5DE0709F46EC008F07BC0D8
:1048A0008091D30288606BC0CC308CE5D80709F4C6
:1048B00085C068F4CA30ECE5DE0709F474C008F07E
:1048C00079C00E94AF0F8091D302806858C0CE306B
:1048D0008CE5D80709F476C008F07FC08091D30238
:1048E0008BC0CC3FECE5DE0709F44FC018F5C331AF
:1048F0008CE5D80709F47DC078F4C131ECE5DE071A
:1049000009F473C0C231DC4509F0A2C00E94AF0FA8
:104910008091D3028F7733C0C5318CE5D80709F475
:1049200072C008F486C0CB3FDC4509F091C080918D
:10493000D4023EC0C115FDE5DF0709F45FC058F49D
:10494000CE3F9CE5D90709F444C008F43FC08091EC
:10495000D40282602DC0C230FDE5DF0709F475C0C6
:1049600008F45DC0C330DD4509F072C080E06EC060
:104970008091D302816003C08091D30280618093D3
:10498000D30266C08091D30211C08091D4028260AC
:104990008093D4025DC08091D3028062F0CF809179
:1049A000D3028064ECCF8091D30288608460E7CF2B
:1049B0008160EECF8091D3028E7FE1CF8091D302D0
:1049C0008D7FDDCF8091D302877FD9CF8091D402B4
:1049D00018C08091D4028D7FDBCF8091D3028F7E6F
:1049E000CECF8091D3028F7DCACF8091D3028F7BAF
:1049F000C6CF8091D302877F8B7FC1CF8091D402B5
:104A00008D7F8E7FC5CF8091D30282FB222720F934
:104A100091E0922790FB82F990FB83F9B0CF8091CF
:104A2000D402982F909591708E7F892B90FB81F9FD
:104A3000AFCF0E94AF0F8091D30287FB222720F9CE
:104A400091E0922790FB87F99ACF81E00E9413179B
:104A50008091D3029091D4020E948D160E94AF0FD4
:104A600080E001C081E0DF91CF910895CF93DF9383
:104A700086319C4541F5EB010E94A715982F8A814C
:104A80002091000130910101882379F09A7A81E028
:104A900009F480E08093A302911102C069E201C091
:104AA00065E3C9010E94C2260AC08091A302811158
:104AB00002C069E201C065E3C9010E94CD260E94DF
:104AC000FC1580E001C081E0DF91CF9108959093C3
:104AD000A9028093A8020895E091A802F091A9028A
:104AE000309721F00190F081E02D099480E0089545
:104AF0000E946C250895EF92FF921F93CF93DF934E
:104B0000FC01A091A802B091A902109709F442C03B
:104B100080911401882341F08091D30287FF04C063
:104B20008081818385E08083EF011296ED91FC9175
:104B30001397CE0109958091890282FF2BC080FFD7
:104B400004C089E19FE00E94F70818E083E1E82EA5
:104B50008FE0F82E8091890280FF0BC088811F9220
:104B60008F93FF92EF920E9490090F900F900F90F9
:104B70000F90115021961111EDCF8091890280FF85
:104B800009C081E19FE0DF91CF911F91FF90EF90ED
:104B90000C94F708DF91CF911F91FF90EF9008954B
:104BA000E091A802F091A902309739F022E0DC01EF
:104BB0002C930480F581E02D099408952091A6029C
:104BC0003091A7022817390771F09093A7028093BC
:104BD000A602E091A802F091A902309721F0068088
:104BE000F781E02D099408952091A4023091A50247
:104BF0002817390771F09093A5028093A402E091E1
:104C0000A802F091A902309721F00084F185E02DEF
:104C100009940895FC01329680911401882331F0A3
:104C20008091D30287FF02C09EE101C096E080E040
:104C3000915028F021912223D9F38F5FF9CF089565
:104C4000662351F1209114012223E9F02091D3022F
:104C500027FF19C0462F4695469546954E31E0F4FC
:104C6000677021E030E002C0220F331F6A95E2F73F
:104C7000FC01E40FF11D828190E02823392381E0BB
:104C8000232B69F409C0FC01329608962191621722
:104C900029F0E817F907D1F780E0089581E0089539
:104CA0009C01FC0132969FEF80E04191461789F00C
:104CB0009F3F19F4411101C0982F8F5F8630A9F7EB
:104CC0009F3F39F0F901E90FF11D97FDFA956283D5
:104CD000089508959C012A5F3F4FFC0142814613CD
:104CE00001C01282019682179307B9F70895262F03
:104CF0002695269526952E3170F4FC01E20FF11DC4
:104D0000677021E030E001C0220F6A95EAF78281E6
:104D1000282B228308958091890280FF0CC01F9266
:104D20006F9389E49FE09F938F930E9490090F9067
:104D30000F900F900F900895262F26952695269573
:104D40002E3178F4FC01E20FF11D677021E030E0B4
:104D500001C0220F6A95EAF72095828128232283D9
:104D600008958091890280FF0CC01F926F938BE29F
:104D70009FE09F938F930E9490090F900F900F9048
:104D80000F90089520911401222329F02091D3023D
:104D900027FD0C9477260C94502620911401222391
:104DA00029F02091D30227FD0C949C260C946A26AE
:104DB00020911401FC013296222331F08091D3021C
:104DC00087FF02C08EE101C086E0DF011D928A9557
:104DD000E9F70895089508950C94EB260C94EB26BA
:104DE000CF930E94EE260E94A31B0E94EC26C0E0F7
:104DF0008C2F0E94711A892B29F4CF5FC430C1F720
:104E000080E001C081E0CF9108950C94EB260C94D2
:104E100005278091F302843049F10E94072780E042
:104E20000E94840B1092AA0220E488E190E00FB661
:104E3000F894A895809360000FBE2093600083B71C
:104E4000817F846083BF83B7816083BF78948895B6
:104E500083B78E7F83BF0FB6F894A89580916000CA
:104E6000886180936000109260000FBE08950C94DA
:104E7000EB260E94AF0F0E946C250E94840B0C94BD
:104E800037271F920F920FB60F9211248F939F9383
:104E9000AF93BF938091AA02811113C08091EB025E
:104EA0009091EC02A091ED02B091EE024196A11D0D
:104EB000B11D8093EB029093EC02A093ED02B093AE
:104EC000EE02BF91AF919F918F910F900FBE0F9007
:104ED0001F90189582E084BD93E095BD9AEF97BD31
:104EE00080936E0008952FB7F8948091EB02909113
:104EF000EC02A091ED02B091EE022FBF08952FB702
:104F0000F8946091EB027091EC028091ED02909127
:104F1000EE022FBF08959C014FB7F8948091EB02E9
:104F20009091EC02A091ED02B091EE024FBF821B76
:104F3000930B089578941F920F920FB60F9211243D
:104F40008F939F93AF93BF938091EB029091EC026C
:104F5000A091ED02B091EE020196A11DB11D8093CA
:104F6000EB029093EC02A093ED02B093EE02BF919E
:104F7000AF919F918F910F900FBE0F901F9018953A
:104F800087E797E790930108809300089AE088E10B
:104F90000FB6F894A895809360000FBE90936000C0
:104FA000FFCF9093F3018093F20108958091D10295
:104FB00008959091F302943031F58093AD0270938F
:104FC000AF026093AE0282E08093E9008FEF909190
:104FD000E800815095FD06C095ED9A95F1F7000027
:104FE0008111F5CF8091E80085FF0DC040E050E0D1
:104FF00063E070E08DEA92E00E94BD2A8091E800B3
:105000008E778093E8000895BC0184E00C94D92742
:10501000BC0183E00C94D92722E02093E9002FEF14
:105020003091E800215035FD06C035ED3A95F1F795
:1050300000002111F5CF2091E80025FF0BC040E0D2
:1050400050E066E070E00E94BD2A8091E8008E7713
:105050008093E8000895CF93DF93209114012223D9
:1050600039F02091D30227FF03C060E222E002C0A2
:1050700068E021E02093E9002FEF3091E800215013
:1050800035FD06C035ED3A95F1F700002111F5CF59
:105090002091E80025FF1DC0EC01809114018111D1
:1050A00005C040E050E068E070E003C070E040E020
:1050B00050E0CE010E94BD2A8091E8008E77809357
:1050C000E80080E2FE01A1EBB2E001900D928A952A
:1050D000E1F7DF91CF9108958CE89FE00E94F708F7
:1050E0008091F202811109C00E944E2C0E94AB2CCB
:1050F0008091E20084608093E200089588E89FE058
:105100000E94F7081092F202089584E89FE00C9440
:10511000F70880E89FE00C94F7088CE79FE00C9478
:10512000F7082091AC022F5F822F62E30E945A2F72
:10513000992319F02093AC0208951092AC0280914B
:10514000B002882371F18091F302843041F580919F
:10515000E9008F702091EC00922F917020FD90E873
:10516000892B93E09093E9009091EB0090FF14C09D
:105170009091EE0097FF10C09091E80095FF03C05A
:105180001092F100F9CF9091E80090FF05C0909146
:10519000E8009E779093E8008F708093E90010926A
:1051A000B002089542E061EC81E00E94C72B42E228
:1051B00061EC82E00E94C72B42E261EC83E00C9438
:1051C000C72B8091F502833009F460C030F4813040
:1051D00071F0823009F499C008958A3009F485C0CD
:1051E0008B3009F46BC0893009F0A7C020C08091D2
:1051F000F402813A09F0A1C08091E800877F809392
:10520000E8008091F8029091F902892B21F460E284
:1052100081EB92E003C060E080E090E070E00E94EB
:10522000082B8091E8008B778093E80008958091A7
:10523000F402813209F081C08091F8029091F90264
:10524000029708F07AC08091E800877F8093E80099
:105250008091E80082FD05C08091F3028111F8CFB2
:105260006CC02091F3008091F20090E0922B0297A5
:1052700029F48091F1008B7F813021F48091F1003D
:105280008093D1028091E8008B7753C08091F40223
:10529000813A09F052C08091F8029091F902892B6D
:1052A00009F04BC08091E800877F8093E8008091EF
:1052B000E80080FFFCCF8091140136C08091F40299
:1052C0008132D9F58091F8029091F902892BA9F5E4
:1052D0008091E800877F8093E8000E94FC2B8091FA
:1052E000F602809314010C94AF0F8091F402813286
:1052F00021F58091E800877F8093E8000E94FC2BD5
:105300008091F7028093D20208958091F402813A4D
:10531000A1F48091E800877F8093E8008091E80005
:1053200080FFFCCF8091D2028093F1008091E80051
:105330008E778093E8000C94FC2B08959FB7F89427
:105340001092B0029FBF9091F302943009F057C0C1
:105350009091E9009F703091EC00232F217030FD77
:1053600020E8922B23E02093E9002091EB0020FF1E
:1053700043C02091EE0027FF3FC02091AB022223C3
:1053800021F02091E80025FF37C01092AB0226E003
:105390003091E80035FD15C03091F302343061F5ED
:1053A0003091EB0035FD28C0215021F481E080933D
:1053B000AB0222C0EFE9FFE03197F1F700C0000037
:1053C000E7CF8093F1008091E80085FD0AC08091CD
:1053D000E80080FFFCCF8091E8008E778093E800A2
:1053E00006C08FB7F89421E02093B0028FBF9F7062
:1053F0009093E90080E008959F709093E9008FEF0B
:10540000089584B7877F84BF0FB6F894A8958091DC
:105410006000886180936000109260000FBE90E091
:1054200080E80FB6F89480936100909361000FBEFE
:105430000C9443170E944E2C0E94AB2CE2EEF0E03D
:1054400080818460808378940E943F2F0E9451174E
:105450008AE091E00E9467258BE69FE00C94F708B4
:105460008091F3028530C9F487E69FE00E94F70837
:105470008091F302853079F40E9409278091F1022E
:105480008823B1F30E94F026882391F30E94A72A73
:105490000E94AF0FEDCF0E9439270C947F170C9418
:1054A000512A292F332723303105C9F060F42130E8
:1054B000310581F02230310509F041C08BE590E0E3
:1054C0002EEB3FE040C021323105E1F022323105C0
:1054D00031F135C082E190E029E130E134C0992713
:1054E0008130910549F028F0029749F5E0E9FFE0A5
:1054F00005C0EAEBFFE002C0E0EAFFE0849190E043
:105500009F0121C063307105D0F4660F771FFB0146
:10551000E451FE4F2081318189E090E014C0633076
:10552000710568F4FB01EE0FFF1FEA51FE4F208169
:105530003181FB01ED51FE4F808190E004C080E09D
:1055400090E020E030E0FA0131832083089580E18B
:1055500089BD82E189BD09B400FEFDCF8091D800EC
:105560008F7D8093D8008091E00082608093E0007E
:105570008091E00081FDFCCF0895CF92DF92EF9201
:10558000FF920F931F93CF93DF93EC018B017A016E
:105590000E941B2C811133C0E114F10439F0F70192
:1055A00080819181081B190BC80FD91FC12CD12CE8
:1055B0000115110519F18091E80085FD16C0809153
:1055C000E8008E778093E800E114F10449F0F701D8
:1055D00080819181C80ED91ED182C08285E00FC022
:1055E0000E941B2C882321F30AC089918093F1002B
:1055F00001501109FFEFCF1ADF0ADACF80E0DF9107
:10560000CF911F910F91FF90EF90DF90CF90089571
:105610002091FA023091FB022617370748F06115F6
:10562000710539F42091E8002E772093E80001C03D
:10563000B901FC0120E06115710579F18091F30257
:105640008823F1F18530F1F18091E80083FD3CC0C1
:105650008091E80082FD2EC08091E80080FFEBCFB2
:105660002091F3008091F20090E0922B611571057A
:1056700051F08830910538F421912093F100615068
:1056800071090196F3CF21E0089709F020E080919D
:10569000E8008E778093E800CECF2111CFCF0AC0EB
:1056A0008091F302882361F0853061F08091E800F9
:1056B00083FD0AC08091E80082FFF2CF80E0089568
:1056C00082E0089583E0089581E008952091FA0230
:1056D0003091FB022617370748F06115710539F440
:1056E0002091E8002E772093E80001C0B901FC0169
:1056F00020E06115710591F18091F302882309F48E
:1057000040C0853009F43FC08091E80083FD3DC072
:105710008091E80082FD2FC08091E80080FFE9CFF2
:105720002091F3008091F20090E0922B61157105B9
:1057300059F08830910540F424912093F10031967E
:10574000615071090196F2CF21E0089709F020E03D
:105750008091E8008E778093E800CBCF2111CCCFE9
:105760000AC08091F302882361F0853061F0809156
:10577000E80083FD0AC08091E80082FFF2CF80E05C
:10578000089582E0089583E0089581E00895982FB8
:10579000973068F59093E900981739F07091EC0014
:1057A0002091ED005091F00003C0242F762F50E09F
:1057B00021FD02C09F5FECCF3091EB003E7F309324
:1057C000EB003091ED003D7F3093ED003091EB0028
:1057D00031603093EB007093EC002093ED00509318
:1057E000F0002091EE0027FDE5CF80E008958F7056
:1057F0008093E90081E008958091F40287FF11C051
:105800008091E80082FD05C08091F3028111F8CFFC
:1058100011C08091E8008B770BC08091F302882340
:1058200049F08091E80080FFF8CF8091E8008E7702
:105830008093E80008952091E4003091E50095E61A
:105840004091EC00842F817040FF23C08091E800DC
:1058500080FD1DC08091F302882399F0853099F076
:105860008091EB0085FD11C04091E4005091E5006E
:105870002417350729F3915011F09A01E1CF84E004
:10588000089582E0089583E0089581E0089580E01E
:1058900008954091E80042FFDDCF08950E94BC2C9E
:1058A0000E94C42CE0EEF0E0808181608083E8ED0E
:1058B000F0E080818F77808319BCA7EDB0E08C91F8
:1058C0008E7F8C9380818F7E80831092F202089568
:1058D0000F931F93CF93DF930E94BC2C0E94C42C84
:1058E000C8EDD0E088818F7788838881806888833D
:1058F00088818F7D888319BC1092F3021092EF0289
:105900001092F1021092F00200EE10E0F801808196
:105910008B7F808388818160888342E060E080E0C3
:105920000E94C72BE1EEF0E080818E7F8083E2EE63
:10593000F0E0808181608083808188608083F801CD
:1059400080818E7F8083888180618883DF91CF9181
:105950001F910F910895E8EDF0E080818F7E8083A4
:10596000E7EDF0E080818160808384E082BF81E0A8
:105970008093F2020C94682CE8EDF0E080818E7F39
:1059800080831092E20008951092DA001092E100F4
:1059900008951F920F920FB60F9211242F933F93E9
:1059A0004F935F936F937F938F939F93AF93BF9327
:1059B000EF93FF938091E10082FF0BC08091E200A2
:1059C00082FF07C08091E1008B7F8093E1000E94FD
:1059D00091288091DA0080FF1FC08091D80080FF5D
:1059E0001BC08091DA008E7F8093DA008091D9000D
:1059F00080FF0DC080E189BD82E189BD09B400FE50
:105A0000FDCF81E08093F3020E946C2805C019BC91
:105A10001092F3020E947E288091E10080FF19C05D
:105A20008091E20080FF15C08091E2008E7F80931C
:105A3000E2008091E20080618093E2008091D800D2
:105A400080628093D80019BC85E08093F3020E94A5
:105A500089288091E10084FF30C08091E20084FFBA
:105A60002CC080E189BD82E189BD09B400FEFDCF73
:105A70008091D8008F7D8093D8008091E1008F7E47
:105A80008093E1008091E2008F7E8093E20080911C
:105A9000E20081608093E2008091EF02882311F0A0
:105AA00084E007C08091E30087FD02C081E001C06F
:105AB00083E08093F3020E948D288091E10083FFB0
:105AC00029C08091E20083FF25C08091E100877F9B
:105AD0008093E10082E08093F3021092EF028091C4
