:100000000C9454080C949B080C949B080C949B082B
:100010000C949B080C949B080C949B080C949B08D4
:100020000C949B080C949B080C948B2D0C945D2EC7
:100030000C94641F0C949B080C949B080C949B08D4
:100040000C949B080C949B080C949B080C949B08A4
:100050000C949B080C94BD1F0C949B080C949B085B
:100060000C949B080C949B080C949B080C949B0884
:100070000C949B080C949B080C949B080C949B0874
:100080000C949B080C949B080C949B080C949B0864
:100090000C949B080C949B080C949B080C949B0854
:1000A0000C949B080C949B080C949B0855145514B5
:1000B00087148714D414F2144A164A163415C91535
:1000C000DA15DA153A164A164A164316ED16ED16E3
:1000D000FF16FF16F616FF16FF16FF16ED16ED16A5
:1000E000FB16FF16FF16FB160D26FB251F2699246F
:1000F000F826F826F825F826F8264C26F826602655
:10010000D826F826F826F826F8269426F826F82683
:100110007D26F8263826F826F826F226F226F2263C
:10012000F226F226F226F226F226F226F426F82607
:100130000D26F025F826F826F826F826F826F826C3
:10014000F826F826F826F826F426F826F826F825C4
:10015000F826F026F026F026F026F026F026F026E7
:10016000F026F026F426CA2EF12EE92FF12EE92FE3
:100170003D2F602FE92FB72FC62F14001A0008005B
:100180001500170000001C0018000C0012001300DE
:1001900004001600070009000A0000000B000D0013
:1001A0000E000F0033001D621B0006001900050041
:1001B00029611100100036003700387212501350B8
:1001C000E30002512C0028642A000151280000524B
:1001D0002B00200235002E002D001E0200001050C2
:1001E0002402250200002D002102340026022F02E5
:1001F0002B0000005000510052004F002800E10089
:100200001F02270230022D0229614A004E004B00D6
:100210004D0031002202E500E30002512C00286469
:1002200000000151AA00A900A800390040004100C7
:100230004200430000005400240025002600560020
:1002400046003D003E003F004400000055002100F4
:10025000220023005700E1003A003B003C0045002B
:1002600029612B001E001F00200067004800470086
:10027000E30001002C002A644C00015127006300B8
:10028000580035001E001F00200021000000220041
:1002900023002400250026492B0014001A00080022
:1002A0001500000017001C0018000C001050E000A2
:1002B00004001600070009002C000A000B000D00C6
:1002C0000E000F00E1001D001B00060019002700B2
:1002D0000500110010003600370001000100010088
:1002E0000100010000000100010001000100010007
:1002F00001000100010001000100000001000100F7
:1003000001000100010001000100010001000100E5
:1003100001000100010001000100010001000100D5
:1003200001000100010001000100010001000100C5
:1003300001000100010001000100010000000100B6
:1003400001000100010001000100010001000100A5
:100350000100000001000100010001000100010096
:100360000100010001000100010001000100010085
:100370000100010001000100010001000100010075
:100380000100010001000100010001000100010065
:100390000100010000000100010001000100010056
:1003A0000100010001000100010000000100010046
:1003B0000100010001000100010001000100010035
:1003C0000100010001000100010001000100010025
:1003D0000100010001000100010001000100010015
:1003E0000100010001000100010001000000010006
:1003F00001000100010001000100010001000100F5
:1004000001000000010001000100010001000100E5
:1004100001000100010001000100010001000100D4
:1004200001000100010001000100010001000100C4
:1004300001000100010001000100010001000100B4
:1004400001000100000001000100010001000100A5
:100450000100010001000100010000000100010095
:100460000100010001000100010001000100010084
:100470000100010001000100010001000100010074
:100480000100010001000100010001000100010064
:10049000010000000000000000000000000000005B
:1004A000000000000000000000000000000000004C
:1004B000000000000000000000000000000000003C
:1004C000000000000000000000000000000000002C
:1004D00000000000000000000000105000000000BC
:1004E00000000000DE5C015C005C44454255473A78
:1004F0002064697361626C65642E0A00444542554C
:10050000473A20656E61626C65642E0A000A002518
:1005100030313662003A200025303258000A722FFE
:100520006320303132333435363738394142434431
:1005300045460A00556E69636F646520696E707583
:1005400074206D6F64652073657420746F3A202584
:10055000750A00556E69636F646520696E70757405
:10056000206D6F646520696E697420746F3A202570
:10057000750A000A002530325820006B6579626FD9
:100580006172645F7265706F72743A20000A0025B0
:10059000303258006B6579626F6172645F736574A5
:1005A0005F6C65643A200064656C5F6B65795F62BF
:1005B00069743A2063616E27742064656C3A202563
:1005C0003032580A006164645F6B65795F626974F8
:1005D0003A2063616E2774206164643A20253032CA
:1005E000580A00290A002575002F002575005D288E
:1005F0000025640020002564002000256400200000
:100600002564007C0025303258006D6F7573656B72
:100610006579205B62746E7C782079207620685D35
:10062000287265702F61636C293A205B006D6B5FE7
:10063000776865656C5F74696D655F746F5F6D6128
:1006400078203D2025640A006D6B5F776865656CD6
:100650005F6D61785F7370656564203D2025640A75
:10066000006D6B5F74696D655F746F5F6D6178209D
:100670003D2025640A006D6B5F6D61785F73706566
:100680006564203D2025640A006D6B5F696E7465AA
:100690007276616C203D2025640A006D6B5F646595
:1006A0006C6179203D2025640A006D6B5F77686579
:1006B000656C5F74696D655F746F5F6D6178203D17
:1006C0002025640A006D6B5F776865656C5F6D61FE
:1006D000785F7370656564203D2025640A006D6B4A
:1006E0005F74696D655F746F5F6D6178203D202573
:1006F000640A006D6B5F6D61785F7370656564207F
:100700003D2025640A006D6B5F696E7465727661C9
:100710006C203D2025640A006D6B5F64656C617917
:10072000203D2025640A000A00257500363A20770E
:100730006865656C5F74696D655F746F5F6D617826
:100740003A20000A00257500353A20776865656C07
:100750005F6D61785F73706565643A20000A0025FB
:100760007500343A2074696D655F746F5F6D6178F0
:100770003A20000A00257500333A206D61785F73D6
:10078000706565643A20000A00257500323A2069D8
:100790006E74657276616C286D73293A20000A00C8
:1007A000257500313A2064656C6179282A31306DF5
:1007B00073293A20000A092D2056616C7565732053
:1007C0002D0A004D3E004D25643E20003F0073651C
:1007D000742064656661756C740A00433E2000777E
:1007E000686572652064656C74613A206375727324
:1007F0006F723D25642C20776865656C3D25640A21
:1008000053656520687474703A2F2F656E2E776972
:100810006B6970656469612E6F72672F77696B69A8
:100820002F4D6F7573655F6B6579730A000A092D2B
:10083000204D6F7573656B6579202D0A4553432FE5
:10084000713A09717569740A313A0964656C6179A4
:10085000282A31306D73290A323A09696E7465723B
:1008600076616C286D73290A333A096D61785F737C
:10087000706565640A343A0974696D655F746F5F09
:100880006D61780A353A09776865656C5F6D6178E6
:100890005F73706565640A363A09776865656C5FF1
:1008A00074696D655F746F5F6D61780A0A703A09EB
:1008B0007072696E742076616C7565730A643A09AA
:1008C0007365742064656661756C74730A75703A3B
:1008D000092B310A646F776E3A092D310A706775FA
:1008E000703A092B31300A7067646F776E3A092DC0
:1008F00031300A0A7370656564203D2064656C744C
:1009000061202A206D61785F7370656564202A20FC
:1009100028726570656174202F2074696D655F743D
:100920006F5F6D6178290A003F004D3E2000433E15
:1009300020004C25640A0074696D65725F72656100
:1009400064333228293A202530346C580A006B650C
:10095000796D61705F636F6E6669672E6E6B726F23
:100960003A2025580A006B6579626F6172645F698D
:10097000646C653A2025580A006B6579626F617274
:10098000645F70726F746F636F6C3A2025580A0051
:10099000686F73745F6B6579626F6172645F6C65B9
:1009A000647328293A2025580A000A092D20537417
:1009B00061747573202D0A004743433A20352E3465
:1009C0002E30204156522D4C4942433A20322E308F
:1009D0002E30204156525F415243483A2061767290
:1009E000350A004F5054494F4E533A204C5546411A
:1009F000204D4F5553454B45592045585452414B76
:100A0000455920434F4E534F4C4520434F4D4D4188
:100A10004E44204E4B524F20343039360A00425556
:100A2000494C443A20223364303162642220283019
:100A3000343A30333A3531204D6179203133203228
:100A4000303230290A005649443A20307831323069
:100A50003928546563686E6F6D616E637929205023
:100A600049443A20307841314535284174726575E2
:100A70007329205645523A203078303030380A00F9
:100A8000444553433A20514D4B206B6579626F6169
:100A90007264206669726D7761726520666F72207C
:100AA0004174726575730A000A092D2056657273C8
:100AB000696F6E202D0A000A092D20436F6E736F37
:100AC0006C65202D0A4553432F713A09717569747D
:100AD0000A6D3A096D6F7573656B65790A000A09CD
:100AE0002D204D61676963202D0A443A09446562EF
:100AF0007567204D65737361676520546F67676C18
:100B0000650A583A094D61747269782044656275C6
:100B100067204D6F646520546F67676C65202D20DA
:100B200053686F77206B6579707265737365732096
:100B3000696E206D617472697820677269640A4B0E
:100B40003A094B6579626F6172642044656275672A
:100B500020546F67676C65202D2053686F77206B7A
:100B600065797072657373207265706F72740A4D67
:100B70003A094465627567204D6F75736520546F3F
:100B800067676C650A563A0956657273696F6E0A33
:100B9000533A095374617475730A433A0941637493
:100BA000697661746520436F6E736F6C65204D6F5D
:100BB00064650A46312D4631303A095377697463CA
:100BC0006820746F204C6179657220302D3920289F
:100BD000463130203D204C30290A302D393A095316
:100BE000776974636820746F204C61796572203076
:100BF0002D390A47524156453A095377697463685B
:100C000020746F204C6179657220302028616C74EB
:100C100065726E617465290A423A094A756D7020E1
:100C2000746F20426F6F746C6F616465720A455314
:100C3000433A094A756D7020746F20426F6F746C6F
:100C40006F616465722028616C7465726E61746591
:100C5000290A453A095072696E7420454550524F31
:100C60004D2053657474696E67730A425350414353
:100C7000453A09436C65617220454550524F4D0A13
:100C80004E3A094E4B524F20546F67676C650A000D
:100C90000A002575002E6E6B726F3A20000A00253F
:100CA00075002E737761705F6261636B736C617343
:100CB000685F6261636B73706163653A20000A006C
:100CC0002575002E737761705F67726176655F6569
:100CD00073633A20000A002575002E6E6F5F6775FA
:100CE000693A20000A002575002E737761705F72E3
:100CF000616C745F726775693A20000A002575009F
:100D00002E737761705F6C616C745F6C6775693AA4
:100D100020000A002575002E737761705F7263747E
:100D20006C5F726775693A20000A002575002E73A2
:100D30007761705F6C63746C5F6C6775693A2000F3
:100D40000A002575002E636170736C6F636B5F74AE
:100D50006F5F636F6E74726F6C3A20000A002575C6
:100D6000002E737761705F636F6E74726F6C5F6378
:100D70006170736C6F636B3A20000A002530325843
:100D8000006B65796D61705F636F6E6669672E7267
:100D900061773A20000A002575002E6D6F75736526
:100DA0003A20000A002575002E6B6579626F61722A
:100DB000643A20000A002575002E6D61747269780E
:100DC0003A20000A002575002E656E61626C653A56
:100DD00020000A00253032580064656275675F6341
:100DE0006F6E6669672E7261773A20000A0025757A
:100DF0000064656661756C745F6C617965723A2038
:100E0000003F004E4B524F3A206F66660A004E4B31
:100E1000524F3A206F6E0A000A6D6F7573653A2063
:100E20006F66660A000A6D6F7573653A206F6E0A09
:100E3000000A6B6579626F6172643A206F66660AB8
:100E4000000A6B6579626F6172643A206F6E0A0006
:100E50000A6D61747269783A206F66660A000A6DDD
:100E600061747269783A206F6E0A000A646562756F
:100E7000673A206F66660A000A64656275673A2001
:100E80006F6E0A000A0A4A756D70696E6720746F8A
:100E900020626F6F746C6F616465722E2E2E20005D
:100EA000433E2000436C656172696E672045455082
:100EB000524F4D0A006565636F6E6669673A0A00B6
:100EC0005B735D004B6579626F617264207374615E
:100ED00072742E0A005B575D005B535D005B525DD0
:100EE000005B445D005B435D000403300000000EC6
:100EF0000341007400720065007500730000001863
:100F00000354006500630068006E006F006D0061AF
:100F1000006E006300790000000403090409025B0D
:100F200000030100A0FA0904000001030101000907
:100F300021110100012240000705810308000A0970
:100F4000040100010300000009211101000122BC7D
:100F5000000705820320000A0904020002030000C2
:100F6000000921110100012222000705830320004E
:100F70000107050303200001120110010000000811
:100F80000912E5A10800010203010631FF0974A15D
:100F9000010975150026FF00952075088102097664
:100FA000150026FF00952075089102C00501090271
:100FB000A10185020901A1000509190129051500F2
:100FC00025019505750181029501750381010501D2
:100FD000093009311581257F950275088106093888
:100FE0001581257F950175088106050C0A380215C3
:100FF00081257F950175088106C0C005010980A182
:1010000001850319012AB700150126B7009501755E
:10101000108100C0050C0901A101850419012AA055
:1010200002150126A002950175108100C005010975
:1010300006A1018505050719E029E7150025019599
:1010400008750181020507190029EF150025019592
:10105000F0750181020508190129059505750191B1
:1010600002950175039101C005010906A10105075B
:1010700019E029E715002501950875018102950100
:10108000750881010507190029FF150026FF009545
:101090000675088100050819012905950575019156
:1010A00002950175039101C011241FBECFEFDAE054
:1010B000DEBFCDBF04B603FE27C080919E02909193
:1010C0009F02A091A002B091A1028730904BA7404F
:1010D000B04BD1F410929E0210929F021092A00287
:1010E0001092A10214BE84B7877F84BF0FB6F89414
:1010F000A8958091600088618093600010926000E4
:101100000FBEE0E0F8E3099511E0A0E0B1E0E4E310
:10111000F1E602C005900D92A03AB107D9F722E09E
:10112000A0EAB1E001C01D92AE39B207E1F70E941A
:10113000B12A0C9498300C940000FF93EF93E09147
:10114000A001F091A101309709F00995EF91FF916D
:101150000895FC018591803011F0EFDFFBCF0895F9
:10116000FF27E0E230E247FF0CC0419597FF09C03E
:10117000EDE26095709580959095611D711D811DC2
:10118000911D27FF02C0219530E350E2AA27660F88
:10119000771F881F991FAA1FA41710F0A41B63951F
:1011A0005A95A9F7AA3008F0A95FA05DAF93F3950F
:1011B000611571058105910541F7ED3211F4EF9349
:1011C000F395F21718F43F93F395FBCF8F91B5DFAA
:1011D000FA95E1F70895E991F9918591803021F030
:1011E000853219F0AADFF9CF089520E0E8945591EF
:1011F0005532C1F3503311F4689455915A3348F481
:10120000505390F3220F022E220F220F200D250F94
:10121000F4CF0EF4219589919991533619F35337F0
:1012200029F1533559F1BC0188279927E8945C3698
:1012300021F48991999168945591543639F446EF87
:101240007EF077FF0DC08FEF9FEF0AC055374AE061
:1012500039F0583540E121F0523642E009F0089566
:10126000FF93EF937DDFEF91FF91B7CFFF93EF9364
:10127000FC0181918030B9F360DFFBCFFF93EF93E6
:1012800068DFF1CFDF93CF93CDB7DEB72596A3DF2D
:10129000CF91DF9108959C013A9521153F4138F592
:1012A000DC01AA27B270AC01442754709C012227AC
:1012B000387094FF0FC090FF02C080E101C080E051
:1012C000AB2B09F08062452B09F08064232B69F079
:1012D00080680BC0892F8170AB2B09F08260452B91
:1012E00009F08460232B09F08860FB0109940895BC
:1012F000CF93DF93EC01805E9109089710F020975F
:1013000019F465E174E102C063EB76E1CE010E945D
:101310004B098C2FDF91CF910C94EB12CF93DF937D
:10132000EC010E949A13CE01805E9109089710F09B
:10133000209719F46CE174E102C06AEB76E1CE010A
:10134000DF91CF910C944B09CF93DF93EC010E9476
:101350007809CE01DF91CF910C948E0981E0089538
:1013600081E008950C94B00908950C94B4091F937A
:10137000CF93DF9300D000D01F92CDB7DEB7498363
:101380005A836B833091B80189819A81311114C0DD
:10139000662359F0222349F00E94261C182F682F3B
:1013A00089819A810E94CF1B03C00E94FA1B182FCB
:1013B00069817A81812F04C00E94261C69817A810B
:1013C0000F900F900F900F900F90DF91CF911F9182
:1013D0000C949B0AFC01262F40815181628173810C
:1013E00084810C94B709CF93DF93EC0160E00E94F5
:1013F000EA09BE01DF91CF910C94B5090E94851DC9
:10140000811102C00E94251E0E94530E0C94000DF3
:101410000C94FC0C282F2F7041F0822F90E02A3082
:1014200010F44D9608950697089587E290E0089588
:1014300008950C94180A81E008950C941B0ACF9328
:10144000C82F0E94190A8C2F0E941D0ACF9108955F
:1014500008950E94DB160E94280A2FEF84E39CE087
:10146000215080409040E1F700C000000C94E31F41
:101470000F931F93CF93DF93EC0161E00E94EA0981
:101480008C01BE010E94B209882309F449C0BE0143
:10149000C8010E94F00E882309F442C0BE01C801B1
:1014A0000E94800F8823E1F1BE01C8010E94C10F94
:1014B0008823B1F1BE01C8010E94EC10882381F19C
:1014C0008A81882331F101308CE5180751F00E3DF7
:1014D0008CE51807D9F001151C45D9F40E94290A9A
:1014E0001FC080913C02C82FC095C170C0FB80F91D
:1014F00080933C02CC2329F08CEF94E00E94A90851
:101500000FC08AEE94E00E94A9080BC00E94251E1D
:1015100007C0CE01DF91CF911F910F910C94AE09BE
:10152000C0E08C2FDF91CF911F910F91089580E043
:1015300090E0089508952CE2829FC0011124FC01DF
:101540002BE0729FE00DF11D1124E60FF11DEE0F4F
:10155000FF1FE658FE4F859194910895880F991FBB
:10156000FC01E35FFA4F859194910895CF93DF9347
:101570000E949B0A0E94CE0BEC018115904508F059
:1015800041C0C11580E4D80708F0D1C0C83ED105DC
:1015900010F5C03ED10508F0FDC0C83AD10578F479
:1015A000C53AD10508F0A2C0C130D10509F4F2C096
:1015B00008F4EEC0C430D10508F0ECC0E9C0CF3B60
:1015C000D10508F49BC0C03CD10508F4E1C0CE01B0
:1015D000805C91099EC0C11590E2D90758F4C115ED
:1015E00021E0D20708F0D6C0C03FD10508F4D0C032
:1015F000D065D0C0C11580E3D80708F08EC0CE01F9
:101600009F7087C0C11595E5D90708F043C0C11583
:1016100024E5D20708F0A2C0C11582E5D80708F575
:10162000C11591E5D90708F085C0CE0174E0969503
:1016300087957A95E1F783709C2F937021E030E0D5
:1016400002C0220F331F9A95E2F73C68382BCF7007
:10165000C695C69580E2C89FE0011124C22BD32B0A
:1016600099C09E01237033278C2F86958695C115CE
:10167000D34508F064C0C1E0D0E002C0CC0FDD1F4C
:101680002A95E2F720E2829FC0011124C82BD92BB2
:10169000DC6880C0C11529E5D207A0F4C11588E532
:1016A000D80708F060C0C11596E5D90708F070C0EA
:1016B0008C2F0E94620C8F71C82FD0E0DC2FCC27BA
:1016C000D06268C0C1152AE5D20708F451C0CE0126
:1016D00090568115904208F05BC08D2F8F710E944B
:1016E000620CDD27D0628F71D82B54C0C55AD0E070
:1016F000CD5BDE4FC881D0E0D0644CC0C85AD0E08A
:10170000CC0FDD1FCB5EDE4F0990D881C02DD46495
:1017100041C00E94AE0AEC013DC0CE019927D3FF23
:1017200003C0EC01D86C36C0EC01D06C33C0DF7064
:10173000D06A30C0DC2FCC27C16FD06A2BC0C1E08B
:10174000D0E002C0CC0FDD1F2A95E2F720E2829F95
:10175000C0011124C82BD92BDA681CC0DC2FCC2780
:10176000C46FD06A17C0DC2FCC27C06FD06A12C0FC
:101770008C2F8F700E94620C94E0D695C7959A9535
:10178000E1F7CF70D0E0DC2FCC27D069C82B02C0A6
:10179000C0E0D0E0CE01DF91CF910895823891056D
:1017A00069F1B0F48133910509F46DC048F48932D0
:1017B000910509F463C08A32910509F469C008955E
:1017C0008533910509F455C089339105B9F0089521
:1017D000833E910569F138F4803E9105B1F0823E77
:1017E000910509F10895863E9105A9F1873E91057D
:1017F000B9F1843E910509F064C023C020918F02A5
:1018000020FD4FC021FD4DC0089580918F0280FDC5
:1018100044C08091900280FF44C080918F0284FD7B
:1018200042C083EE4DC080918F0282FF38C0F5CF59
:1018300080918F0282FD33C08091900280FD31C083
:10184000ECCF8091900281FF32C080918F0284FDA5
:101850002AC087EE35C080918F0283FF26C0F5CF66
:1018600080918F0283FD21C08091900281FD1FC075
:10187000ECCF80918F0285FD1CC01DC080918F022E
:1018800085FD19C016C080918F0286FD16C017C055
:1018900080918F0286FD13C010C089E311C082EED3
:1018A0000FC080EE0DC080E00BC086EE09C084EE54
:1018B00007C089E205C085E303C08AE201C081E375
:1018C00090E0089590918F0292FF0DC0282F28710B
:1018D000283019F4877F846006C0282F24712430B3
:1018E00011F48B7F886093FF0DC0282F2871283159
:1018F00019F4877E846106C0282F2471243111F4E5
:101900008B7E88612091900220FF0DC0382F3871A6
:10191000383019F4877F816006C0382F317131303B
:1019200011F48E7F886021FF0DC0282F2871283187
:1019300019F4877E816106C0282F2171213111F4AD
:101940008E7E886194FD877E0895E82FF0E0EE0F8B
:10195000FF1FE458FD4F808191810895CF92DF925F
:10196000EF92FF920F931F93CF93DF938DE195E05A
:101970000E94A9088CE7E82E82E0F82EC0E0D0E0B3
:1019800098E1C92E95E0D92E0FE015E0DF93CF93B3
:10199000DF92CF920E94420985E195E00E94A9085A
:1019A000F701819191917F010E94721D9F938F9306
:1019B0001F930F930E9442098DE095E00E94A908B1
:1019C00021968DB79EB708960FB6F8949EBF0FBEAE
:1019D0008DBFC430D105D1F6DF91CF911F910F910A
:1019E000FF90EF90DF90CF90089580EA8A95F1F70D
:1019F000089508950C94F90C0C94FA0C0C94F90CBD
:101A00000C94FE0CCF93DF93A1E5B1E045E551E0E6
:101A100061E070E08D91E82FE295EF70F0E021A198
:101A20008F70EB0102C0CC0FDD1F8A95E2F7CE016B
:101A30009C2F9095922391A392A1892B82A34A1760
:101A40005B0741F7A6E4B1E041E050E08D91E82F5B
:101A5000E295EF70F0E021A18F70BA0102C0660F2D
:101A6000771F8A95E2F7CB01962F9095922391A349
:101A700092A1892B82A371E0A135B70739F71092A3
:101A800075021092740210927D0210927C021092E4
:101A900077021092760210927F0210927E021092CC
:101AA00079021092780210928102109280021092B4
:101AB0007B0210927A02109283021092820284E0DA
:101AC0000E94030EDF91CF910C94FE092F923F925A
:101AD0004F925F926F927F928F929F92AF92BF923E
:101AE000CF92DF92EF92FF920F931F93CF93DF93EA
:101AF00081E5C82E81E0D82E04E712E09CE7492E4C
:101B000092E0592E312C88248394912C5801D801CD
:101B10006D907C9011971D921C92F60181916F013E
:101B2000C82FC295CF70D0E099A18F70740101C009
:101B3000EE0C8A95EAF7892F8E2989A38AA12E2C8B
:101B4000209482218AA30E94F50CE6E4F1E020E0D3
:101B500030E06191A62FA295AF70B0E090968C9185
:101B6000D8014D915C9190E06F7002C0959587957A
:101B70006A95E2F780FD08C0C401022E02C0880FFA
:101B8000991F0A94E2F702C080E090E0482B592B9D
:101B9000D8014D935C932F5F3F4F2B303105C9F631
:101BA00089A1282229A28AA1E82AEAA20E5F1F4F52
:101BB00081E0F501208131812615370509F480E0A7
:101BC000382A4016510609F0A1CF232D44E06CE7D6
:101BD00072E084E792E00E94040E0E94080A832DBE
:101BE000DF91CF911F910F91FF90EF90DF90CF90F9
:101BF000BF90AF909F908F907F906F905F904F902D
:101C00003F902F9008950895FF920F931F93CF93C5
:101C1000DF93F82E092F162FD72FC42F222349F038
:101C200081E08093A4010E94961F9093A30180936A
:101C3000A2018091A4018823D9F08091A201909102
:101C4000A3010E94AE1F069798F0EF2DF02FA12F51
:101C5000BD2F80E090E04C2F50E08417950734F4BE
:101C6000219131912D933D930196F7CF1092A401CC
:101C7000DF91CF911F910F91FF900895CF93DF9344
:101C800097FF0DC0FB012281222349F0EC010E9445
:101C9000920ECE019F770E94D30E0E94BC0E81E06F
:101CA000DF91CF9108958CE090E00E94563090E053
:101CB000A0E0B0E08093840290938502A093860216
:101CC000B093870280913C0280FF0EC08091840215
:101CD0001F928F9383E595E09F938F930E94420913
:101CE0000F900F900F900F900895609184028CE0F8
:101CF00090E00C946430809384020E94750E809171
:101D00003C0280FF0EC0809184021F928F9384E377
:101D100095E09F938F930E9442090F900F900F9030
:101D20000F9008950E94A71C809388020E94BA1CFD
:101D300080918402813071F048F0823081F08430EB
:101D4000A1F486EE0E94021488E10DC082EE0E948A
:101D5000EB120BC088E193E00E94A40906C082EE5A
:101D60000E94EB1287E50E9402148FE39CE9019721
:101D7000F1F700C00000089580918402813039F0AD
:101D800040F0823031F0843051F488E206C08CE2B9
:101D900004C082EE0E949A1302C00E940214809135
:101DA00088020C94B71C0F931F93CF93DF938C0181
:101DB000CCE0D0E0C8010C2E02C0969587950A941D
:101DC000E2F78F700E940A0A0E9402142497CC3F07
:101DD0008FEFD80779F7DF91CF911F910F91089579
:101DE0000F931F93CF93DF93EC018B01FB01828153
:101DF000882351F00E94A71CCE01815E9C4585304E
:101E0000910510F40E947B0EB801CE01DF91CF91B5
:101E10001F910F910C943E0E0F931F93CF93DF935E
:101E2000C62FD42F122FFC0182818823C9F0609322
:101E3000A7010E94961F9093A6018093A50180E2BE
:101E40008C0F883008F057C0C77081E001C0880F40
:101E5000CA95EAF7DF91CF911F910F910C94151459
:101E60008091A701681330C08091A5019091A601CF
:101E70000E94AE1F883C910538F500E20D0FCD178A
:101E8000B9F080E28C0F883040F4C77081E001C067
:101E9000880FCA95EAF70E941C14083028F581E0E3
:101EA0009D2F977001C0880F9A95EAF70E9415142C
:101EB000812F0E9402140830F0F4D77081E001C035
:101EC000880FDA95EAF70AC080E28C0F883098F420
:101ED000C77081E001C0880FCA95EAF7DF91CF9102
:101EE0001F910F910C941C14812FDF91CF911F91A2
:101EF0000F910C940214DF91CF911F910F910895CF
:101F00009C01CB01233F4CE53407F9F078F4283DE0
:101F1000FCE53F07B9F0293D4CE5340711F1273DB9
:101F20003C4531F526E241EE61EE1EC0253FFCE561
:101F30003F0799F070F0263F3C45D1F427E245EE8B
:101F400066EE12C027E245EE0EC026E241EE60EEDC
:101F50000BC027E245EE64EE07C026E241EE62EEDA
:101F600003C028E241E065EE0E940C0F80E0089576
:101F7000FC018281882319F01092A701089581E065
:101F80000895CF93DF93EC01FB018281882309F44C
:101F90001FC1C230FCE5DF0708F41BC1C6319CE558
:101FA000D90738F09E012A5F3C452930310508F0F9
:101FB00010C10E94981D9093900280938F02C031AF
:101FC000ECE5DE0709F4C3C008F041C0C8308CE579
:101FD000D80709F49AC0F0F4C430ECE5DE0709F440
:101FE00087C068F4C2308CE5D80709F477C0C330E5
:101FF000DC4509F0E3C080918F02826076C0C63074
:10200000ECE5DE0709F46EC008F07BC080918F021A
:1020100088606BC0CC308CE5D80709F485C068F4C3
:10202000CA30ECE5DE0709F474C008F079C00E94FC
:10203000DB1680918F02806858C0CE308CE5D807BF
:1020400009F476C008F07FC080918F028BC0CB3F2F
:10205000ECE5DE0709F44FC018F5C3318CE5D8076D
:1020600009F47DC078F4C131ECE5DE0709F473C0F2
:10207000C231DC4509F0A2C00E94DB1680918F02BC
:102080008F7733C0C5318CE5D80709F472C008F4E6
:1020900086C0CA3FDC4509F091C0809190023EC0E5
:1020A000CF3FFCE5DF0709F45FC058F4CD3F9CE566
:1020B000D90709F444C008F43FC0809190028260BF
:1020C0002DC0C130FDE5DF0709F475C008F45DC01F
:1020D000C230DD4509F072C080E06EC080918F0291
:1020E000816003C080918F02806180938F0266C0FF
:1020F00080918F0211C08091900282608093900243
:102100005DC080918F028062F0CF80918F028064E9
:10211000ECCF80918F0288608460E7CF8160EECF42
:1021200080918F028E7FE1CF80918F028D7FDDCFF6
:1021300080918F02877FD9CF8091900218C08091C3
:1021400090028D7FDBCF80918F028F7ECECF8091EA
:102150008F028F7DCACF80918F028F7BC6CF8091F7
:102160008F02877F8B7FC1CF809190028D7F8E7F82
:10217000C5CF80918F0282FB222720F991E0922720
:1021800090FB82F990FB83F9B0CF80919002982F59
:10219000909591708E7F892B90FB81F9AFCF0E9433
:1021A000DB1680918F0287FB222720F991E092278E
:1021B00090FB87F99ACF81E00E94271E80918F02C1
:1021C000909190020E94A91D0E94DB1680E001C040
:1021D00081E0DF91CF910895CF93DF9386319C45C5
:1021E00041F5EB010E94A71C982F8A8120910001E4
:1021F00030910101882379F09A7A81E009F480E036
:102200008093A801911102C069E201C065E3C90190
:102210000E94E41E0AC08091A801811102C069E2F7
:1022200001C065E3C9010E94EF1E0E94F81C80E016
:1022300001C081E0DF91CF9108959093AE0180932A
:10224000AD010895E091AD01F091AE01309721F01C
:102250000190F081E02D099480E00895EF92FF92C3
:102260001F93CF93DF93FC01A091AD01B091AE011C
:10227000109709F442C080911401882341F08091A5
:102280008F0287FF04C08081818385E08083EF0116
:102290001296ED91FC911397CE01099580913C0225
:1022A00082FF2BC080FF04C08BE795E00E94A90845
:1022B00018E085E7E82E85E0F82E80913C0280FF4B
:1022C0000BC088811F928F93FF92EF920E94420968
:1022D0000F900F900F900F90115021961111EDCF8C
:1022E00080913C0280FF09C083E795E0DF91CF91A8
:1022F0001F91FF90EF900C94A908DF91CF911F914F
:10230000FF90EF900895E091AD01F091AE0130970C
:1023100039F022E0DC012C930480F581E02D099452
:1023200008952091AB013091AC012817390771F065
:102330009093AC018093AB01E091AD01F091AE01BF
:10234000309721F00680F781E02D099408952091BF
:10235000A9013091AA012817390771F09093AA01B9
:102360008093A901E091AD01F091AE01309721F089
:102370000084F185E02D0994089585B7806885BFB4
:1023800085B7806885BF089508950C94C4110C9496
:10239000C5110C94C4110C94C4110E94BD110E946B
:1023A000C9110C94C71181E008950C94D3110E94B7
:1023B0008D1F0E94020D0E94F41F0C94CB11CF932D
:1023C000C82F80913C0282FF1EC080FF04C084E9B8
:1023D00095E00E94A90880913C0280FF0CC01F92EA
:1023E000CF938FE895E09F938F930E9442090F90BF
:1023F0000F900F900F9080913C0280FF04C08DE8F9
:1024000095E00E94A9088C2FCF910C941F0A7F920F
:102410008F929F92AF92BF92CF92DF92EF92FF92F4
:102420000F931F93CF93DF93CDB7DEB72A970FB6E5
:10243000F894DEBF0FBECDBF0E94660D0E94D5117D
:10244000811111C08FEF89838A831B820E94961F9E
:102450008160782F9D838C8349815A816B818D8126
:102460000E94B7124FC040EBA42E41E0B42E00E012
:1024700010E0702E802F0E94A50C6C01F501819058
:1024800091905F01882699268114910431F40F5FA1
:102490001F4F0430110569F7D5CF80913C0281FDB3
:1024A0000E94AE0C80E0EE24E394F12C94012E21E6
:1024B0003F21232B09F18E837F82CE20DF2081E014
:1024C000CD2809F480E088870E94961F8160782FCC
:1024D0009A8789874E815F8168858A850E94B712B5
:1024E000000F111FF801E055FE4F80819181E82611
:1024F000F926F182E08206C08F5FEE0CFF1C8B3064
:10250000A9F6C5CF0E9408220E9422119091AF0126
:102510008917C9F00E9422118093AF012A960FB645
:10252000F894DEBF0FBECDBFDF91CF911F910F9109
:10253000FF90EF90DF90CF90BF90AF909F908F90E3
:102540007F900C94DF112A960FB6F894DEBF0FBE71
:10255000CDBFDF91CF911F910F91FF90EF90DF9052
:10256000CF90BF90AF909F908F907F900895CF9322
:10257000DF93CDB7DEB72B970FB6F894DEBF0FBE53
:10258000CDBF4F83588769877A878B87DE01119685
:1025900086E0FD0111928A95E9F785E0FE01379604
:1025A00001900D928A95E1F749815A816B817C8176
:1025B0008D819E810E9494192B960FB6F894DEBFF0
:1025C0000FBECDBFDF91CF910895FC018081918135
:1025D0000E94681C0895CF93882309F4A9C0C82FCE
:1025E0008238C1F40E94221181FDA2C069E380916A
:1025F0000001909101010E94E41E0E94F81C2FEF3F
:1026000081EE94E0215080409040E1F700C000004E
:1026100069E319C0833801F50E94221180FD88C04A
:1026200063E580910001909101010E94E41E0E94E7
:10263000F81C2FEF81EE94E0215080409040E1F7AC
:1026400000C0000063E580910001909101010E94AB
:10265000EF1ECF910C94F81C8438C1F40E94221113
:1026600082FD66C067E480910001909101010E94A3
:10267000E41E0E94F81C2FEF81EE94E02150804070
:102680009040E1F700C0000067E4DDCF8CEF8C0FD5
:10269000813AF8F48C2F0E941027811149C06C2FC9
:1026A00080910001909101010E94421E882349F00F
:1026B0006C2F80910001909101010E94EF1E0E94F9
:1026C000F81C6C2F80910001909101010E94E41E82
:1026D000C0CF80E28C0F883048F4C77081E001C021
:1026E000880FCA95EAF70E94AA1CB3CFEBE5EC0F5E
:1026F000E33040F4F0E0ED57FE4F808190E0CF9161
:102700000C949111E8E5EC0FE73150F4F0E0EE0F96
:10271000FF1FEB5AFE4F80819181CF910C94A7113E
:10272000C03F30F08C2F0E948E20CF910C947B21E3
:10273000CF910895882309F464C0823879F40E9407
:10274000221181FF5EC069E3809100019091010137
:102750000E94E41E0E94F81C69E310C08338B1F4A3
:102760000E94221180FF4DC063E58091000190918D
:1027700001010E94E41E0E94F81C63E580910001A3
:10278000909101010E94EF1E0C94F81C843879F49A
:102790000E94221182FF35C067E480910001909170
:1027A00001010E94E41E0E94F81C67E4E7CF9CEF41
:1027B000980F913A10F4682FE1CF90E2980F98307B
:1027C00050F4877091E001C0990F8A95EAF7892F3C
:1027D0000E94B01CD9CF9BE5980F933020F480E085
:1027E00090E00C94911198E5980F973120F480E0D7
:1027F00090E00C94A711803F20F00E94F6200C94EA
:102800007B210895CF93C82F0E94EB12C93349F45E
:102810002FEF87EE93E0215080409040E1F700C019
:1028200000008C2FCF910C949A13882321F00E94E2
:10283000AA1C0C94F81C0895882321F00E94B01C57
:102840000C94F81C0895CF92DF92EF92FF920F93B1
:102850001F93CF93DF937C01062FC72FFC011581B7
:1028600012951F70D281D1110E94CA1C0E94A01C17
:10287000882379F0DD2369F080E2800F883048F00A
:1028800082E00E94421D0E94A01C91E0D82ED92611
:1028900001C0D12CCC2EC2948FE0C8228C2D90E0A8
:1028A000FC01EA5AFF4F0C943C308C2F807FCF7094
:1028B000882311F0C295C07FDD2399F0CC2309F461
:1028C000C4C180E2800F883010F0011104C08C2F49
:1028D0000E94AA1C03C08C2F0E94BD1C0E94F81CE1
:1028E000B4C1802F0E949A13CC2309F4D3C180E293
:1028F000800F883010F0011104C08C2F0E94B01C92
:1029000003C08C2F0E94C31C0E94F81CC3C18C2FD3
:10291000807FCF70803211F0C295C07F002319F004
:102920000130C9F022C0DD2371F0112341F01130D4
:1029300031F40E94DD1C8C2B0E94E51CABC10E946F
:10294000DD1C8C2B1DC0112319F0113009F4A2C11C
:102950000E94EE1C25C0DD2321F0163008F09AC13C
:102960000EC0153008F096C11BC0DD2361F01123A5
:1029700031F0F701858180FF68C18F7085838C2FCE
:102980000E94151487C1112359F0093309F06EC153
:10299000FFEF27EE83E0F15020408040E1F764C173
:1029A0008C2F0E941C1476C18C2F8695869583707F
:1029B00019F0813061F06EC1DD2321F0802F9C2F52
:1029C000937002C080E090E00E9491116BC1DD2302
:1029D00021F0802F9C2F937002C080E090E00E9435
:1029E000A71160C1DD23F9F0053F51F0063F71F0FA
:1029F000043FA9F48091890290918A0281600BC002
:102A00008091890290918A02826005C0809189023A
:102A100090918A02846090938A0280938902802F29
:102A20000E948E201EC0053F51F0063F71F0043F0A
:102A3000A9F48091890290918A028E7F0BC08091C7
:102A4000890290918A028D7F05C0809189029091C0
:102A50008A028B7F90938A0280938902802F0E9442
:102A6000F6200E947B211EC18C2F837009F045C087
:102A7000D11114C1402F429546954770440F440F21
:102A8000602F6F70862F90E0A0E0B0E0042E04C0AD
:102A9000880F991FAA1FBB1F0A94D2F704FF10C00A
:102AA0000FE010E020E030E004C0000F111F221FF3
:102AB000331F4A95D2F7009510952095309503C0A5
:102AC00000E010E09801C695C695C370BC01CD0129
:102AD000602B712B822B932BC23049F058F4C130FC
:102AE00019F00E94E51ADAC00E94D31AD7C00E94DA
:102AF000F71AD4C00E94D11AD1C0DD2319F08C2F4F
:102B0000817001C08695882309F4C8C0402F429582
:102B100046954770440F440F602F6F70862F90E0EA
:102B2000A0E0B0E0042E04C0880F991FAA1FBB1FAD
:102B30000A94D2F704FF10C00FE010E020E030E06C
:102B400004C0000F111F221F331F4A95D2F70095B2
:102B500010952095309503C000E010E09801C695CF
:102B6000C695C370BC01CD01602B712B822B932BBA
:102B7000C23049F058F4C13019F00E94AA1B8EC02F
:102B80000E94981B8BC00E94BC1B88C00E940B1B1C
:102B900085C0CF70DD2339F08C2F0E94311B802F30
:102BA0000E9415147BC0802F0E941C148C2F0E9441
:102BB000521B74C0023F01F128F4003F41F0013F75
:102BC000A1F03FC0033FF9F0043F39F13AC0DD23E3
:102BD00041F0153008F05EC08C2F8F710E94771B7A
:102BE00059C0163008F056C0F7CFDD2339F08C2FCE
:102BF0008F710E94311B4EC0DD23C9F38C2F8F7162
:102C00000E94521B47C0DD2329F08C2F8F710E9438
:102C10001C1B40C00E94171B3DC0DD2349F0CF7133
:102C20008C2F0E94311B63E08C2F0E942D1D32C01F
:102C300081E00E94421D123068F182E00E94421D34
:102C400029C0DD2331F0112391F2802F0E94EB1275
:102C500021C0112399F2093349F49FEFE7EEF3E025
:102C60009150E040F040E1F700C00000802F0E944A
:102C70009A1310C04C2F4F70602FC7010E94970A03
:102C80000E94421A0FC04C2F4F70602FC7010E9444
:102C90009A0A08C088EF8C0D843020F40E9422111B
:102CA0000E941F0ADD20C9F00E949C1C80FD15C0F7
:102CB000F70112820E94961C0E94311BC7010E94DC
:102CC0008E160E94961CDF91CF911F910F91FF905D
:102CD000EF90DF90CF900C94521BDF91CF911F911A
:102CE0000F91FF90EF90DF90CF9008950F931F9377
:102CF000CF93DF93EC01688179818A810E94731CF4
:102D00008C010E94CE1B0E94BF1AB801CE010E9406
:102D10002314DF91CF911F910F910895CF93DF93EB
:102D2000FC019081818123813481232B31F08F3FFD
:102D300031F481E09F3F19F403C081E001C080E0DD
:102D400080FD0EC0EF01CF010E94380A882341F0B8
:102D5000CE010E947616CE01DF91CF910C94F3093B
:102D6000DF91CF910895882321F00E94BD1C0C941F
:102D7000F81C0895882321F00E94C31C0C94F81CB1
:102D800008950E94CA1C0E94DA1C0E94F81C0E942E
:102D900027230E947B2180E090E00E94911180E037
:102DA00090E00C94A71180910001909101010E9484
:102DB000FA1E0C94C1160E94BA1C0C94D316E92F6B
:102DC000E295EF704E2F50E0FA013297EE30F105A8
:102DD000B0F4EA59FF4F0C943C30803F91F018F466
:102DE000883E68F40EC0843F51F40BC0883E48F022
:102DF000813F29F406C093FB882780F9089580E07D
:102E0000089581E008950E94681C0E94DF160895CD
:102E1000CF93DF9300D000D01F92CDB7DEB70F90D5
:102E20000F900F900F900F90DF91CF910895CF9357
:102E3000DF9300D000D000D0CDB7DEB726960FB616
:102E4000F894DEBF0FBECDBFDF91CF9108951F93E1
:102E5000CF93DF93C091B90116E08091BA01C817F2
:102E600099F0D0E01C9FF0011D9FF00D1124E55456
:102E7000FE4F4081518162817381848195810E94DE
:102E800017172196C770E9CFDF91CF911F91089551
:102E90004091EB015091EC016091ED017091EE01D8
:102EA0008091EF019091F0010C9417170F931F93ED
:102EB000CF93DF938091F00182958F7009F05DC010
:102EC0008091ED01882309F458C08091B9011091D7
:102ED000BA016091EB017091EC01C091EE01D091CB
:102EE000EF0191E06F3F09F090E0292F06E0811794
:102EF00009F443C0209721F07F3F21F030E003C068
:102F000031E001C0322F90E030FD34C0089FF00165
:102F1000099FF00D1124DF01A554BE4F11963C917D
:102F20001197371327C03C91361324C012963C9159
:102F3000129731111FC013964D915C9114974C1B41
:102F40005D0B483C5105B0F48091F0018F708061B9
:102F50008093F001E054FE4F80818F708061808308
:102F60008BEE91E00E948E16DF91CF911F910F9111
:102F70000C94271701968770BACFDF91CF911F91DC
:102F80000F9108959F92AF92BF92CF92DF92EF92EE
:102F9000FF920F931F93CF93DF93CDB7DEB7619767
:102FA0000FB6F894DEBF0FBECDBF8C0185E0F801EF
:102FB000DE011D9601900D928A95E1F7F80140819E
:102FC0005181E2809091EB016091EC012091EE0142
:102FD0003091EF012115310531F06F3F31F481E07F
:102FE0009F3F19F403C081E001C080E0F82FF17029
:102FF0009F2E80FD46C1F801A380B4808BEEC82EC1
:1030000081E0D82EF090ED01F501E21BF30BFF20DB
:1030100009F4DFC08091F001E83CF10508F09BC0A5
:10302000282F207F09F052C0561313C0491311C036
:10303000FE2CE1100EC08F7080618093F0010E9421
:103040004817C6010E948E168091F001F801858311
:1030500058C1AB2831F05F3F31F481E04F3F19F4A4
:1030600003C081E001C080E080FD03C081E08E25C7
:1030700002C080E090E0F82FF170FF2E80FF1CC0AE
:103080008091B9012091BA0136E0821709F417C185
:1030900090E0389FF001399FF00D1124E554FE4F68
:1030A0006181561306C06081461303C06281E61237
:1030B00003C001968770E9CFFE2CEE2009F421C1F0
:1030C0008091F00181608093F0015AC0561306C0D0
:1030D000491304C0E11002C0F8019FC04D875E870C
:1030E0008D859E850E940317882379F1EE2069F172
:1030F0002091F001822F82958F7090E0029774F0FA
:103100008091EB019091EC0198878F831986BB86A3
:10311000AA862C87CE0107960E948E1686E0F801BB
:10312000ABEEB1E001900D928A95E1F70E9456173F
:103130000E9448170DC0561729F14D875E878D856F
:103140009E850E94031781112CC0C8010E948E1613
:10315000FF24F394D6C0282F207F69F77A2DB98AEF
:10316000A88A6E2D89890E9408178BEE91E00E9433
:103170008E1686E0F60111928A95E9F70E944817AB
:10318000F12CBFC04913D9CFE110D7CFF801858307
:10319000C8010E948E1686E0F60111928A95E9F721
:1031A000B0C0EE2091F22091F001822F82958F70B5
:1031B00090E002970CF4B2CF8091EB019091EC017A
:1031C0009A8389831B82BD82AC822E83CE010196B5
:1031D000A3CFE83CF10508F047C0FE2CEE2009F42F
:1031E000B4CF561330C049132EC02091F00120FDFA
:1031F00021C0822F82958F70482F50E041155105D4
:10320000C9F0F80125834F30510541F08F5F982FA9
:103210009295907F822F8F70892B8583C8010E94A1
:103220008E1686E0F801ABEEB1E001900D928A9522
:10323000E1F742C086E0F801ABEEB1E001900D92FB
:103240008A95E1F75EC04D875E878D859E850E94D9
:103250000317811163CF8091F00181608093F001A9
:10326000C8010E948E164DC07A2DB98AA88A6E2D8B
:1032700089890E94081786E0F60111928A95E9F77C
:103280001BC0EE2009F461CF4D875E878D859E853A
:103290000E940317F82E882309F457CF86E0F8011F
:1032A000ABEEB1E001900D928A95E1F78BEE91E0E3
:1032B0000E94E5120E9456170E94481722C04D87AF
:1032C0005E878D859E850E94681C292F22952F7010
:1032D000223028F49F7039F0811105C00BC02430D2
:1032E00028F49F7049F4805E883020F0C8010E9465
:1032F0008E169F2CF92C05C0F8019581907F99F7C7
:10330000F9CF8F2D61960FB6F894DEBF0FBECDBFFB
:10331000DF91CF911F910F91FF90EF90DF90CF90B1
:10332000BF90AF909F9008951F93CF93DF93CDB739
:10333000DEB72C970FB6F894DEBF0FBECDBF4F831C
:10334000588769877A878B879C87CE0107960E946A
:10335000C2178823D1F09F8188852A853B85232B3E
:1033600031F08F3F31F481E09F3F19F403C081E0D9
:1033700001C080E080FD47C04F81588569857A850E
:103380008B859C850E9417173EC086E0FE0137960C
:10339000DE01119601900D928A95E1F7FF81E88593
:1033A0006A857B856115710531F0EF3F31F481E06D
:1033B000FF3F19F403C081E001C080E080FD23C01D
:1033C0002091BA0130E0C901019687709927409198
:1033D000B90150E084179507F1F1F983EA837D8301
:1033E0006C8396E0929FD001939FB00D1124A55459
:1033F000BE4FFE01319601900D929A95E1F78093B0
:10340000BA010E94271716E08091B9019091BA0184
:10341000891771F1189FC001112485549E4F0E9495
:10342000C217882329F1E091B9011E9FF0011124F0
:10343000E554FE4F40815181628173818481958181
:103440000E9417178091B90190E001968770992723
:103450008093B901D9CF0E94DB161092BA01109265
:10346000B901EBEEF1E086E0DF011D928A95E9F704
:103470002C960FB6F894DEBF0FBECDBFDF91CF9173
:103480001F910895EF92FF920F931F93CF93DF93B5
:103490008C01892B09F46CC0F12CEE24E394E80133
:1034A0002196F8018491843740F4843008F051C0AB
:1034B000813081F0823019F15BC0853709F444C056
:1034C000A8F19CE7980F903708F052C08F770E94C0
:1034D0009A1341C00E5F1F4FFE01849190E2980F36
:1034E000983050F48770FE2D01C0FF0F8A95EAF7DF
:1034F0008F2F0E94CD1C14C00E94EB122DC00E5FB6
:103500001F4FFE01849190E2980F983060F487700D
:10351000FE2D01C0FF0F8A95EAF78F2F0E94D31C62
:103520000E94F81C19C00E949A1316C00E5F1F4F0C
:10353000FE01C491CC2381F08FE99FE00197F1F760
:1035400000C00000C150F6CF0E5F1F4FFE01F49087
:1035500003C00E94EB128E018F2D882309F49FCFA8
:10356000EFE9FFE03197F1F700C000008150F5CF9F
:10357000DF91CF911F910F91FF90EF9008950895E3
:1035800008950C94C01A0C94C11A0E94C31A609337
:1035900013027093140280931502909316020C94F8
:1035A000C1160C94C51A0F931F930091130210912A
:1035B00014022091150230911602602B712B822B80
:1035C000932B1F910F910C94C51A0F931F93009189
:1035D00013021091140220911502309116026023FB
:1035E0007123822393231F910F910C94C51A0F937B
:1035F0001F93009113021091140220911502309133
:10360000160260277127822793271F910F910C9430
:10361000C51A0C94C01A0E94091B60930F02709384
:10362000100280931102909312020C94C11660E074
:1036300070E0CB010C940B1B0F931F9341E050E003
:1036400060E070E08A019B0104C0000F111F221F7F
:10365000331F8A95D2F7C901B8011F910F910C94BD
:103660000B1B0F931F9341E050E060E070E004C03B
:10367000440F551F661F771F8A95D2F780910F025E
:1036800090911002A0911102B09112028A019B0147
:10369000082B192B2A2B3B2BC901B8011F910F9125
:1036A0000C940B1B0F931F9341E050E060E070E01F
:1036B00004C0440F551F661F771F8A95D2F74095A7
:1036C00050956095709580910F0290911002A09195
:1036D0001102B09112028A019B01082319232A23A7
:1036E0003B23C901B8011F910F910C940B1B0F9341
:1036F0001F9341E050E060E070E004C0440F551FAC
:10370000661F771F8A95D2F780910F029091100261
:10371000A0911102B09112028A019B01082719277A
:103720002A273B27C901B8011F910F910C940B1B4D
:103730000F931F9300910F0210911002209111021C
:1037400030911202602B712B822B932B1F910F91C2
:103750000C940B1B0F931F9300910F0210911002FA
:10376000209111023091120260237123822393234E
:103770001F910F910C940B1B0F931F9300910F023D
:1037800010911002209111023091120260277127CE
:10379000822793271F910F910C940B1B08952BE008
:1037A000929F800D1124E82FE695E695E6958770A7
:1037B00051E001C0550F8A95EAF785E0E89FF001D6
:1037C0001124EF50FE4F20E030E070E04081CB014B
:1037D000022E02C0969587950A94E2F78170819532
:1037E00084278523842781932F5F3F4F2530310520
:1037F00069F708952BE0929F800D1124682F66953C
:1038000066956695982F977085E0689FB0011124A2
:1038100040E050E080E0FB01E40FF51FEF50FE4F69
:10382000208130E0092E02C0369527950A94E2F7F0
:1038300021703327042E01C0220F0A94EAF7822B4D
:103840004F5F5F4F4530510531F70895BF92CF92DA
:10385000DF92EF92FF920F931F93CF93DF938C0130
:10386000C0900F02D0901002E0901102F09012026E
:103870008091130290911402A0911502B09116024A
:10388000C82AD92AEA2AFB2ACFE1D0E0D701C6010B
:103890000C2E04C0B695A795979587950A94D2F7F4
:1038A00080FD04C0219790F7B12C07C0BC2EB80151
:1038B0008C2F0E94B60A0197A9F38B2DDF91CF912F
:1038C0001F910F91FF90EF90DF90CF90BF900895E0
:1038D000CF93DF93EC010E94261CBE010E94B60A22
:1038E000DF91CF9108951F93CF93DF93EB019091D8
:1038F000B801992321F0CB010E94681C13C08823D2
:1039000049F0CB010E94261C182F682FCE010E947F
:10391000CF1B04C0CB010E94FA1B182FBE01812FC0
:103920000E94B60ADF91CF911F91089580911702EE
:1039300085958595859508958091170287700895DE
:1039400090911702977081E009F480E008958091CA
:103950003B02089590913B02892B80933B0208958E
:10396000809590913B02892380933B020895809338
:103970003B02089510923B02089590913A02892BE0
:1039800080933A020895809590913A02892380931A
:103990003A02089510923A02089590913902892BC3
:1039A00080933902089580959091390289238093FC
:1039B00039020895109239020895809118020895ED
:1039C00008950C94E01C0C94E11C90911802981737
:1039D00021F0809318020C94E31C08958091180242
:1039E000882329F01092180280E00C94E31C0895BB
:1039F000E0910001F091010180913B028083E09110
:103A00000001F0910101908180913A02892B80831D
:103A1000E0910001F0910101908180913902892BA0
:103A2000808380911802882381F0E0910001F09159
:103A300001019081892B8083809100019091010187
:103A40000E942C1E81110E94EE1C80910001909119
:103A500001010C942E110C94E01C98E0899F9001B8
:103A60001124262B209317020E94311B80911702EC
:103A70008595859585950C942B1D1092170280E0F5
:103A80000C942B1D2091170280958223809317029E
:103A9000982F977079F430E0482F082E000C550BC2
:103AA0002417350739F08595859585950E94521B19
:103AB0000C943D1D08959093A1018093A001089559
:103AC0008295982F937344E0949F900111248C7CED
:103AD00086958695282B822F8575880F2A7A2695BC
:103AE000822B0895CF93DF93D92F0E94601DC82F9A
:103AF0008D2F0E94601D2C2F30E0322F2227A9012C
:103B0000482BCA01DF91CF91089580E090E00E9498
:103B10005E3021E08C3E9E4F09F020E0822F089518
:103B200082E090E00C94563083E090E00C945630A4
:103B3000CF9384E090E00E945630C82F81E290E05D
:103B40000E9456302C2F30E0A901582BCA01CF918A
:103B50000895CF93C92F682F84E090E00E946430CD
:103B60006C2F81E290E0CF910C946430AB01BC01EA
:103B70008FE090E00C947630AB01BC0183E190E0E3
:103B80000C94763060E070E0CB010C94BC1D60E0DA
:103B900070E0CB010E94B61D0C94C21D6CEE7EEF4E
:103BA00080E090E00E94823060E082E090E00E943D
:103BB000643060E083E090E00E9464301092130271
:103BC00010921402109215021092160260E084E026
:103BD00090E00E94643060E081E290E00E946430F6
:103BE00060E085E090E00E94643060E086E090E074
:103BF0000E9464306FEF87E090E00E94643040E004
:103C000050E0BA0188E090E00E94763060E08DE0FC
:103C100090E00E94643040E050E0BA0188E190E01A
:103C20000E94763060E087E190E00E94643040E0DE
:103C300050E0BA018CE190E00E94763060E080E2D2
:103C400090E00E9464300C94C71D0C94CE1D682F28
:103C50008EE090E00C946430FC0132968091140167
:103C6000882331F080918F0287FF02C09EE101C05E
:103C700096E080E0915028F021912223D9F38F5FC4
:103C8000F9CF0895662351F1209114012223E9F020
:103C900020918F0227FF19C0462F469546954695DD
:103CA0004E31E0F4677021E030E002C0220F331F94
:103CB0006A95E2F7FC01E40FF11D828190E0282370
:103CC000392381E0232B69F409C0FC013296089660
:103CD0002191621729F0E817F907D1F780E00895DC
:103CE00081E008959C01FC0132969FEF80E04191B4
:103CF000461789F09F3F19F4411101C0982F8F5F3B
:103D00008630A9F79F3F39F0F901E90FF11D97FDC2
:103D1000FA956283089508959C012A5F3F4FFC0144
:103D20004281461301C01282019682179307B9F7A8
:103D30000895262F2695269526952E3170F4FC01A0
:103D4000E20FF11D677021E030E001C0220F6A959B
:103D5000EAF78281282B2283089580913C0280FF1C
:103D60000CC01F926F9385EC95E09F938F930E94F8
:103D700042090F900F900F900F900895262F2695CF
:103D8000269526952E3178F4FC01E20FF11D67701F
:103D900021E030E001C0220F6A95EAF72095828188
:103DA00028232283089580913C0280FF0CC01F923B
:103DB0006F9387EA95E09F938F930E9442090F903B
:103DC0000F900F900F90089520911401222329F055
:103DD00020918F0227FD0C94991E0C94721E209145
:103DE0001401222329F020918F0227FD0C94BE1E7E
:103DF0000C948C1E20911401FC013296222331F088
:103E000080918F0287FF02C08EE101C086E0DF0152
:103E10001D928A95E9F7089508950C940C1F0C944F
:103E20000C1FCF930E940F1F0E94660D0E940D1F52
:103E3000C0E08C2F0E94A50C892B29F4CF5FC430E1
:103E4000C1F780E001C081E0CF9108950C940C1F70
:103E50000C94261F0E94281F80919502843049F1FE
:103E600010923D0220E488E190E00FB6F894A89506
:103E7000809360000FBE2093600080E00E941F0AC4
:103E80000E94281F83B7817F846083BF83B78160CE
:103E900083BF7894889583B78E7F83BF0FB6F894DD
:103EA000A895809160008861809360001092600006
:103EB0000FBE08950C940C1F0E94DB160E94221165
:103EC0000E941F0A0C945A1F1F920F920FB60F9256
:103ED00011248F939F93AF93BF9380913D028111E3
:103EE00013C080918B0290918C02A0918D02B091B1
:103EF0008E024196A11DB11D80938B0290938C027E
:103F0000A0938D02B0938E02BF91AF919F918F913C
:103F10000F900FBE0F901F90189582E084BD93E024
:103F200095BD9AEF97BD80936E0008952FB7F894D2
:103F300080918B0290918C02A0918D02B0918E02A3
:103F40002FBF08952FB7F89460918B0270918C0267
:103F500080918D0290918E022FBF08959C014FB7E2
:103F6000F89480918B0290918C02A0918D02B09177
:103F70008E024FBF821B930B089578941F920F926D
:103F80000FB60F9211248F939F93AF93BF9380919D
:103F90008B0290918C02A0918D02B0918E020196BD
:103FA000A11DB11D80938B0290938C02A0938D0272
:103FB000B0938E02BF91AF919F918F910F900FBEE2
:103FC0000F901F90189587E797E7909301088093CB
:103FD00000089AE088E10FB6F894A89580936000F5
:103FE0000FBE90936000FFCF0E94851D811102C01B
:103FF0000E94251E0E94901D80933C020E94981DE5
:104000009093900280938F020E94941D682F70E01D
:1040100080E090E00C94D11A8091450280FF0BC0A3
:104020006091070185E0689FB0011124759567953F
:10403000759567952BC081FF09C06091070185E0E8
:10404000689FB00111247595679520C082FF07C055
:104050006091070185E0689FB001112417C090911D
:1040600044029923D1F060910601961788F72091B8
:10407000070185E0289F90011124929FA001939F42
:10408000500D112470E0CA010E942830603871057B
:1040900040F46115710519F406C065E070E0862FE3
:1040A00008958FE7089581E008958091450280FF8B
:1040B00008C06091030170E07595679575956795E7
:1040C00021C081FF06C06091030170E0759567957E
:1040D00019C082FF04C06091030170E010C090918C
:1040E0004402992399F0609102019617A0F78091FC
:1040F0000301899FC001112470E00E9428306038BC
:10410000710540F46115710519F406C061E070E0B5
:10411000862F08958FE7089581E00895803F21F468
:104120000E940C20819504C0813F29F40E940C203C
:10413000809349020895823F21F40E940C208195CA
:1041400004C0833F29F40E940C2080934802089504
:10415000893F19F40E94552005C08A3F31F40E941E
:104160005520819580934A0208958B3F21F40E9447
:104170005520819504C08C3F29F40E9455208093DE
:104180004B020895843F21F480914702816017C05B
:10419000853F21F480914702826011C0863F21F45F
:1041A0008091470284600BC0873F21F480914702D1
:1041B000886005C0883F31F4809147028061809318
:1041C000470208958D3F21F48091450281600BC024
:1041D0008E3F21F480914502826005C08F3F29F413
:1041E000809145028460809345020895803F39F4B0
:1041F0008091490287FF6CC01092490269C0813FDB
:1042000029F4809149021816BCF362C090914802CB
:10421000823F29F497FF5CC01092480259C0833F47
:1042200019F41916CCF354C0893F41F480914A0225
:1042300018160CF04DC010924A024AC08A3F29F469
:1042400080914A0287FF44C0F6CF8B3F39F48091BA
:104250004B0287FF3DC010924B023AC08C3F29F4BD
:1042600080914B021816BCF333C0843F21F4809137
:1042700047028E7F17C0853F21F4809147028D7FD2
:1042800011C0863F21F4809147028B7F0BC0873F8E
:1042900021F480914702877F05C0883F31F48091E7
:1042A00047028F7E8093470213C08D3F21F4809197
:1042B00045028E7F0BC08E3F21F4809145028D7F99
:1042C00005C08F3F29F4809145028B7F8093450282
:1042D0008091480281110EC08091490281110AC06B
:1042E00080914A02811106C080914B02811102C067
:1042F00010924402089580913C0283FF7EC08AE0C0
:1043000096E00E94A908809147021F928F9385E052
:1043100096E09F938F930E94420983E096E00E946B
:10432000A90880914802282F082E000C330B3F93D8
:104330008F9380E096E09F938F930E9442098EEFC7
:1043400095E00E94A90880914902282F082E000CB0
:10435000330B3F938F938BEF95E09F938F930E9446
:10436000420989EF95E00E94A90880914A02282F0E
:10437000082E000C330B3F938F9386EF95E09F93AD
:104380008F930E94420984EF95E00E94A9088091D2
:104390004B02282F082E000C330B3F938F9381EF95
:1043A00095E09F938F930E9442098EEE95E00E94C4
:1043B000A908809144021F928F938BEE95E09F9302
:1043C0008F930E94420989EE95E00E94A90880918E
:1043D00045021F928F9386EE95E09F938F930E94E4
:1043E000420983EE95E00E94A9088DB79EB74C96CE
:1043F0000FB6F8949EBF0FBE8DBF86E492E00E9478
:1044000083110E94961F9093430280934202089565
:10441000CF93DF9300D000D000D0CDB7DEB786E0D9
:10442000E6E4F2E0DE01119601900D928A95E1F743
:1044300080914802811105C080914902882309F4C6
:104440007AC080914002909141020E94AE1FAC015F
:1044500090914402992339F02091080130E024170B
:10446000350758F068C0209109018AE0289F900123
:1044700011242417350718F05EC09F3F19F09F5F85
:104480009093440210924A0210924B02809148028B
:10449000181624F40E940C20809348028091480250
:1044A00087FF05C00E940C2081958093480280916F
:1044B0004902181624F40E940C208093490280912E
:1044C000490287FF05C00E940C2081958093490214
:1044D000309148023323E1F0209149022223C1F0B8
:1044E00045EB3403C0011124992319F0909348023D
:1044F00003C081E08093480235EB2303C0011124FF
:10450000992319F09093490203C081E080934902F6
:104510000E947B218091420290914302909341023C
:104520008093400286E0FE013196A6E4B2E001905D
:104530000D928A95E1F780914A02811105C0809120
:104540004B02882309F47AC080913E0290913F0289
:104550000E94AE1FAC0190914402992339F0209142
:10456000040130E02417350758F068C02091050198
:104570008AE0289F900111242417350718F05EC0A7
:104580009F3F19F09F5F909344021092480210924F
:10459000490280914A02181624F40E945520809303
:1045A0004A0280914A0287FF05C00E9455208195EA
:1045B00080934A0280914B02181624F40E945520E1
:1045C00080934B0280914B0287FF05C00E945520CB
:1045D000819580934B0230914A023323E1F0209180
:1045E0004B022223C1F045EB3403C001112499236F
:1045F00019F090934A0203C081E080934A0235EBA0
:104600002303C0011124992319F090934B0203C096
:1046100081E080934B020E947B2180914202909125
:10462000430290933F0280933E0286E0FE01319662
:10463000A6E4B2E001900D928A95E1F726960FB6B6
:10464000F894DEBF0FBECDBFDF91CF910895E6E4B1
:10465000F2E086E0DF011D928A95E9F710924402AC
:104660001092450208958DE298E00E94A9081F92D9
:1046700081E08F931F9285E08F938FED97E09F935A
:104680008F930E9442090F900F900F900F900F9000
:104690000F9008958330E9F128F4813061F0823081
:1046A00009F10895853009F462C008F449C08630E4
:1046B00009F474C0089580910901262F30E0280F75
:1046C000311D2F3F310524F4680F6093090103C0A9
:1046D0008FEF80930901809109011F928F9388E1E8
:1046E00097E072C080910801262F30E0280F311D1D
:1046F0002F3F310524F4680F6093080103C08FEF4A
:1047000080930801809108011F928F9386E097E0C3
:104710005BC080910701262F30E0280F311D2F3F0D
:10472000310524F4680F6093070103C08FEF809375
:104730000701809107011F928F9383EF96E044C099
:1047400080910601262F30E0280F311D2F3F3105C3
:1047500024F4680F6093060103C08FEF8093060175
:10476000809106011F928F938EED96E02DC080916F
:104770000301262F30E0280F311D2F3F310524F48F
:10478000680F6093030103C08FEF80930301809152
:1047900003011F928F9385EC96E016C08091020171
:1047A000262F30E0280F311D2F3F310524F4680FEC
:1047B0006093020103C08FEF809302018091020198
:1047C0001F928F938AEA96E09F938F930E944209EB
:1047D0000F900F900F900F900895833081F128F47F
:1047E000813059F08230D1F00895853009F449C004
:1047F000B8F1863009F456C0089580910901681710
:1048000020F4861B8093090102C010920901809157
:1048100009011F928F938BE996E054C080910801A3
:10482000681720F4861B8093080102C010920801CB
:10483000809108011F928F9389E896E043C0809190
:104840000701681720F4861B8093070102C01092AD
:104850000701809107011F928F9386E796E032C08F
:1048600080910601681720F4861B8093060102C020
:1048700010920601809106011F928F9381E696E0C7
:1048800021C080910301681720F4861B80930301E7
:1048900002C010920301809103011F928F9388E45C
:1048A00096E010C080910201681720F4861B809367
:1048B000020102C010920201809102011F928F93A7
:1048C0008DE296E09F938F930E9442090F900F9084
:1048D0000F900F900895CF93C82F1F928F9382E36C
:1048E00099E09F938F930E94420981E090E0A0E0BD
:1048F000B0E0BC01CD0104C0660F771F881F991F6F
:10490000CA95D2F70E94D11A0F900F900F900F9076
:10491000CF910C94DB16CF93DF93482F50E0FA0130
:104920003597EF33F10508F063C2EC58FF4F0C9454
:104930003C3085EB9EE00E94A90881EF9DE00E943B
:10494000A9080E94941D1F928F938EEE9DE09F9365
:104950008F930E9442098CEE9DE00E94A9080E945C
:10496000901DC82F89ED9DE00E94A9081F92CF934A
:1049700084ED9DE09F938F930E94420982ED9DE01C
:104980000E94A90888EC9DE00E94A9088C2F8170E4
:104990001F928F9385EC9DE09F938F930E94420915
:1049A00083EC9DE00E94A90889EB9DE00E94A90884
:1049B000C1FB882780F91F928F9386EB9DE09F9320
:1049C0008F930E94420984EB9DE00E94A90888EA27
:1049D0009DE00E94A908C2FB882780F91F928F934F
:1049E00085EA9DE09F938F930E94420983EA9DE0B0
:1049F0000E94A9088AE99DE00E94A908C3FBCC2770
:104A0000C0F91F92CF9387E99DE09F938F930E94F7
:104A1000420985E99DE00E94A9080E94981DEC01C9
:104A200081E89DE00E94A908DF93CF938CE79DE089
:104A30009F938F930E9442098AE79DE00E94A908F4
:104A400081E69DE00E94A9088C2F81701F928F93B0
:104A50008EE59DE09F938F930E9442098DB79EB78C
:104A600080960FB6F8949EBF0FBE8DBF8CE59DE07B
:104A70000E94A90885E49DE00E94A908C1FB88273F
:104A800080F91F928F9382E49DE09F938F930E9401
:104A9000420980E49DE00E94A9088EE29DE00E9408
:104AA000A9088D2F81701F928F938BE29DE09F93B9
:104AB0008F930E94420989E29DE00E94A90887E144
:104AC0009DE00E94A908D695D1701F92DF9384E1E2
:104AD0009DE09F938F930E94420982E19DE00E9496
:104AE000A90880E09DE00E94A908C2FB882780F900
:104AF0001F928F938DEF9CE09F938F930E944209AA
:104B00008BEF9CE00E94A90889EE9CE00E94A90816
:104B1000C3FB882780F91F928F9386EE9CE09F93BA
:104B20008F930E94420984EE9CE00E94A9088AEDBE
:104B30009CE00E94A908C4FB882780F91F928F93EC
:104B400087ED9CE09F938F930E94420985ED9CE046
:104B50000E94A90883EC9CE00E94A908C5FB882755
:104B600080F91F928F9380EC9CE09F938F930E941B
:104B700042098EEB9CE00E94A90882EA9CE00E9418
:104B8000A908C6FB882780F91F928F938FE99CE0C4
:104B90009F938F930E9442098DB79EB780960FB660
:104BA000F8949EBF0FBE8DBF8DE99CE00E94A908BE
:104BB00085E99CE00E94A908C7FBCC27C0F91F9299
:104BC000CF9382E99CE09F938F930E94420980E9F2
:104BD0009CE00E94A9080F900F900F900F9006C0C4
:104BE00084EA9EE00E94A9080E94251EC1E005C13A
:104BF0008EED9AE07FC080913C02817F8E7F809312
:104C00003C0287EB9AE00E94A90880EA9EE00E949D
:104C1000A90881E080934D02E9CF0E94DB1684E869
:104C20009EE00E94A9089FEF23ED80E39150204071
:104C30008040E1F700C000000E94E31FD7CF8091C1
:104C40003C02C82FC095C170C0FB80F980933C0224
:104C5000CC2319F088E79EE0BDC08BE69EE00E9461
:104C6000A90880913C02897F877F80933C02BECF58
:104C700090913C0291FBCC27C0F981E0C827892F95
:104C8000C0FB81F980933C02CC2319F08EE59EE0B5
:104C900027C080E59EE02EC090913C0292FBCC277D
:104CA000C0F981E0C827892FC0FB82F980933C02BC
:104CB000CC2319F081E49EE013C081E39EE01AC08A
:104CC00090913C0293FBCC27C0F981E0C827892F43
:104CD000C0FB83F980933C02CC2351F085E29EE037
:104CE0000E94A90880913C02816080933C0285C0AB
:104CF00088E19EE00E94A90879CF88EA9AE00E94A4
:104D0000A90880E89AE00E94A90886E49AE00E9437
:104D1000A9088EE19AE00E94A90883EE99E00E941A
:104D2000A90888EB99E0E6CF8AEA99E00E94A908F1
:104D30000E9422111F928F9380E999E09F938F9395
:104D40000E944209809114011F928F9389E799E094
:104D50009F938F930E944209809172021F928F93BA
:104D600086E699E09F938F930E94420980918F027B
:104D700087FB882780F91F928F938EE499E09F9399
:104D80008F930E9442090E94A21F9F938F937F934B
:104D90006F9387E399E09F938F930E9442098DB7A9
:104DA0009EB746960FB6F8949EBF0FBE8DBF1ECF1E
:104DB0000E94DB1690918F0297FBCC27C0F981E00F
:104DC000C827892FC0FB87F980938F02CC2329F055
:104DD0008EE09EE00E94A90810C083E09EE08ACF8A
:104DE000895303C08D5101C080E00E946B24FECE28
:104DF00081E09EE00E94A908C0E08C2FDF91CF9156
:104E0000089580E008950C9401278E518A3030F483
:104E1000E82FF0E0EA57FE4F8081089580E0089582
:104E2000CF93C82F80914D02813059F020F082300D
:104E300009F445C039C10E94A71C823209F036C16D
:104E400004C00E94A71C823261F48C2F0E940327A9
:104E5000811104C08C2F0E948B242FC081E090E030
:104E60002CC08C2F0E940127811126C0C431E1F093
:104E700070F4CB3081F0C031D1F40E9433238AE248
:104E800099E00E94A90882E080934D0215C0C932C2
:104E900059F0C83361F487EB9AE00E94A9088EE2CA
:104EA00099E00E94A90808C010924D0201C188E251
:104EB00099E00E94A908FCC081E08170FBC0C43267
:104EC00028F5CE3108F0C1C0CB30A1F1D0F4C73005
:104ED00009F0D0C08EE18093090182E3809308013C
:104EE0008AE08093070184E18093060188E0809343
:104EF000030188E2809302018EEC97E00E94A908EA
:104F0000BCC0C33149F1C431C1F0B4C0CB3409F4E1
:104F1000A6C028F4C93289F0C83361F0ABC0C135EE
:104F200009F49BC0C23509F496C0CE3409F0A2C082
:104F30006AE09BC00E943323A0C080914C0288236A
:104F400019F010924C0299C08BED97E00E94A908CD
:104F500081E080934D02AEC085EB97E00E94A908E6
:104F600083EA97E00E94A908809109011F928F931C
:104F700080EA97E09F938F930E9442098EE997E021
:104F80000E94A9088CE897E00E94A9088091080176
:104F90001F928F9389E897E09F938F930E94420915
:104FA00087E897E00E94A90888E797E00E94A9088F
:104FB000809107011F928F9385E797E09F938F93CE
:104FC0000E94420983E797E00E94A90882E697E0E1
:104FD0000E94A908809106011F928F938FE597E0A8
:104FE0009F938F930E9442098DE597E00E94A90844
:104FF00088E497E00E94A908809103011F928F9393
:1050000085E497E09F938F930E94420983E497E0A1
:105010000E94A9088CE297E00E94A90880910201F1
:105020001F928F9389E297E09F938F930E9442098A
:1050300087E297E00E94A9088DB79EB748960FB601
:10504000F8949EBF0FBE8DBF18C08C2F0E940527FD
:1050500080934C0212C061E003C061E006C06AE0C8
:1050600080914C020E944A2308C080914C020E9409
:10507000ED2303C08CEC97E013C080914C02882391
:1050800069F01F928F9386EC97E09F938F930E9415
:1050900042090F900F900F900F9004C083EC97E09F
:1050A0000E94A90881E006C010924D0280E002C073
:1050B00080E003CFCF9108958091710208959FB74A
:1050C000F894109250029FBF90919502943009F08D
:1050D00057C09091E9009F703091EC00232F217010
:1050E00030FD20E8922B23E02093E9002091EB0093
:1050F00020FF43C02091EE0027FF3FC020914E02C9
:10510000222321F02091E80025FF37C010924E02A3
:1051100026E03091E80035FD15C03091950234301D
:1051200061F53091EB0035FD28C0215021F481E07C
:1051300080934E0222C0EFE9FFE03197F1F700C003
:105140000000E7CF8093F1008091E80085FD0AC060
:105150008091E80080FFFCCF8091E8008E778093FB
:10516000E80006C08FB7F89421E0209350028FBF6B
:105170009F709093E90080E008959F709093E900FC
:105180008FEF0895CF93DF9300D01F92CDB7DEB796
:1051900090919502943019F589837B836A8382E02C
:1051A0008093E9008FEF9091E800815095FD06C053
:1051B00095ED9A95F1F700008111F5CF8091E80007
:1051C00085FF0DC040E050E063E070E0CE01019645
:1051D0000E947F2B8091E8008E778093E8000F90EB
:1051E0000F900F90DF91CF910895CF93DF93EC0153
:1051F0000E94622B823011F0843031F4BE0184E0D1
:10520000DF91CF910C94C228DF91CF910895BC011A
:1052100083E00C94C228CF93DF93EC010E94622BB1
:10522000823011F08430F9F482E08093E9008FEF4E
:105230009091E800815095FD06C095ED9A95F1F7A3
:1052400000008111F5CF8091E80085FF0CC040E09F
:1052500050E066E070E0CE010E947F2B8091E80074
:105260008E778093E800DF91CF910895CF93DF93FD
:10527000EC010E94622B823011F08430D9F58091CC
:105280001401882339F080918F0287FF03C060E208
:1052900082E002C068E081E08093E9008FEF9091A6
:1052A000E800815095FD06C095ED9A95F1F7000054
:1052B0008111F5CF8091E80085FF1CC08091140119
:1052C000811105C040E050E068E070E003C070E08C
:1052D00040E050E0CE010E947F2B8091E8008E7765
:1052E0008093E80080E2FE01A1E5B2E001900D921A
:1052F0008A95E1F7DF91CF91089585EE9EE00E94B7
:10530000A90880919402811109C00E94102D0E9469
:105310006D2D8091E20084608093E200089581EE1B
:105320009EE00E94A9081092940208958DED9EE0DF
:105330000C94A90889ED9EE00C94A90885ED9EE0E7
:105340000E94A9080C945C1F20914F022F5F822FAE
:1053500062E30E941C30992319F020934F020895B4
:1053600010924F0280915002882371F18091950232
:10537000843041F58091E9008F702091EC00922FEC
:10538000917020FD90E8892B93E09093E900909133
:10539000EB0090FF14C09091EE0097FF10C0909129
:1053A000E80095FF03C01092F100F9CF9091E8005A
:1053B00090FF05C09091E8009E779093E8008F7071
:1053C0008093E90010925002089542E061EC81E080
:1053D0000E94892C42E261EC82E00E94892C42E228
:1053E00061EC83E00C94892C80919702833009F45E
:1053F00060C030F4813071F0823009F499C00895B2
:105400008A3009F485C08B3009F46BC0893009F00B
:10541000A7C020C080919602813A09F0A1C0809176
:10542000E800877F8093E80080919A0290919B0228
:10543000892B21F460E281E592E003C060E080E026
:1054400090E070E00E94CA2B8091E8008B778093F7
:10545000E800089580919602813209F081C0809120
:105460009A0290919B02029708F07AC08091E8001E
:10547000877F8093E8008091E80082FD05C08091DD
:1054800095028111F8CF6CC02091F3008091F20059
:1054900090E0922B029729F48091F1008B7F81306C
:1054A00021F48091F100809371028091E8008B7764
:1054B00053C080919602813A09F052C080919A02BD
:1054C00090919B02892B09F04BC08091E800877F67
:1054D0008093E8008091E80080FFFCCF8091140168
:1054E00036C0809196028132D9F580919A029091CE
:1054F0009B02892BA9F58091E800877F8093E800C3
:105500000E94BE2C80919802809314010C94DB16AB
:1055100080919602813221F58091E800877F809307
:10552000E8000E94BE2C8091990280937202089537
:1055300080919602813AA1F48091E800877F809360
:10554000E8008091E80080FFFCCF80917202809398
:10555000F1008091E8008E778093E8000C94BE2CD7
:10556000089584B7877F84BF0FB6F894A89580917B
:105570006000886180936000109260000FBE90E030
:1055800080E80FB6F89480936100909361000FBE9D
:105590000E94CD110E94102D0E946D2D8091E2007D
:1055A00084608093E2008FE598E20E945B1D78940E
:1055B0000E9401300E94D7118AE091E00E941D11E3
:1055C00084EC9EE00E94A90880919502853089F4C0
:1055D00080EC9EE00E94A9080E942A1F80919302FD
:1055E000882391F30E94111F882371F30E94692B75
:1055F000EBCF0E940712E8CF0C94FE2A292F332705
:1056000023303105C9F060F42130310581F02230BA
:10561000310509F047C08BE590E02DE13FE046C041
:105620002132310511F12232310561F13BC082E1B5
:1056300090E028E73FE03AC099278130910561F07A
:1056400040F08230910559F0039761F5E9EEFEE0F4
:1056500008C0E9E1FFE005C0EFEFFEE002C0EFEEB9
:10566000FEE0849190E09F0121C063307105D0F489
:10567000660F771FFB01E756FE4F2081318189E0DD
:1056800090E014C06330710568F4FB01EE0FFF1F5A
:10569000ED56FE4F20813181FB01E057FE4F8081A6
:1056A00090E004C080E090E020E030E0FA01318337
:1056B0002083089580919502843011F081E008954F
:1056C00082E0089580917302811102C00C945A2BDC
:1056D000089580E189BD82E189BD09B400FEFDCF56
:1056E0008091D8008F7D8093D8008091E000826007
:1056F0008093E0008091E00081FDFCCF0895CF927F
:10570000DF92EF92FF920F931F93CF93DF93EC0101
:105710008B017A010E94DD2C811133C0E114F10468
:1057200039F0F70180819181081B190BC80FD91F2F
:10573000C12CD12C0115110519F18091E80085FDCE
:1057400016C08091E8008E778093E800E114F104A0
:1057500049F0F70180819181C80ED91ED182C082A3
:1057600085E00FC00E94DD2C882321F30AC08991B7
:105770008093F10001501109FFEFCF1ADF0ADACF51
:1057800080E0DF91CF911F910F91FF90EF90DF901C
:10579000CF90089520919C0230919D0226173707E3
:1057A00048F06115710539F42091E8002E772093B7
:1057B000E80001C0B901FC0120E06115710579F133
:1057C000809195028823F1F18530F1F18091E80014
:1057D00083FD3CC08091E80082FD2EC08091E800EE
:1057E00080FFEBCF2091F3008091F20090E0922BAC
:1057F0006115710551F08830910538F4219120939D
:10580000F100615071090196F3CF21E0089709F08A
:1058100020E08091E8008E778093E800CECF2111C0
:10582000CFCF0AC080919502882361F0853061F066
:105830008091E80083FD0AC08091E80082FFF2CFEA
:1058400080E0089582E0089583E0089581E008955E
:1058500020919C0230919D022617370748F0611570
:10586000710539F42091E8002E772093E80001C0FB
:10587000B901FC0120E06115710591F1809195025B
:10588000882309F440C0853009F43FC08091E800C6
:1058900083FD3DC08091E80082FD2FC08091E8002B
:1058A00080FFE9CF2091F3008091F20090E0922BED
:1058B0006115710559F08830910540F424912093C9
:1058C000F1003196615071090196F2CF21E00897FD
:1058D00009F020E08091E8008E778093E800CBCF3C
:1058E0002111CCCF0AC080919502882361F08530C8
:1058F00061F08091E80083FD0AC08091E80082FF9A
:10590000F2CF80E0089582E0089583E0089581E079
:105910000895982F973068F59093E900981739F01B
:105920007091EC002091ED005091F00003C0242F05
:10593000762F50E021FD02C09F5FECCF3091EB004D
:105940003E7F3093EB003091ED003D7F3093ED00D2
:105950003091EB0031603093EB007093EC002093BA
:10596000ED005093F0002091EE0027FDE5CF80E0A0
:1059700008958F708093E90081E0089580919602E8
:1059800087FF11C08091E80082FD05C080919502DB
:105990008111F8CF11C08091E8008B770BC0809106
:1059A0009502882349F08091E80080FFF8CF80912C
:1059B000E8008E778093E80008952091E40030910C
:1059C000E50095E64091EC00842F817040FF23C0F4
:1059D0008091E80080FD1DC080919502882399F098
:1059E000853099F08091EB0085FD11C04091E40075
:1059F0005091E5002417350729F3915011F09A01D1
:105A0000E1CF84E0089582E0089583E0089581E085
:105A1000089580E008954091E80042FFDDCF0895A9
:105A20000E947E2D0E94862DE0EEF0E08081816054
:105A30008083E8EDF0E080818F77808319BCA7ED4B
:105A4000B0E08C918E7F8C9380818F7E80831092CA
:105A5000940208950F931F93CF93DF930E947E2D9E
:105A60000E94862DC8EDD0E088818F778883888159
:105A70008068888388818F7D888319BC1092950205
:105A800010929102109293021092920200EE10E096
:105A9000F80180818B7F808388818160888342E0E8
:105AA00060E080E00E94892CE1EEF0E080818E7F52
:105AB0008083E2EEF0E08081816080838081886075
:105AC0008083F80180818E7F8083888180618883D4
:105AD000DF91CF911F910F910895E8EDF0E0808163
